:100000000C9468010C9490010C9490010C94900154
:100010000C9490010C9490010C9490010C9490011C
:100020000C9490010C944A040C946F120C94E112FD
:100030000C9490010C9490010C9490010C949001FC
:100040000C9490010C9490010C9490010C949001EC
:100050000C94C2100C9490010C9490010C94000428
:100060000C9490010C943E150C9418150C9490016E
:100070000C9490010C9490010C9490010C949001BC
:100080000C9490010C9490010C9490010C949001AC
:100090000C9490010C9490010C9490010C9490019C
:1000A0000C9490010C9490010C949001EF01F201DA
:1000B000E101E501EB01130213021302F601FA015B
:1000C000FE010402080213020E0200407A10F35AE5
:1000D00000A0724E18090010A5D4E80000E8764888
:1000E000170000E40B54020000CA9A3B000000E134
:1000F000F505000080969800000040420F000000C7
:10010000A08601000000102700000000E8030000A6
:1001100000006400000000000A0000000000010070
:10012000000000002C76D888DC674F0823DFC1DF91
:10013000AE59E1B1B796E5E3E453C63AE651997694
:1001400096E8E6C28426EB898C9B62ED407C6FFCCE
:10015000EFBC9C9F40F2BAA56FA5F490055A2AF710
:100160005C936B6CF9676DC11BFCE0E40D47FEF519
:1001700020E6B500D0ED902E030094357705008081
:10018000841E080000204E0A000000C80C333333E0
:10019000330F986E12831141EF8D2114893BE65580
:1001A00016CFFEE6DB18D1844B381BF77C1D901D63
:1001B000A4BBE424203284725E228100C9F124ECC5
:1001C000A1E53D2700000000240027002A002D00A3
:1001D0003000040802011040804010204080408020
:1001E00008020401804020100201108010204040CD
:1001F00020040404040403040502020202040302AE
:1002000002020206060606060604040202020404AE
:1002100000000000250028002B002E003100000007
:1002200000002300260029002C002F0000000002FF
:1002300000090F0000030401000C00000000000092
:10024000000000000000000000007C3C3E5E2B3DF2
:100250003F2F5B5D3B2C2A225C00080B0002020250
:100260000100090400000102020000052400100141
:1002700005240101010424020605240600010705E6
:10028000810310004009040100020A000000070574
:100290000202400000070583024000000403090435
:1002A00012010002EF0201404F1B04920001010203
:1002B0000301537061726B46756E00537061726B0F
:1002C00046756E2050726F204D6963726F00222058
:1002D00011241FBECFEFDAE0DEBFCDBF12E0A0E0F9
:1002E000B1E0E0EDFCE402C005900D92A434B1074A
:1002F000D9F725E0A4E4B2E001C01D92A13EB20707
:10030000E1F711E0C8E6D1E004C02197FE010E94A8
:10031000C224C736D107C9F70E94B9190C946626C2
:100320000C94000080E090E0892B29F00E94C81115
:1003300081110C9400000895CF93DF931F92CDB7E5
:10034000DEB76983DC01ED91FC910280F381E02D41
:1003500041E050E0BE016F5F7F4F09950F90DF9144
:10036000CF91089583E08093E9008091F200882383
:1003700019F08AE38093E8000895FC01848595854F
:1003800097FD0BC09FB7F89482E08093E9008091BD
:10039000F2009FBF90E0019608959FB7F89482E025
:1003A0008093E9008091F2009FBF90E0089590E073
:1003B000FC013197EF30F105B0F5EA5AFF4F0C948C
:1003C000C224809180008F7703C0809180008F7D50
:1003D00080938000089580918000877FF9CF84B555
:1003E0008F7702C084B58F7D84BD08958091900081
:1003F0008F7707C0809190008F7D03C0809190001F
:10040000877F8093900008958091C0008F7703C00C
:100410008091C0008F7D8093C00008958091C200BC
:10042000877F8093C20008953FB7F894809163025C
:1004300090916402A0916502B091660226B5A89BD6
:1004400005C02F3F19F00196A11DB11D3FBFBA2F66
:10045000A92F982F8827820F911DA11DB11DBC01C6
:10046000CD0143E0660F771F881F991F4A95D1F78A
:1004700008950E94941990E00895CF93DF931F92FE
:10048000CDB7DEB7FC018485958597FD05C02FEFBC
:100490003FEF358724870BC0CE0101960E946A1971
:1004A000019719F4898190E002C08FEF9FEF0F90C0
:1004B000DF91CF9108950F931F93CF93DF931F92F6
:1004C000CDB7DEB78C01FC018485958597FF0EC002
:1004D000CE0101960E946A19019719F4298130E032
:1004E00002C02FEF3FEFF80135872487F80184859C
:1004F00095850F90DF91CF911F910F910895FC0189
:10050000848DDF01A80FB11DA35ABF4F2C91848D9C
:1005100090E001968F739927848FA689B7892C93D1
:10052000A089B1898C9180648C93938D848D98136C
:1005300006C00288F389E02D80818F7D8083089535
:10054000CF93DF93282F30E0F901E45DFD4F8491D4
:10055000F901EE52FE4FD491F901EF50FE4FC491D4
:10056000CC2391F081110E94D701EC2FF0E0EE0F27
:10057000FF1FE25EFD4FA591B491EC91ED2381E068
:1005800090E021F480E002C080E090E0DF91CF9124
:1005900008951F93CF93DF93282F30E0F901E45D96
:1005A000FD4F8491F901EE52FE4FD491F901EF50C5
:1005B000FE4FC491CC23C9F0162F81110E94D701A0
:1005C000EC2FF0E0EE0FFF1FE05FFD4FA591B4911F
:1005D0008FB7F894111105C09C91ED2FE095E92398
:1005E00002C0EC91ED2BEC938FBFDF91CF911F9167
:1005F0000895CF93DF9390E0FC01EE52FE4F2491DB
:10060000FC01EF50FE4F8491882361F190E0880F48
:10061000991FFC01EC53FE4FC591D491FC01E05FA2
:10062000FD4FA591B491611109C09FB7F8948881DD
:10063000209582238883EC912E230BC0623061F4D5
:100640009FB7F8943881822F809583238883EC911B
:100650002E2B2C939FBF06C08FB7F894E8812E2BCA
:1006600028838FBFDF91CF9108958F929F92AF9291
:10067000BF92CF92DF92EF92FF926B017C010E94BA
:1006800014024B015C01C114D104E104F104F1F046
:100690000E941402DC01CB0188199909AA09BB093F
:1006A000883E9340A105B10570F321E0C21AD1083C
:1006B000E108F10888EE880E83E0981EA11CB11CA9
:1006C000C114D104E104F10419F7DDCFFF90EF90DC
:1006D000DF90CF90BF90AF909F908F9008958F92B2
:1006E0009F92AF92BF92CF92DF92EF92FF920F93C1
:1006F0001F93CF93DF935C016B017A0180912301FB
:10070000882309F45BC08091D005882309F456C082
:100710008091450280FF05C08091E0008260809357
:10072000E000E70110E00AEF83E0882E9AE3992EBB
:100730002097D9F10E94941981110AC0015009F43F
:100740003DC061E070E080E090E00E943503F0CFB2
:10075000282F30E0C217D3070CF48C2F4FB7F89432
:100760008092E9009091E80095FF1DC0282F30E0AD
:10077000C21BD30BF601982F915020F081918093EA
:10078000F100FACFC20ED31E112319F09092E800A7
:1007900009C08091E80085FD06C09092E80011E054
:1007A000209709F010E04FBFC3CF1111C3CF5D9860
:1007B00084E680936B021E141F0444F081E090E0F5
:1007C000F5019383828380E090E001C0C701DF914F
:1007D000CF911F910F91FF90EF90DF90CF90BF903E
:1007E000AF909F908F9008952FB7F89460915F021B
:1007F0007091600280916102909162022FBF089512
:100800001F920F920FB60F9211242F933F938F9345
:100810009F93AF93BF9380915F0290916002A091EC
:100820006102B091620230915E0226E0230F2D3703
:1008300020F40296A11DB11D05C029E8230F0396DF
:10084000A11DB11D20935E0280935F029093600210
:10085000A0936102B093620280916302909164025E
:10086000A0916502B09166020196A11DB11D809311
:10087000630290936402A0936502B0936602BF91F5
:10088000AF919F918F913F912F910F900FBE0F903D
:100890001F9018951F920F920FB60F9211240F9070
:1008A0000FBE0F901F901895809157028823A9F1D1
:1008B000409114015091150160911601709117013A
:1008C00020E732E080917004909171040E94D10F72
:1008D000811102C080E00895409158025091590260
:1008E00060915A0270915B024115510561057105D5
:1008F00091F020E732E080917004909171040E94A1
:10090000D10F882339F31092580210925902109295
:100910005A0210925B021092570281E008958F9262
:100920009F92AF92BF92EF92FF920F931F93CF933C
:100930004B015C01C42F8091140190911501A0918D
:100940001601B091170188159905AA05BB0501F19B
:100950000E945404811102C080E020C080E7E82E8C
:1009600082E0F82E00E012E020E030E0B501A401C2
:1009700080917004909171040E94400C882361F36F
:100980008092140190921501A0921601B092170165
:1009900080915702C82BC093570281E0CF911F91DD
:1009A0000F91FF90EF90BF90AF909F908F90089520
:1009B0004F925F926F927F928F929F92AF92BF926F
:1009C000CF92DF92EF92FF920F931F93CF93DF931B
:1009D000EC016A017B0128013901423051056105B2
:1009E000710510F480E073C089859A85AB85BC855C
:1009F0000196A11DB11D84179507A607B70790F3AF
:100A00008B889C88AD88BE888F89803129F4BB276C
:100A1000AF2D9E2D8D2D09C0DB01CA0147E0B69593
:100A2000A795979587954A95D1F7880E991EAA1E86
:100A3000BB1E8091140190911501A0911601B091F7
:100A4000170188169906AA06BB0679F48F898031AA
:100A5000A1F4DD24EE24FF24C601880F991FFC01B8
:100A6000E059FD4F5182408219C040E0C501B401F8
:100A70000E948F048111EACFB5CFE894C7F8DD2436
:100A8000EE24FF24C601880F991F880F991FFC01CF
:100A9000E059FD4F408251826282738280915702F9
:100AA0008160809357028A89823080F08D819E8197
:100AB000AF81B885880E991EAA1EBB1E809258026F
:100AC00090925902A0925A02B0925B0281E0DF91AB
:100AD000CF911F910F91FF90EF90DF90CF90BF903B
:100AE000AF909F908F907F906F905F904F90089500
:100AF0008F929F92AF92BF92CF92DF92EF92FF922E
:100B00000F931F93CF93DF93FC0181859285A3857B
:100B1000B4850196A11DB11D84179507A607B707D7
:100B200010F480E05CC083899489A589B689C7895F
:100B3000C03129F4852E962EA72EBB2409C04A0168
:100B40005B01C7E0B694A79497948794CA95D1F7B0
:100B5000E9016A017B018F01BC01CD01680D791D9E
:100B60008A1D9B1D8090140190901501A090160184
:100B7000B0901701681579058A059B0599F4F8016D
:100B800087898031A9F4B701A60155276627772701
:100B9000440F551FFA01E059FD4F80819181A0E07B
:100BA000B0E018C040E00E948F048111E8CFB9CFB7
:100BB000B701A6014F77552766277727440F551FA2
:100BC000440F551FFA01E059FD4F80819181A281A8
:100BD000B381BF7088839983AA83BB8381E0DF914F
:100BE000CF911F910F91FF90EF90DF90CF90BF902A
:100BF000AF909F908F9008954F925F926F927F92E7
:100C0000AF92BF92CF92DF92EF92FF920F931F931A
:100C1000CF93DF9300D000D0CDB7DEB78C014983EE
:100C20005A836B837C835901C12CD12C7601412CD2
:100C300082E0582E612C712C49815A816B817C8114
:100C40009E012F5F3F4FC8010E947805882351F114
:100C5000D301C201F801058404C0880F991FAA1F9F
:100C6000BB1F0A94D2F7C80ED91EEA1EFB1E49818B
:100C70005A816B817C818789803129F088EF9FEFD1
:100C8000AFEFBFE004C088EF9FEFA0E0B0E04817EF
:100C900059076A077B0780F2F501C082D182E282A0
:100CA000F38281E00F900F900F900F90DF91CF9122
:100CB0001F910F91FF90EF90DF90CF90BF90AF907A
:100CC0007F906F905F904F900895CF93DF93EC01EA
:100CD0008D818823A1F18C8187FF2DC06E857F8552
:100CE0008889998941E00E948F04882341F1EA892B
:100CF00080E2E89FF0011124DF01A059BD4F109759
:100D0000F1F08D81823050F44B895C896D897E8948
:100D10005C964D935D936D937C935F978F89988DCF
:100D2000A98DBA8DE059FD4F938F828FB58BA48B1F
:100D30008C818F778C83DF91CF910C94540480E069
:100D4000DF91CF9108958F929F92AF92BF92CF92F1
:100D5000DF92EF92FF920F931F93CF93DF93EC01FB
:100D60008D81811102C080E077C00B891C892D899B
:100D70003E890417150726073707A8F36A017B0188
:100D8000823029F4CA86DB86EC86FD860DC0C1144C
:100D9000D104E104F10451F41E821F8218861986E1
:100DA0001A861B861C861D8681E056C08A849B8419
:100DB000AC84BD84EB8DFC8D258530E0275F3F4FF3
:100DC000B501A4014150510961097109022E04C005
:100DD00076956795579547950A94D2F7D701C6013E
:100DE0000197A109B10904C0B695A7959795879574
:100DF0002A95D2F784179507A607B70720F0892808
:100E00008A288B2849F44F89588D698D7A8D4E83B5
:100E10005F836887798704C0841B950BA60BB70B8B
:100E20004C015D018E010A5F1F4F81149104A104E2
:100E3000B10409F4A7CF4E815F8168857985980157
:100E40008B8D9C8D0E94780591E0891A9108A108EC
:100E5000B1088111EACF87CFDF91CF911F910F9118
:100E6000FF90EF90DF90CF90BF90AF909F908F90CA
:100E700008952F923F924F925F926F927F928F923E
:100E80009F92AF92BF92CF92DF92EF92FF920F9319
:100E90001F93CF93DF9300D000D0CDB7DEB78C0186
:100EA0005B011A01DC0115968C9115978130C9F40C
:100EB00014968C9181FF15C082FF1BC0F8014389F5
:100EC00054896589768982859385A485B58584173B
:100ED0009507A607B70769F0C8010E94A30681110C
:100EE00008C081E090E0F8019383828380E090E085
:100EF00039C1610183C0D8015B968D919C915C974B
:100F0000FC01248121502A013B0139E07694679449
:100F1000579447943A95D1F7722E74207A01F1E0F4
:100F2000FF22772009F476C080E092E08E199F09B5
:100F300046018C159D0508F44C01D8015B962D9156
:100F40003C915C9716968D919D910D90BC91A02D32
:100F50000297A109B109F901058404C0880F991FFE
:100F6000AA1FBB1F0A94D2F74685578560897189ED
:100F7000840F951FA61FB71F9C01AD01270D311DC2
:100F8000411D511D29013A01811432E0930609F0F7
:100F900088C08091140190911501A0911601B09123
:100FA000170184159505A605B70559F48FEF9FEF36
:100FB000DC018093140190931501A0931601B09366
:100FC00017019501B301A201809170049091710401
:100FD0000E94D10F882309F484CF9EEFB91AC81854
:100FE000D908F80182859385A485B585880D991D5A
:100FF000A11DB11D82879387A487B587D8011A9652
:101000004D915D916D917C911D97C114D10409F0B2
:1010100072CF87C0E114F10409F086CF16964D9186
:101020005D916D917C91199741155105610571058F
:1010300059F457968D919D910D90BC91A02D0097DC
:10104000A105B10541F521C09E012F5F3F4F0E94D0
:101050007805882309F44BCF89819A81AB81BC81C3
:10106000F801238D348DF9012789203129F048EFCB
:101070005FEF6FEF7FE004C048EF5FEF60E070E08C
:1010800084179507A607B70730F0C8010E94720AB7
:1010900081114ACF26CFF80186839783A087B18735
:1010A00043CFE114F10429F5D8011A964D915D91D1
:1010B0006D917C911D9753968D919D910D90BC9152
:1010C000A02D481759076A077B0798F00E9454041F
:1010D000882309F406CF40921401509215016092C2
:1010E0001601709217018091570281608093570218
:1010F00008C041E0C301B2010E948F04882309F4B3
:10110000F0CED501F701E059FD4FCF01880D991DB3
:10111000E817F90719F02D912193FACFA80CB91C03
:101120005ECF53968D919D910D90BC91A02D84170B
:101130009507A607B70740F4F801438B548B658BDE
:10114000768B848180688483D80114968C9183FD8A
:1011500002C0C10107C0C8010E946506882309F4C6
:10116000C0CEF7CF0F900F900F900F90DF91CF91DF
:101170001F910F91FF90EF90DF90CF90BF90AF90B5
:101180009F908F907F906F905F904F903F902F90A7
:101190000895CF93DF931F92CDB7DEB7698341E007
:1011A00050E0BE016F5F7F4F0E9439070F90DF91C3
:1011B000CF9108951F93CF93DF93EC0180E2689F56
:1011C000F00111249F0120593D4FD9011B969C919C
:1011D000917129F0842F827411F080E058C0142F8F
:1011E0006A8B8091140190911501A0911601B09124
:1011F00017018E879F87A88BB98BE059FD4F4489D3
:10120000558960E070E0BA01552744274F8B588F0D
:10121000698F7A8F828D938DA0E0B0E0482B592B97
:101220006A2B7B2B4F8B588F698F7A8FD9011B9636
:101230008C91887151F4848D958DA68DB78D8B8B93
:101240009C8BAD8BBE8B81E00DC0803131F69E0151
:101250002D5E3F4F8B8D9C8D0E94FC05882309F4E9
:10126000BCCF84E08D83812F8F708C831E821F8280
:10127000188619861A861B861C861D8616FF06C0D0
:10128000CE01DF91CF911F910C94701581E0DF9119
:10129000CF911F910895DC015996ED91FC915A97D9
:1012A0003097B9F083899489A589B6894285538599
:1012B00064857585841B950BA60BB70B811520E8FB
:1012C0009207A105B10538F08FEF9FE7A0E0B0E0ED
:1012D000089580E090E00895CF93DF931F92CDB7FB
:1012E000DEB76983DC01ED91FC910280F381E02D92
:1012F00041E050E0BE016F5F7F4F09950F90DF9195
:10130000CF910895089580E090E00895FC01818DCB
:10131000928D009711F00C9465060895CF92DF929C
:10132000EF92FF9280917B008F7D80937B00809174
:101330007A008F7780937A0080917C008E7F8093F3
:101340007C0080917C008D7F80937C0080917C006C
:101350008B7F80937C0080917A00806880937A00F4
:1013600080917A00806480937A0080917A0086FD73
:10137000FCCF2091780030917900205F314080913E
:101380007B008F7D80937B0080917A008F778093A4
:101390007A0080917C00816080937C0080917C0049
:1013A0008D7F80937C0080917C00846080937C00A2
:1013B00080917A00806880937A0080917A008064BE
:1013C00080937A0080917A0086FDFCCF809178002E
:1013D00090917900805F9140C0905002D09051026E
:1013E000E0905202F0905302289FA001299F500DD7
:1013F000389F500D1124052E000C660B770B4C0DF9
:101400005D1D6E1D7F1D40935002509351026093ED
:1014100052027093530240914C0250914D026091E0
:101420004E0270914F02092E000CAA0BBB0B840FC9
:10143000951FA61FB71F80934C0290934D02A09357
:101440004E02B0934F028091540290915502019642
:1014500090935502809354028091670290916802A4
:10146000892B59F461E08DE00E94C90281E090E08F
:10147000909368028093670208C060E08DE00E944C
:10148000C9021092680210926702FF90EF90DF90FD
:10149000CF900895CF93DF93EC01898D9A8D0097BB
:1014A00039F481E090E09B838A8380E090E00BC078
:1014B000FC01138212820E943907E98DFA8D228184
:1014C0003381232B71F7DF91CF910895CF93DF9371
:1014D000EC010E946506882311F01D8281E0DF91F6
:1014E000CF9108953F924F925F926F927F928F9229
:1014F0009F92AF92BF92CF92DF92EF92FF920F93A3
:101500001F93CF93DF93CDB7DEB72C970FB6F89428
:10151000DEBF0FBECDBF5C01DC015B968D909C9061
:101520005C971696CD90DD90ED90FC901997C114C4
:10153000D104E104F10439F0BFEFCB1ADB0AEB0A66
:10154000FB0A312C07C0F401C080D180E280F38017
:1015500033243394F40181859285A385B4859C015D
:10156000AD012F5F3F4F4F4F5F4F29873A874B8722
:101570005C87260137011D821E821F821886F401B6
:1015800081859285A385B4852D813E814F815885C3
:10159000281739074A075B0708F063C089859A85D1
:1015A000AB85BC858C159D05AE05BF0550F482E06A
:1015B000C82ED12CE12CF12C92E0492E512C612C1B
:1015C000712C9E012F5F3F4FB701A601C4010E94FD
:1015D0007805882309F445C089819A81AB81BC8153
:1015E000892B8A2B8B2B41F0260137019FEF491A5B
:1015F000590A690A790A05C0C414D504E604F70437
:1016000091F02D813E814F8158852F5F3F4F4F4F85
:101610005F4F2D833E834F8358873FEFC31AD30A12
:10162000E30AF30AACCF0FEF1FEF2FEF3FE0B30158
:10163000A201C4010E94D804882399F0D50116960E
:101640004D915D916D917C91199741155105610501
:10165000710549F093018201C4010E94D8048111EF
:1016600002C080E02AC0D50116964D925D926D921F
:101670007C921997332051F0D301C2010196A11D2C
:10168000B11DF40180839183A283B383F50187891F
:10169000908DA18DB28D892B8A2B8B2B69F4D5016E
:1016A00057964D925D926D927C925A9714968C91BA
:1016B0001497806814968C9381E02C960FB6F8945A
:1016C000DEBF0FBECDBFDF91CF911F910F91FF9075
:1016D000EF90DF90CF90BF90AF909F908F907F90D2
:1016E0006F905F904F903F9008958FB7F8948091DE
:1016F0006A028FBF089561E0FC0184810E94C902E3
:101700008091690281111092690208958EBD0000D6
:101710000DB407FEFDCF8EB508958FEF0C94860BA8
:101720000F931F93CF93DF93EB010E94F4038B0180
:101730000E948D0B8F3F49F00E94F403601B710BD8
:101740006C177D07A8F380E001C081E0DF91CF91A5
:101750001F910F910895CF93DF93EC018E81882321
:1017600089F08F8198859C012F5F3F4F38872F83A9
:101770008230924018F40E948D0BF3CFCE010E946C
:101780007B0B1E82DF91CF9108958CBD9DBD089586
:10179000CF93DF93EC0180916902811109C081E050
:1017A0008093690280915F05909160050E94C50B4E
:1017B00060E08C81DF91CF910C94C902CF92DF92CF
:1017C000FF920F931F93CF93DF9300D000D0CDB73C
:1017D000DEB76C01F62E29833A834B835C830E942B
:1017E000AB0BC6010E94C80B6CE271E0C6010E94FF
:1017F000900B8F2D80640E94860B08E110E05C81C5
:101800004B813A812981DA01C901002E04C0B695C5
:10181000A795979587950A94D2F729833A834B83A6
:101820005C830E94860B0850110929813A814B8103
:101830005C81083F8FEF180731F7FF2029F0E8E0BF
:10184000FE1204C087E803C085E901C08FEF0E9443
:10185000860B10E00E948D0BF601828787FF04C083
:101860001F3F11F01F5FF6CF0F900F900F900F905A
:10187000DF91CF911F910F91FF90DF90CF9008954E
:10188000AF92BF92CF92DF92EF92FF920F931F938E
:10189000CF93DF93EC016901C801820F931F813060
:1018A000924008F070C08E81882371F08881998100
:1018B000AA81BB81481759076A077B0729F48F81E2
:1018C0009885C816D906B0F5488359836A837B8307
:1018D0008B85833039F089E0440F551F661F771FD1
:1018E0008A95D1F79A01AB0161E1CE010E94DE0B2E
:1018F000882319F083E08D8346C00E94F4035B01C6
:101900000E948D0B8A878F3F49F40E94F4036A1965
:101910007B096D327140A0F38FE003C08E3F31F040
:101920008DE08D83CE010E947B0B2DC018861F8217
:1019300081E08E838F8198858C159D0540F40E94EF
:101940008D0B8F819885019698878F83F3CF6701E0
:10195000E00EF11ECE14DF0431F00E948D0BF60173
:1019600081936F01F7CF8F819885080F191F188712
:101970000F838985882319F00115124048F0CE01A4
:101980000E94AB0B05C0CE010E947B0B80E001C022
:1019900081E0DF91CF911F910F91FF90EF90DF9049
:1019A000CF90BF90AF9008952F923F924F925F9249
:1019B0006F927F928F929F92AF92BF92CF92DF925F
:1019C000EF92FF920F931F93CF93DF9300D0CDB789
:1019D000DEB7FC018581882309F4D9C0848180FFAA
:1019E000D6C021E02A834389548965897689828516
:1019F0009385A485B585481759076A077B0709F4BD
:101A00001A826F013A81832F90E0DE0111964D0119
:101A10003F01B6E06B0E711C892B09F47DC0D60125
:101A20001A964D915D916D917C911D975A01B1E08F
:101A3000BB22F60125811A012B0189E056944794B7
:101A4000379427948A95D1F7838D948D223061F451
:101A5000FC01828D938DA48DB58DBC01CD01620DED
:101A6000731D841D951D45C0DC0114961C911150F9
:101A70001221A114B104D1F4111118C0452B462B29
:101A8000472B51F4F6018789908DA18DB28D868305
:101A90009783A087B1870AC0468157816085718589
:101AA00093010E947805882309F471C0F601238D03
:101AB000348D86819781A085B1850297A109B109EE
:101AC000AC01BD01F901058404C0440F551F661F18
:101AD000771F0A94D2F786859785A089B189840FEC
:101AE000951FA61FB71FBC01CD01610F711D811D80
:101AF000911DD60114962C9126FF14C0009114015B
:101B0000109115012091160130911701601771078E
:101B10008207930751F506C0FA81FF23C1F189813D
:101B200090E037C040E00E948F04882381F1F501E6
:101B3000E059FD4FD401CF010196E817F90719F0DC
:101B400021912D93FACFEFEF8E1A9E0AF60182852E
:101B50009385A485B5850196A11DB11D82879387C4
:101B6000A487B58780E090E057CF740101E010E0D2
:101B70009501AB01BC0180917004909171040E94A9
:101B8000400C882321F0BFEF8B1A9B0ADFCF8FEF29
:101B90009FEF0F900F90DF91CF911F910F91FF90CA
:101BA000EF90DF90CF90BF90AF909F908F907F90FD
:101BB0006F905F904F903F902F9008954F925F925B
:101BC0006F927F929F92AF92BF92CF92DF92EF92ED
:101BD000FF920F931F93CF93DF93CDB7DEB72B9771
:101BE0000FB6F894DEBF0FBECDBF7C01DC011596A9
:101BF000AC90A1108AC1FE0131966F0190E28BE09A
:101C00008E0F91938E13FDCFDA0130E087E09D9126
:101C1000992339F19E3219F0EAE4F2E00AC08A30E1
:101C200009F474C138E08AE0F2CF3196491709F41B
:101C30006DC144914111F9CF831708F467C14FED8D
:101C4000490F4E3508F062C141E0430FF601E30F42
:101C5000F11D3FE9390F3A3108F490529083342F47
:101C6000D6CF8981803209F451C1B22E8B01DB01BC
:101C70005B968D919C915C97F701948F838F16965C
:101C80001D921D921D921C921997FB0112861386BC
:101C900014861586712CF80182859385A485B585F7
:101CA000438954896589768984179507A607B707FC
:101CB00008F061C025E0B695A795979587952A9578
:101CC000D1F7F82FFF706F2ED80115968C918230C6
:101CD00008F41CC1C8010E94D40C97FD17C1F8017B
:101CE00082859385A485B5854F96A11DB11D8287F8
:101CF0009387A487B587F0E26F9EC0011124BC01D1
:101D000060597D4F6115710509F400C1DB012C910B
:101D1000222319F0253EC1F427C071100EC0F7012F
:101D2000628A4091140150911501609116017091E1
:101D3000170146875787608B718BFC01E059FD4F77
:101D40008081811113C015C04BE050E0C6010E9494
:101D50004A26892B09F09FCF8B2D8073803309F49D
:101D6000D5C04B2D662DCCC07720C9F27724739453
:101D700092CF772473948B2D8271823109F0C6C083
:101D80007720D1F0D7011E966D917D918D919C9118
:101D9000519741E00E948F04882309F4B7C0F701EE
:101DA0006289F0E26F9FB001112460597D4F611587
:101DB000710509F079C0AAC0D80115968C918230BE
:101DC00009F4A4C0C8010E94720A882309F49EC0C5
:101DD000D8015B96ED91FC915C9716964D905D90C5
:101DE0006D907C901997B2E04B1A51086108710808
:101DF000058404C0440C551C661C771C0A94D2F759
:101E000086859785A089B189480E591E6A1E7B1E5A
:101E10009480E1E04E1A510861087108992009F197
:101E20000E945404882309F471C0E0E7F2E01192A3
:101E300024E0E037F207D9F7D301C201890D911DE3
:101E4000A11DB11D8093140190931501A09316015B
:101E5000B0931701809157028160809357029A9442
:101E6000DDCFD8015B96ED91FC915C9780E092E02C
:101E7000A0E0B0E0058404C0880F991FAA1FBB1F13
:101E80000A94D2F7F8014389548965897689840FC9
:101E9000951FA61FB71F838B948BA58BB68BD7017D
:101EA00052961C9260E772E080E2FB0111928A95E3
:101EB000E9F78BE0F601DB0101900D928A95E1F7DD
:101EC00081E298E2DB0151969C938E93509720E03B
:101ED00038E01F963C932E931E9753969C938E93B7
:101EE000529759969C938E93589757963C932E935E
:101EF00056970E945404882349F04B2DF7016289BC
:101F0000C7010E94DA08A82E01C0A12C8A2D2B96A9
:101F10000FB6F894DEBF0FBECDBFDF91CF911F91FA
:101F20000F91FF90EF90DF90CF90BF90AF909F9078
:101F30007F906F905F904F900895FC01818D928DFE
:101F4000009711F00C94D40C8FEF9FEF08950F932E
:101F50001F93CF93DF93FC01818D928D0097B9F091
:101F6000EF010E94D40C8C010F3F8FEF180791F006
:101F7000898D9A8DFC014285538564857585415014
:101F80005109610971090E94A306C80105C080E0DA
:101F900090E002C08FEF9FEFDF91CF911F910F91E3
:101FA0000895EF92FF920F931F93CF93DF93EC016D
:101FB0007901411551056105710511F482E13CC0BB
:101FC0008B85833039F089E0440F551F661F771FDA
:101FD0008A95D1F79A01AB0168E1CE010E94DE0B30
:101FE000882311F084E028C08EEF0E94860B8701C1
:101FF0008EEFF81AF80181918F010E94860B0E1561
:102000001F05C1F78FEF0E94860B8FEF0E94860B92
:102010000E948D0B8A878F71853031F081E18D832D
:10202000CE010E947B0B09C068E572E0CE010E94E0
:10203000900B811107C085E18D83CE010E947B0B3F
:1020400080E013C020E030E0A9016DE0CE010E94E5
:10205000DE0B811104C00E948D0B882311F084E1F6
:10206000EBCFCE010E947B0B81E0DF91CF911F91DE
:102070000F91FF90EF900895FC01DB0112968D9176
:102080009C9113979383828388E691E09183808368
:1020900014968C911497848315968C91159785834B
:1020A00016964D915D916D917C911997468357835A
:1020B000608771871A964D915D916D917C911D9706
:1020C00042875387648775871E964D915D916D9108
:1020D0007C91519746875787608B718B52968C9174
:1020E0005297828B53964D915D916D917C9156974D
:1020F000438B548B658B768B57964D915D916D918B
:102100007C915A97478B508F618F728F5B968D9120
:102110009C915C97948F838F0895EF92FF920F9319
:102120001F93CF93DF93EC017B018A011B821A82FC
:1021300088EE93E0A0E0B0E08C839D83AE83BF8304
:1021400084E791E0998388838DE190E00E941825CF
:102150009A8F898F009779F02DE1F701DC010190CA
:102160000D922A95E1F74CE050E0B801CE010C96B3
:102170000E945726188EDF91CF911F910F91FF90EB
:10218000EF9008951F920F920FB60F9211242F9384
:102190003F934F935F936F937F938F939F93AF93EF
:1021A000BF93EF93FF93E0914A02F0914B020995A0
:1021B000FF91EF91BF91AF919F918F917F916F911F
:1021C0005F914F913F912F910F900FBE0F901F90F5
:1021D00018956115710579F0FB0101900020E9F770
:1021E0003197AF01461B570BDC01ED91FC9102804A
:1021F000F381E02D099480E090E0089540916E0213
:1022000050916F0220916C0230916D02421753077A
:10221000B4F49091E8009570E1F39091E80092FD9C
:1022200019C08093F10080916E0290916F02019627
:102230008F739927892B19F48EEF8093E800809192
:102240006E0290916F02019690936F0280936E02DE
:1022500081E0089580E00895DF92EF92FF920F935E
:102260001F93CF93DF93D82E8A017B01E40EF51ED6
:10227000EB01CE15DF0571F0D7FE03C0FE0184919E
:1022800001C088810E94FE1021968111F2CF8FEF4C
:102290009FEF01C0C801DF91CF911F910F91FF9077
:1022A000EF90DF900895615030F02091F100FC0133
:1022B00020830196F8CF289884E68093CF0508956F
:1022C000CF92DF92EF92FF920F931F93CF93DF9302
:1022D0006C017A018B01C0E0D0E0CE15DF0589F0FA
:1022E000D8016D918D01D601ED91FC910190F081A5
:1022F000E02DC6010995892B11F47E0102C02196BB
:10230000ECCFC701DF91CF911F910F91FF90EF901C
:10231000DF90CF900895FC01538D448D252F30E040
:10232000842F90E0821B930B541710F0CF960895E2
:1023300001970895FC01918D828D981761F0828D2F
:10234000DF01A80FB11D5D968C91928D9F5F9F73E9
:10235000928F90E008958FEF9FEF0895FC01918D8B
:10236000828D981731F0828DE80FF11D858D90E0F8
:1023700008958FEF9FEF0895FC01918D228D892F95
:1023800090E0805C9F4F821B91098F73992708957D
:1023900082E794E00E94BC1121E0892B09F420E03F
:1023A000822F08950E9445260F931F93CF93DF93AA
:1023B0001F92CDB7DEB782E0898342E450E06AE540
:1023C00072E080E80E942C110E94A519DC0112968F
:1023D0000D911C9113970115110569F0D801ED912C
:1023E000FC910280F381E02DBE016F5F7F4FC80139
:1023F000099597FF07C089810F90DF91CF911F91B9
:102400000F910895F80100851185E5CFEF92FF92B5
:102410000F931F93CF93DF93EC0181E0888F9B8D07
:102420008C8D981305C0E889F989808185FD24C0C9
:10243000F62E0B8D10E00F5F1F4F0F731127E02E4C
:102440008C8DE8120CC00FB607FCFACFE889F98929
:10245000808185FFF5CFCE010E947F02F1CF8B8D69
:10246000FE01E80FF11DE35AFF4FF0820B8FEA895E
:10247000FB898081806207C0EE89FF896083E889DB
:10248000F98980818064808381E090E0DF91CF9141
:102490001F910F91FF90EF900895CF93DF93EC0180
:1024A000888D8823C9F0EA89FB89808185FD05C074
:1024B000A889B9898C9186FD0FC00FB607FCF5CFAE
:1024C000808185FFF2CFA889B9898C9185FFEDCFF6
:1024D000CE010E947F02E7CFDF91CF9108951F9236
:1024E0000F920FB60F9211248F939F938091E1006A
:1024F0009091E100937F9093E10083FF0FC01092D1
:10250000E90091E09093EB001092EC0092E390933D
:10251000ED001092D00598E09093F00082FF20C06B
:1025200093E09093E9009091F200992319F09AE3D7
:102530009093E80090916B02992339F090916B028F
:10254000915090936B02992389F19091CF05992333
:1025500039F09091CF0591509093CF05992341F197
:1025600084FF10C08091E2008E7E81608093E20043
:102570008091E1008F7E8093E100809145028E7E04
:10258000806111C080FF16C08091E2008E7E806164
:102590008093E2008091E1008E7E8093E100809143
:1025A00045028E7E81608093450204C05D9ACDCF46
:1025B000289AD6CF9F918F910F900FBE0F901F90AA
:1025C00018951F920F920FB60F921124CF92DF929F
:1025D000EF92FF920F931F932F933F934F935F932D
:1025E0006F937F938F939F93AF93BF93EF93FF93DB
:1025F000CF93DF93CDB7DEB76C97DEBFCDBF109220
:10260000E9008091E80083FFEDC168E0CE014596C6
:102610000E94531182EF8093E8008D8987FF05C0E7
:102620009091E80090FFFCCF03C09EEF9093E800EC
:10263000982F907609F0C6C09E892F89188D911128
:102640000CC0803829F4809146028093F10002C0CA
:102650001092F1001092F10048C1422F50E0512B2E
:10266000913051F4811141C14130510509F03DC112
:10267000809146028D7F0BC0933061F4811135C18A
:102680004130510509F031C180914602826080934A
:1026900046022BC1953041F48091E80080FFFCCFC9
:1026A00020682093E30021C1963009F05FC0EB8CD5
:1026B000FC8C1092E90010926F0210926E021230A0
:1026C00091F510926D0210926C020E94D41199E063
:1026D000BE016F5F7F4FDB01E92F1D92EA95E9F79D
:1026E00099831A8391E09E8390EA98879AEF99875D
:1026F00020916E0230916F02275F3F4F3C832B8306
:102700008D831092E90010926F0210926E02F09287
:102710006D02E0926C0249E050E080E00E942C11D2
:102720000E94D411E2C0F0926D02E0926C020E940D
:10273000A519DC011296ED90FC901397E114F104B9
:1027400009F4C0C0D701ED91FC910480F581E02D22
:10275000BE016B5E7F4FC7010995009719F00CF021
:10276000C4C0C7C0F701E084F184E8CF973009F412
:10277000C0C0983021F481E08093F100B6C0993058
:1027800009F0B3C0837009F0B4C0EAE3F1E081E07E
:1027900021E036E39081992361F08093E900209352
:1027A000EB0091919093EC003093ED008F5F8730B8
:1027B00089F78EE78093EA001092EA008F89809370
:1027C000D00593C08B8D9C8D1092E90010926F0202
:1027D00010926E0290936D0280936C02898D81112C
:1027E00056C08E899D89913A59F4813209F081C091
:1027F00047E050E06CE171E080E00E942C1175C070
:10280000913209F076C0833289F4888D90E0982F58
:1028100088272F89822BA0E0B0E080931801909345
:102820001901A0931A01B0931B015FC0803269F4B3
:102830008091E80082FFFCCF67E08CE191E00E948C
:1028400053118BEF8093E80006C0823209F04DC02F
:102850008F898093230180914402882319F0EEEF41
:10286000FAE002C0E0E0F8E080911C0190911D01C7
:10287000A0911E01B0911F01803B9440A105B105BC
:1028800009F07BC08091230180FF93C076C00E9435
:10289000A519DC0112960D911C91139701151105D4
:1028A00041F1D801ED91FC910190F081E02DBE0144
:1028B0006B5E7F4FC8010995811117C0F801008533
:1028C0001185ECCF113009F44EC0133091F48F898B
:1028D000882309F445C0823081F440E862E18BEB43
:1028E00092E00E94E51F882321F08EEF8093E8009C
:1028F00079C081E28093EB0075C0813029F440E813
:1029000068E082EB92E0EDCF833099F70E94A51941
:10291000DC011296ED90FC9013978E010F5F1F4F14
:102920006801E114F10479F0D701ED91FC91068082
:10293000F781E02DB801C7010995080F111DF701B6
:10294000E084F184EECFD8011C92F60101900020C2
:10295000E9F73197BF016C197D0940E0C601C1CF8D
:102960006CE972E002C060EA72E06115710509F27B
:10297000FB01449150E080E840CF0FB6F894A89551
:1029800080916000886180936000109260000FBEAB
:10299000A895EE3F2AE0F20739F08091FE0A909167
:1029A000FF0A91838083A1CF1092FF0A1092FE0A42
:1029B0009CCFEE3F8AE0F80731F0808191819093BF
:1029C000FF0A8093FE0A87E797E7918380839BE065
:1029D00088E10FB6F894A895809360000FBE90939D
:1029E000600083CF6C960FB6F894DEBF0FBECDBFEC
:1029F000DF91CF91FF91EF91BF91AF919F918F9117
:102A00007F916F915F914F913F912F911F910F9106
:102A1000FF90EF90DF90CF900F900FBE0F901F9020
:102A20001895DC01ED91FC910190F081E02D099465
:102A30001F920F920FB60F9211242F933F934F9333
:102A40005F936F937F938F939F93AF93BF93EF9316
:102A5000FF9382E794E00E947F02FF91EF91BF9184
:102A6000AF919F918F917F916F915F914F913F9126
:102A70002F910F900FBE0F901F9018951F920F92DD
:102A80000FB60F9211242F938F939F93EF93FF9381
:102A9000E0918204F09183048081E0918804F091B8
:102AA000890482FD12C0908180918B048F5F8F73A7
:102AB00020918C04821751F0E0918B04F0E0EE58E5
:102AC000FB4F958F80938B0401C08081FF91EF9124
:102AD0009F918F912F910F900FBE0F901F9018957F
:102AE0008F929F92AF92BF92CF92DF92EF92FF921E
:102AF0000F931F93CF93DF9300D000D0CDB7DEB7F5
:102B0000FC018581813079F5948191FF2CC0438946
:102B1000548965897689452B462B472B09F45CC07F
:102B20007F0140E050E0BA01CF010E94A306882354
:102B3000D1F0F7018788908CA18CB28CC38CD48C97
:102B400082E090E0A0E0B0E0F60180839183A28370
:102B5000B3839E012F5F3F4FB501A401C6010E94C0
:102B60007805811102C080E037C000E010E09801D4
:102B7000B501A401C6010E94D8048823A1F389806D
:102B80009A80AB80BC80F6018789803129F088EF7C
:102B90009FEFAFEFBFE004C088EF9FEFA0E0B0E091
:102BA00088169906AA06BB06A0F2F701178A108EAE
:102BB000118E128E138A148A158A168A848180686F
:102BC0008483C7010E946506882369F240E050E0D3
:102BD000BA01C7010E94A3060F900F900F900F90AB
:102BE000DF91CF911F910F91FF90EF90DF90CF90E9
:102BF000BF90AF909F908F9008958F929F92AF92C9
:102C0000BF92CF92DF92EF92FF92CF93DF93C82FC4
:102C100081E695E09093710480937004CC2369F170
:102C2000C53010F080E00DC140E060E070E0CB0105
:102C30000E948F048823B1F320E1C29FC0011124B8
:102C4000805A9D4FFC01E254FE4F20812F7751F7AF
:102C50003C96408151816281738144365105610502
:102C6000710500F33497C080D180E280F380C114F5
:102C7000D104E104F10421F4D5CFC12CD12C76018B
:102C800040E0C701B6010E948F04882359F2809169
:102C90007B0290917C028115924021F6A0918002E6
:102CA000AA2309F4BFCF60917E0270917F02611563
:102CB000710509F4B7CF20917D02222309F4B2CF28
:102CC000A0937F052093710580E030E0E1E0F0E023
:102CD000C82FAF01082E02C0440F551F0A94E2F717
:102CE0002417350741F0982F8F5F983089F789E0D6
:102CF00080937A0597CF80937A0520918602309150
:102D000087022115310519F040E050E008C02091FC
:102D1000940230919502409196025091970220932F
:102D20007205309373054093740550937505460101
:102D30005701860E971EA11CB11C809280059092AF
:102D40008105A0928205B0928305E0918102F09105
:102D50008202F0938605E0938505B0E00E94C824C6
:102D6000860E971EA81EB91E809287059092880530
:102D7000A0928905B0928A0585E0EE0FFF1F8A9523
:102D8000E1F7E150FE4FEF2FFF27E6958E0E9F1ED5
:102D9000A11CB11C80927B0590927C05A0927D05C0
:102DA000B0927E0520918302309184022115310575
:102DB00021F0A90160E070E008C0409190025091BC
:102DC00091026091920270919302D701C601881915
:102DD0009909AA09BB09840F951FA61FB71F04C034
:102DE000B695A79597958795CA95D2F7809376055E
:102DF00090937705A0937805B0937905853F2FE0F0
:102E00009207A105B10510F48CE018C0853F9F4FD3
:102E1000A105B10510F480E111C080919C02909150
:102E20009D02A0919E02B0919F028093870590938E
:102E30008805A0938905B0938A0580E28093840574
:102E400081E0DF91CF91FF90EF90DF90CF90BF9026
:102E5000AF909F908F900895FF920F931F93CF9301
:102E6000DF93CDB7DEB7C755D1090FB6F894DEBFF3
:102E70000FBECDBF8C01F62E6BE875E0CE0101963A
:102E80000E943C10BE016F5F7F4FCE01CB960E9427
:102E90003C1019A218A288E691E09F8F8E8F1BA28A
:102EA00021968FAD2197811113C0F80113821282F0
:102EB00088EE93E0A0E0B0E084839583A683B78397
:102EC00084E791E091838083128E118E148636C040
:102ED00082502F2D45EF51E0823048F46BE875E0C9
:102EE000CE014E960E94DE0D81110EC0DECFBE01D6
:102EF000655C7F4FCE014E960E94DE0D8823A9F2BD
:102F0000CE01CB960E94660A8F2D867041F049A9AA
:102F10005AA96BA97CA9CE014E960E94A306BE01B8
:102F2000625E7F4FCE0101960E943C1045EF51E05A
:102F3000BE016F5F7F4FC8010E948D10C801C95A42
:102F4000DF4F0FB6F894DEBF0FBECDBFDF91CF913C
:102F50001F910F91FF90089560E08091C6050E9437
:102F6000F90261E08091C5050E94C9028091C60501
:102F70000E94A0020197D1F360E08091C5050C94F6
:102F8000C902EF92FF920F931F93CF93DF93E82E26
:102F9000F62EC7E0D0E0042F10E098010C2E02C0FE
:102FA000359527950A94E2F7B901617077278E2D40
:102FB0000E94C90261E08F2D0E94C90260E08F2D3E
:102FC0000E94C902219748F7DF91CF911F910F917D
:102FD000FF90EF9008950F931F93CF93DF931F926D
:102FE000CDB7DEB7482F05EC15E061E0F80181812F
:102FF00049830E94F90261E0F80181810E94C902BF
:1030000061E0F80180810E94C90260E0F8018181DD
:103010000E94C90260E0F80180810E94C9024981D2
:10302000F801608181810F90DF91CF911F910F9105
:103030000C94C117DF92EF92FF920F931F93CF93DF
:10304000DF93CDB7DEB728970FB6F894DEBF0FBE7B
:10305000CDBF8091CE05882309F446C084EE8093CD
:10306000BC008091BC0087FFFCCF80ED8093BB004B
:1030700084EC8093BC008091BC0087FFFCCF109251
:10308000BB0084EC8093BC008091BC0087FFFCCF28
:1030900084EE8093BC008091BC0087FFFCCF81ED63
:1030A0008093BB0084EC8093BC008091BC0087FFC0
:1030B000FCCFE7ECF5E094EC9093BC008091BC0071
:1030C00087FFFCCF8091BB00819375E0EE3CF70752
:1030D00099F784E88093BC008091BC0087FFFCCF07
:1030E00084E98093BC0089C080ED0E94EB170E94A8
:1030F000AC1761E08091C6050E94F90240E0609142
:10310000C5058091C6050E94C1170E94AC1781EDCC
:103110000E94EB170E94AC1700E010E060E0809185
:10312000C6050E94F90287E0E82EF12CD12C61E05F
:103130008091C5050E94C9028091C6050E94A00227
:1031400099270E2C01C0880F0A94EAF7D82A60E06C
:103150008091C5050E94C90281E0E81AF10838F79C
:10316000F801EB53FA4FD28261E08091C605063038
:10317000110549F00E94F90260E08091C5050E94A6
:10318000C90260E008C00E94F90260E08091C505B4
:103190000E94C90261E08091C6050E94C90261E0F7
:1031A0008091C5050E94C90260E08091C5050E941A
:1031B000C90260E08091C6050E94F9020F5F1F4FAF
:1031C0000730110509F0AACF61E08091C6050E9481
:1031D000F90260E08091C6050E94C90261E0809119
:1031E000C5050E94C90261E08091C6050E94C9021E
:1031F00060E08091C6050E94F9028091C705482FC2
:103200004695469546954E70942F990F990F490F04
:103210008F70480F8091C805382F369536953695B2
:103220003E70932F990F990F390F8F70380F80913F
:10323000C905282F2F7087FF08C085FB992790F9B3
:103240008CE0989F200D112409C080738695869587
:103250008695982F990F990F890F280FE091CA052D
:103260006091CB057091CC058091CD05562F569578
:10327000569556955E70952F990F990F590F6F704F
:10328000560F672F6695669566956E70962F990F07
:10329000990F690F7F70670F982F92959F708F70AD
:1032A0007AE0979F800D112490E08053984F9F8380
:1032B0008E83782F8F819E2F28960FB6F894DEBFCD
:1032C0000FBECDBFDF91CF911F910F91FF90EF9077
:1032D000DF900895FC018091D005811103C08FEF2C
:1032E0009FEF08959FB7F89482E08093E9002091C2
:1032F000F20030E01216130614F421E030E021153C
:10330000310559F0289884E68093CF058091F1002B
:1033100080838091F200882319F09FBFC90108952E
:103320008BE68093E800F9CF2FB7F89483E0809381
:10333000E9009091E800892F807295FF04C0909178
:10334000F20080E4891B2FBF08958091D50581117B
:103350000DC082E08093D10584E08093D205109265
:10336000D4051092D30581E08093D50581ED95E0D9
:103370000895CF93DF93CDB7DEB7C856D1090FB606
:10338000F894DEBF0FBECDBF789484B5826084BD53
:1033900084B5816084BD85B5826085BD85B5816059
:1033A00085BD80916E00816080936E0010928100D7
:1033B0008091810082608093810080918100816092
:1033C0008093810080918000816080938000809153
:1033D0009100826080939100809191008160809340
:1033E0009100809190008160809390008091C10055
:1033F00084608093C1008091C10082608093C1008D
:103400008091C10081608093C1008091C300816080
:103410008093C3008091C00082608093C00080913F
:10342000C20081608093C20080917A0084608093A2
:103430007A0080917A00826080937A0080917A008D
:103440008E7F80937A0080917A00806880937A00E2
:103450001092D00510924602109245028091D7003A
:1034600081608093D70080EA8093D80089B58F7EF1
:1034700089BD89B5826089BD09B400FEFDCF61E0D8
:1034800070E080E090E00E9435038091D8008F7C4E
:1034900080618093D8008091E000807F8093E0007D
:1034A0008091E1008E7E8093E1008DE08093E200C8
:1034B000559A209AEEEFFFE7859194918B3F9C4DB2
:1034C00019F481E08093440268EE73E080E090E0BC
:1034D0000E943503E0918204F091830482E08083AE
:1034E000E0917E04F0917F041082E0918004F091DD
:1034F000810483E3808310928A04E0918604F09132
:10350000870486E08083E0918404F09185048081C3
:1035100080618083E0918404F091850480818860DB
:103520008083E0918404F0918504808180688083A9
:10353000E0918404F091850480818F7D808368EE22
:1035400073E080E090E00E9435031091C6051230D0
:10355000F9F48091C5058330D9F481E08093CE05DC
:1035600061E082E00E94C90261E083E00E94C9023A
:103570008091B9008E7F8093B9008091B9008D7FD2
:103580008093B9001093B80085E08093BC0007C019
:103590001092CE0561E08091C5050E94F90268EEA7
:1035A00073E080E090E00E94350360EA71E082E71A
:1035B00094E00E94E91080917C00806480937C00FC
:1035C00080917A008F7780937A0080917C008E7F43
:1035D00080937C0080917C008D7F80937C00809123
:1035E0007C00846080937C0080917A008068809366
:1035F0007A0080917A00846080937A0080917A00CA
:103600008D7F80937A0080917A008E7F80937A00FC
:1036100080917A00806480937A0080917A0086FDA0
:10362000FCCF69EA71E082E794E00E94E910109211
:10363000800080E18093810083E08093490284E2EE
:1036400094EF909348028093470290938700809371
:10365000860080918100887F809381008091810025
:1036600083608093810091E09093490220E639E0E5
:1036700030934802209347023093870020938600BE
:1036800080918100887F809381008091810081609A
:10369000809381002EE839E030934B0220934A0258
:1036A00090936F0078949091810080914902892BCA
:1036B000809381008FEF9FEF90931C0580931B05F3
:1036C0006EEA71E08FE095E00E94E91010926C05BF
:1036D00010926A05109267051092660581E1809349
:1036E00065050E94F4037B0161E0809165050E94FD
:1036F000F90261E0809165050E94C9021FB7F89444
:1037000080915602811127C0E2E0F2E08491E3EE5D
:10371000F1E09491E82FF0E0EE0FFF1FEC53FE4F25
:10372000A591B491EC91E92321F461E081E10E943B
:10373000C90261E081E10E94F9028CB580618CBD13
:103740008CB580648CBD61E08FE00E94F90261E07D
:1037500080E10E94F902809156028F5F80935602A9
:103760001FBF82E580935F0581E0809360058091B3
:103770005F05909160050E94C50B1AE08FEF0E94D3
:10378000860B1150D9F781E695E00E94C80B20E026
:1037900030E0A90160E081E695E00E94DE0B182F81
:1037A00080936B05813049F00E94F4036E197F0904
:1037B000613D774060F381E054C02AEA31E040E0A7
:1037C00050E068E081E695E00E94DE0B82FF03C0D6
:1037D00010936C050EC014E00E948D0B80936B0556
:1037E0001150D1F78A3A11F082E03BC082E0809319
:1037F0006C0580916C05823021F0812C912C540154
:1038000005C0812C912CA12C60E4B62E20E030E084
:10381000A90167E381E695E00E94DE0BA501940112
:1038200069E281E695E00E94DE0B80936B058823B8
:1038300049F00E94F4036E197F09613D774030F32F
:1038400088E00FC080916C05823001F520E030E007
:10385000A9016AE381E695E00E94DE0B882341F02E
:1038600086E08093660581E695E00E947B0BB2C0FE
:103870000E948D0B807C803C19F483E080936C0562
:103880000E948D0B0E948D0B0E948D0B81E695E0AE
:103890000E947B0B80E580935F0581E0809360054B
:1038A0000E94FD15882329F080919005882341F01E
:1038B00091C080E00E94FD15882309F48BC0F4CFED
:1038C00080918405803109F582E080939005109203
:1038D000A2051092A3051092A4051092A50580914F
:1038E000850590918605A0E0B0E055E0880F991F0E
:1038F000AA1FBB1F5A95D1F780939E0590939F05F1
:10390000A093A005B093A1051FC0803209F062C04A
:1039100083E08093900540918705509188056091E0
:10392000890570918A054093A2055093A305609381
:10393000A4057093A5052EE935E08DE695E00E947B
:10394000FC05882309F446C08DE695E09093A70511
:103950008093A60581E080938F05109291051092C7
:10396000920510929305109294051092950510926D
:10397000960510929705109298051092990510924D
:103980009A0510929B0510929C0510929D0566EC7D
:1039900071E08FE095E00E94E9106BED71E08FE03F
:1039A00095E00E94E9101EAE1DAE88E691E09CAF46
:1039B0008BAF21961FAE219719A218A29F8F8E8FD1
:1039C0001BA2C12CB12C7E018BE3E80EF11C0BE88D
:1039D00015E052C06EED71E08FE095E00E94E910B5
:1039E0006BED71E08FE095E00E94E9108EC0FE0162
:1039F000E85AFF4F40E050E0D901AB50BE4F8C91E8
:103A00008F3251F0882341F04F5F5F4F2F5F3F4F60
:103A100081934C30510581F7E8E5F0E0EC0FFD1F94
:103A2000E40FF51F1082F901EB50FE4F80818F32B9
:103A300011F42F5F3F4FC22EB32EF901EB50FE4F12
:103A40008081882329F121E0AE01485A5F4FB801F7
:103A5000C7010E94DE0DD82E85E00B38180709F04B
:103A6000AEC2DD2009F451C08E01025E1F4F902FBF
:103A7000812F8701E92EF82E2C2D3B2DF901EB50DB
:103A8000FE4F80818F3209F0B2CF2F5F3F4FAFCF13
:103A90001C821B8288E691E09A8389831E8222E041
:103AA000AE01485A5F4FB801CE0101960E94DE0D6B
:103AB0008823F9F0CE0101960E9470158823C9F081
:103AC0006F85788989899A8941E00E948F048823CB
:103AD00081F0EB8920E2E29FF0011124E059FD4FD3
:103AE000309739F085EE80831E820E945404811144
:103AF00005C085E00B38180729F407C025E00B380E
:103B0000120719F0C8010E94660A80E3982E98EE09
:103B1000292E93E0392E24E6E22EF12C3AE0C32E32
:103B2000D12C4DE0842E8091540290915502803D1D
:103B30009740C8F36DEF71E082E794E00E94E910CE
:103B40006AE082E794E00E941115F89460915002B7
:103B500070915102809152029091530240904C0218
:103B600050904D0260904E0270904F02209154028E
:103B70003091550210924C0210924D0210924E025A
:103B800010924F0210925002109251021092520263
:103B90001092530210925502109254027894209180
:103BA000540230915502A0905402B090550240E06A
:103BB00050E00E94A324CA01B9010E948A2323E392
:103BC00033E343E55BE30E94162423E333E343E559
:103BD0005BE30E94162420E030E040E251E40E94C2
:103BE000162426E333E14CE059E30E941624A996FB
:103BF0006CAF7DAF8EAF9FAFA997950140E050E0CD
:103C0000C301B2010E94A324CA01B9010E948A2300
:103C100023E333E343E55BE30E9416242DEC3CEC05
:103C20004CEC5DE30E9416232B013C01EAE2F1E03B
:103C3000DE0111968EE001900D928A95E1F70E94C7
:103C40001A18E92F2E8F3F8F48A359A36AA37BA38D
:103C50008CA39DA3CE0101968E0F911D8E0F911DF9
:103C6000FC013297A080B1800E941A1829833A8300
:103C70004B835C836D837E838F8398872A3018F40F
:103C80009092000107C0822F6AE00E948324805D29
:103C9000809300013AE0822F632F0E948324905D7D
:103CA000909301018AE3809302012A812A3018F45B
:103CB0009092030107C0822F632F0E948324805DAE
:103CC000809303013AE0822F632F0E948324905D4A
:103CD000909304012AE3209305012B812A3018F4E4
:103CE0009092060107C0822F632F0E948324805D7B
:103CF000809306011AE0822F612F0E948324905D39
:103D000090930701109208010E941A1829833A83A0
:103D10004B835C836D837E838F8398875A3018F43E
:103D20009092090107C0852F612F0E948324805D36
:103D3000809309013AE0852F632F0E948324905DD0
:103D400090930A018EE280930B012D812A3018F4A2
:103D500090920C0107C0822F632F0E948324805D04
:103D600080930C01822F6AE00E948324905D9093DF
:103D70000D012EE220930E012E813F81C901B10178
:103D80000E948F24605D60930F01B7010E948F2411
:103D9000605D60931001C901B7010E948F24B601D4
:103DA0000E948F24605D60931101C901B6010E94D9
:103DB0008F24805D80931201109213018E01055CA7
:103DC0001F4F22E045E0A9966CAD7DAD8EAD9FAD55
:103DD000A9970E9490200D51110922E045E0C301EE
:103DE000B2010E94902063E1CE0101960E942C173F
:103DF0008B819C819093AD058093AC058D819E81D4
:103E0000AF81B8858093AE059093AF05A093B005C0
:103E1000B093B10589859A85AB85BC858093B20541
:103E20009093B305A093B405B093B505FE013D96FC
:103E3000A6EBB5E0882D01900D928A95E1F7EA8D09
:103E4000FB8DF093C405E093C305309709F44DC092
:103E50008581882309F449C069E071E08AEA95E028
:103E60000E94E91069E08AEA95E00E94111560E07D
:103E700071E08AEA95E00E94E91069E08AEA95E03B
:103E80000E941115B5018AEA95E00E94E91069E0E7
:103E90008AEA95E00E941115BE01655C7F4F8AEAAF
:103EA00095E00E94E91069E08AEA95E00E94111508
:103EB000B8018AEA95E00E94E9106BED71E08AEAA8
:103EC00095E00E94E9108091C3059091C405009788
:103ED00061F00E94660A8091C3059091C4050E941A
:103EE000AD251092C4051092C30582E794E00E94AC
:103EF000BC11892B09F460C082E794E00E949A11FA
:103F000081330CF459C061E0CE0101960E942C1758
:103F10008B819C819093AD058093AC058D819E81B2
:103F2000AF81B8858093AE059093AF05A093B0059F
:103F3000B093B10589859A85AB85BC858093B20520
:103F40009093B305A093B405B093B505FE013D96DB
:103F5000A6EBB5E0882D01900D928A95E1F7EA8DE8
:103F6000FB8DF093C405E093C305309729F185815B
:103F7000882311F18AEA95E00E944B09892B51F0C0
:103F80008AEA95E00E949D0F682F82E794E00E94E4
:103F90000612F0CF8091C3059091C405009761F09F
:103FA0000E94660A8091C3059091C4050E94AD25C8
:103FB0001092C4051092C3050E949201B4CDC801AD
:103FC0000E94660AD11053CDA0CDCF92DF92EF921E
:103FD000FF920F931F93CF93DF931F92CDB7DEB75E
:103FE000182F062FE42E862F880F8E5F99830E944C
:103FF000FE1083E00E94FE10F12EC12E9981D92E71
:104000008C2D8F19801798F4F601E7FE02C0849179
:1040100001C080810E94FE10182F80E00E94FE10D7
:104020008123FFEFCF1ADF0A8111EACF01C081E0BF
:104030000F90DF91CF911F910F91FF90EF90DF9044
:10404000CF900895E2E7F4E01382128288EE93E0C5
:10405000A0E0B0E084839583A683B78324E431E0B5
:10406000318320832DEC30E0358724872CEC30E041
:104070003787268728EC30E0318B208B29EC30E025
:10408000338B228B2AEC30E0358B248B2EEC30E006
:10409000378B268B118E128E138E148EEFE0F5E087
:1040A0001382128284839583A683B78326E531E049
:1040B000318320832FEF3FEF35872487EFE5F5E04D
:1040C00020E5208321E02183E1E6F5E015821682D8
:1040D0001186138642E050E060E070E04487558727
:1040E0006687778713A215A614A628E631E033A7C2
:1040F00022A717A6EAEAF5E0138212828483958349
:10410000A683B78384E791E091838083128E118E1A
:104110001486E5ECF5E082E0818383E080830895F6
:10412000EF920F931F93CF93DF93E80147FD02C0F7
:1041300034E001C034E1E42F440FFF0BF7FF03C06C
:10414000F195E195F109E32E022F2E2FAE010E9489
:10415000B020CE01DF91CF911F910F91EF90089584
:104160004F925F926F927F929F92AF92BF92CF9247
:10417000DF92EF92FF920F931F93CF93DF93CDB710
:10418000DEB729970FB6F894DEBF0FBECDBF6A0128
:10419000122FB02E2BE3201720F0FF24F394F00E03
:1041A00002C0BCE3FB2E0F2D27E0AE014F5F5F4F37
:1041B0000E943E22AC018981982F9970913031F094
:1041C000E1FC06C0E0FE06C090E205C09DE203C02F
:1041D0009BE201C090E0EE2DE07183FF3CC09111A5
:1041E00002C083E001C084E0811718F4212F281B4E
:1041F00001C020E0E1110BC0F601822F30E28823DC
:1042000019F031938150FBCFC20ED11C20E09923CD
:1042100029F0D6019C93F60131966F01C6010396F1
:10422000E2FE0AC03EE4D6013C9341E411964C9371
:10423000119712963C9306C03EE6F601308341E6A4
:1042400041833283FC01322F40E2332309F442C020
:1042500041933150FACF82FF44C0911102C083E0F4
:1042600001C084E0811718F4212F281B01C020E031
:10427000E1110BC0F601822F30E2882319F031934F
:104280008150FBCFC20ED11C20E0992329F0D6012A
:104290009C93F60131966F01C6010396E2FE0BC0B6
:1042A00039E4D6013C933EE411963C93119736E4F1
:1042B00012963C9307C039E6F60130833EE631831F
:1042C00036E63283FC01322F40E2332319F041936A
:1042D0003150FBCFFC01E20FF11D10828EEF9FEFFA
:1042E000B7C0F1E0911101C0F0E06F2F70E014163B
:1042F000150624F49A012F5F3F4F02C021E030E001
:10430000260F371FBB2029F06B2D70E06F5F7F4FAA
:1043100002C060E070E0260F371F612F70E02617A3
:1043200037071CF4121B212F01C020E03E2D3871ED
:1043300059F4D601322F60E2332319F06D933150D6
:10434000FBCFC20ED11C20E0FF2331F0D6019C939D
:10435000B6016F5F7F4F6B01E1110BC0F601922F29
:1043600030E3992319F031939150FBCFC20ED11C49
:1043700020E09F2D940F3A81782F7071A72E84FF33
:1043800003C0313309F49150191624F4993018F010
:1043900098E001C091E0E42F852F57FF02C0E0E0D4
:1043A00080E06E2F782FE0E0F0E0AEE29A2E3A0146
:1043B000691A71082A01461A570A0B2D10E0119547
:1043C000019511096F3F8FEF780729F4D6019C9270
:1043D000C60101966C014617570784F066167706EA
:1043E0006CF47F01E40CF51CA1E0B0E0AC0FBD1F44
:1043F000EA0EFB1ED7011196BC9002C090E3B92EC5
:10440000615071093196C60101967C0160177107F0
:1044100024F0D601BC926C01D5CF6417750741F426
:10442000363320F4353321F4A11002C081E3B82ED5
:10443000F601B082F701822F90E2882319F0919360
:104440008150FBCFF701E20FF11D108280E090E078
:1044500029960FB6F894DEBF0FBECDBFDF91CF9186
:104460001F910F91FF90EF90DF90CF90BF90AF9092
:104470009F907F906F905F904F900895283008F044
:1044800027E03327DA01990F311D87FD91600096EF
:104490006105710539F432602E5F3D9330E32A9552
:1044A000E1F708959F3F30F080387105610509F00C
:1044B0003C5F3C5F3D93913008F08068911DDF9335
:1044C000CF931F930F93FF92EF92192F987F96959A
:1044D000E92F96959695E90FFF27EC5DFE4F9927FA
:1044E0003327EE24FF24A701E701059008940794E1
:1044F00028F4360FE71EF81E491F511D660F771F5F
:10450000881F991F0694A1F70590079428F4E70ED9
:10451000F81E491F561FC11D770F881F991F661F60
:104520000694A1F70590079428F4F80E491F561F2A
:10453000C71FD11D880F991F661F771F0694A1F70B
:104540000590079420F4490F561FC71FD81F990FD5
:10455000661F771F881F0694A9F78491109517701E
:1045600041F0D695C79557954795F794E7941A95D6
:10457000C1F7EAECF0E068941590159135916591DA
:10458000959105907FE27395E118F10A430B560B64
:10459000C90BD009C0F7E10CF11E431F561FC91FFC
:1045A000D01D7EF4703311F48A95E6CFE894015063
:1045B00030F0080F0AF40027021708F4202F239583
:1045C000022F7A3328F079E37D932A95E9F710C01A
:1045D0007D932A9589F60694979567953795179553
:1045E0001794E118F10A430B560BC90BD00998F048
:1045F00023957E9173957A3308F070E37C932013B2
:10460000B8F77E9170617D9330F0839571E37D936F
:1046100070E32A95E1F71124EF90FF900F911F911D
:10462000CF91DF91992787FD909508950E942A23C5
:104630000C94DC230E94D52358F00E94CE2340F036
:1046400029F45F3F29F00C94C52351110C941024D8
:104650000C94CB230E94ED2368F39923B1F35523E7
:1046600091F3951B550BBB27AA2762177307840785
:1046700038F09F5F5F4F220F331F441FAA1FA9F31B
:1046800035D00E2E3AF0E0E832D091505040E69509
:10469000001CCAF72BD0FE2F29D0660F771F881F6A
:1046A000BB1F261737074807AB07B0E809F0BB0B5D
:1046B000802DBF01FF2793585F4F3AF09E3F510571
:1046C00078F00C94C5230C9410245F3FE4F3983EDB
:1046D000D4F3869577956795B795F7959F5FC9F75A
:1046E000880F911D9695879597F90895E1E0660FDB
:1046F000771F881FBB1F621773078407BA0720F054
:10470000621B730B840BBA0BEE1F88F7E0950895BC
:10471000E89409C097FB3EF490958095709561955B
:104720007F4F8F4F9F4F9923A9F0F92F96E9BB2711
:104730009395F695879577956795B795F111F8CF8D
:10474000FAF4BB0F11F460FF1BC06F5F7F4F8F4FF8
:104750009F4F16C0882311F096E911C0772321F0EE
:104760009EE8872F762F05C0662371F096E8862F86
:1047700070E060E02AF09A95660F771F881FDAF7DD
:10478000880F9695879597F9089597F99F6780E820
:1047900070E060E008959FEF80EC089500240A9493
:1047A0001616170618060906089500240A9412160C
:1047B0001306140605060895092E0394000C11F43F
:1047C000882352F0BB0F40F4BF2B11F460FF04C0EC
:1047D0006F5F7F4F8F4F9F4F089557FD9058440F45
:1047E000551F59F05F3F71F04795880F97FB991F50
:1047F00061F09F3F79F0879508951216130614060D
:10480000551FF2CF4695F1DF08C016161706180699
:10481000991FF1CF86957105610508940895E89474
:10482000BB2766277727CB0197F908950E94292493
:104830000C94DC230E94CE2338F00E94D52320F074
:10484000952311F00C94C5230C94CB2311240C94C4
:1048500010240E94ED2370F3959FC1F3950F50E053
:10486000551F629FF001729FBB27F00DB11D639F22
:10487000AA27F00DB11DAA1F649F6627B00DA11DC8
:10488000661F829F2227B00DA11D621F739FB00D6E
:10489000A11D621F839FA00D611D221F749F3327DE
:1048A000A00D611D231F849F600D211D822F762F77
:1048B0006A2F11249F5750409AF0F1F088234AF054
:1048C000EE0FFF1FBB1F661F771F881F91505040C0
:1048D000A9F79E3F510580F00C94C5230C94102439
:1048E0005F3FE4F3983ED4F3869577956795B79547
:1048F000F795E7959F5FC1F7FE2B880F911D969561
:10490000879597F90895991B79E004C0991F961728
:1049100008F0961B881F7A95C9F78095089597FB34
:10492000072E16F4009407D077FD09D00E94D324F7
:1049300007FC05D03EF4909581959F4F08957095A2
:1049400061957F4F0895052E97FB1EF400940E94F9
:10495000BA2457FD07D00E94E72407FC03D04EF489
:104960000C94BA2450954095309521953F4F4F4F68
:104970005F4F089590958095709561957F4F8F4F0B
:104980009F4F0895EE0FFF1F0590F491E02D0994BD
:104990000E940925A59F900DB49F900DA49F800DA6
:1049A000911D11240895AA1BBB1B51E107C0AA1F2A
:1049B000BB1FA617B70710F0A61BB70B881F991FC0
:1049C0005A95A9F780959095BC01CD010895A1E273
:1049D0001A2EAA1BBB1BFD010DC0AA1FBB1FEE1F79
:1049E000FF1FA217B307E407F50720F0A21BB30BC4
:1049F000E40BF50B661F771F881F991F1A9469F740
:104A000060957095809590959B01AC01BD01CF019B
:104A10000895A29FB001B39FC001A39F700D811D97
:104A20001124911DB29F700D811D1124911D0895B7
:104A3000CF93DF938230910510F482E090E0E09113
:104A4000DF05F091E00520E030E0C0E0D0E03097F5
:104A500011F14081518148175907C0F04817590793
:104A600061F482819381209719F09B838A832BC004
:104A70009093E0058093DF0526C02115310519F0DC
:104A80004217530718F49A01BE01DF01EF010280BB
:104A9000F381E02DDCCF2115310509F1281B390BFD
:104AA0002430310590F412968D919C9113976115E5
:104AB000710521F0FB019383828304C09093E0058C
:104AC0008093DF05FD01329644C0FD01E20FF31F24
:104AD00081939193225031092D933C933AC02091B8
:104AE000DD053091DE05232B41F420912601309124
:104AF00027013093DE052093DD05209124013091BC
:104B000025012115310541F42DB73EB7409128010B
:104B100050912901241B350BE091DD05F091DE0554
:104B2000E217F307A0F42E1B3F0B2817390778F084
:104B3000AC014E5F5F4F2417350748F04E0F5F1FE3
:104B40005093DE054093DD058193919302C0E0E030
:104B5000F0E0CF01DF91CF9108950F931F93CF9392
:104B6000DF93009709F48CC0FC0132971382128204
:104B70000091DF051091E0050115110581F42081F8
:104B80003181820F931F2091DD053091DE052817BA
:104B9000390779F5F093DE05E093DD0571C0D801A2
:104BA00040E050E0AE17BF0750F412962D913C91B3
:104BB0001397AD012115310509F1D901F3CF9D01FD
:104BC000DA013383228360817181860F971F8217F8
:104BD000930769F4EC0128813981260F371F2E5F76
:104BE0003F4F318320838A819B8193838283452B2E
:104BF00029F4F093E005E093DF0542C01396FC939F
:104C0000EE931297ED01499159919E01240F351FA2
:104C1000E217F30771F480819181840F951F02964A
:104C200011969C938E938281938113969C938E937D
:104C30001297E0E0F0E0D80112968D919C911397C5
:104C4000009719F0F8018C01F6CF8D919C91980195
:104C50002E5F3F4F820F931F2091DD053091DE05BF
:104C60002817390769F4309729F41092E00510925B
:104C7000DF0502C0138212821093DE050093DD056A
:104C8000DF91CF911F910F91089581E090E0F8940A
:104C90000C946626FB01DC0104C08D910190801903
:104CA00021F441505040C8F7881B990B0895FB012F
:104CB000DC014150504048F001900D920020C9F7AE
:104CC00001C01D9241505040E0F70895F894FFCF85
:104CD00078787878787878780078787878787878CC
:104CE00078787800FFFFFFFFFFFFFFFF00E1000083
:104CF000000000000000E10580000B0212021A0211
:104D000024022D0234023D020000C1808100000017
:104D100000000000061260118B114D12BC119A1197
:104D2000AE11000000009C016F033902B201BD0109
:104D30003D025B0200000000C9086011830982097E
:104D4000000000006C094A0A830986094B099D0F7F
:104D5000A70F00000000D211601183098209D2114F
:104D6000D211D21100000000D21160118309820912
:104D7000536574757041444300646F6E6500496EFD
:104D8000697469616C697A696E6720534420636154
:104D900072642E2E2E00696E697469616C697A6185
:104DA00074696F6E20646F6E652E000D0A00696E67
:104DB000697469616C697A6174696F6E2066616992
:104DC0006C656421006A70732E747874004D61699B
:104DD0006E2050726F6772616D6D004D6F6E646111
:104DE000790054756573646179005765646E657305
:104DF0006461790054687572736461790046726900
:104E00006461790053617475726461790053756EE1
:044E10006461790060
:00000001FF
