:100000000C9461010C9489010C9489010C94890170
:100010000C9489010C9489010C9489010C94890138
:100020000C9489010C947A070C94160E0C94880E8B
:100030000C9489010C9489010C9489010C94890118
:100040000C9489010C9489010C9489010C94890108
:100050000C94EF0D0C9489010C9489010C943007D9
:100060000C9489010C9489010C9489010C948901E8
:100070000C9489010C9489010C9489010C948901D8
:100080000C9489010C9489010C9489010C948901C8
:100090000C9489010C9489010C9489010C948901B8
:1000A0000C9489010C9489010C94890137023A025D
:1000B00029022D0233025B025B025B023E02420216
:1000C00046024C0250025B02560200407A10F35A7C
:1000D00000A0724E18090010A5D4E80000E8764888
:1000E000170000E40B54020000CA9A3B000000E134
:1000F000F505000080969800000040420F000000C7
:10010000A08601000000102700000000E8030000A6
:1001100000006400000000000A0000000000010070
:10012000000000002C76D888DC674F0823DFC1DF91
:10013000AE59E1B1B796E5E3E453C63AE651997694
:1001400096E8E6C28426EB898C9B62ED407C6FFCCE
:10015000EFBC9C9F40F2BAA56FA5F490055A2AF710
:100160005C936B6CF9676DC11BFCE0E40D47FEF519
:1001700020E6B500D0ED902E030094357705008081
:10018000841E080000204E0A000000C80C333333E0
:10019000330F986E12831141EF8D2114893BE65580
:1001A00016CFFEE6DB18D1844B381BF77C1D901D63
:1001B000A4BBE424203284725E228100C9F124ECC5
:1001C000A1E53D2700000000240027002A002D00A3
:1001D00030000000000200090F0000030401000CC1
:1001E000000000000000000000000000000000000F
:1001F000080B0002020201000904000001020200D3
:100200000005240010010524010101042402060553
:1002100024060001070581031000400904010002C3
:100220000A000000070502024000000705830240A3
:1002300000000403090412010002EF0201404F1BF9
:100240000492000101020301537061726B46756EE6
:1002500000537061726B46756E2050726F204D694D
:1002600063726F0000000000250028002B002E00A4
:100270003100000000002300260029002C002F0080
:10028000040404040403040502020202040302023B
:10029000020206060606060604040202020404041C
:1002A0000802011040804010204080408008020475
:1002B0000180402010020110801020404020BF1615
:1002C000D71311241FBECFEFDAE0DEBFCDBF11E0A0
:1002D000A0E0B1E0E4ECF4E302C005900D92AA3B8B
:1002E000B107D9F725E0AAEBB1E001C01D92A0311A
:1002F000B207E1F711E0C0E6D1E004C02197FE01AA
:100300000E94361ACF35D107C9F70E94E1130C9429
:10031000551A0C9400004091170250911802209138
:1003200015023091160242175307B4F49091E80079
:100330009570E1F39091E80092FD19C08093F1006F
:10034000809117029091180201968F739927892B3B
:1003500019F48EEF8093E8008091170290911802B3
:100360000196909318028093170281E0089580E02F
:100370000895CF92DF92EF92FF920F931F93CF9346
:10038000DF936C017A018B01C0E0D0E0CE15DF0570
:1003900089F0D8016D918D01D601ED91FC9101900C
:1003A000F081E02DC6010995892B11F47E0102C070
:1003B0002196ECCFC701DF91CF911F910F91FF9054
:1003C000EF90DF90CF900895CF93DF931F92CDB73A
:1003D000DEB76983DC01ED91FC910280F381E02DB1
:1003E00041E050E0BE016F5F7F4F09950F90DF91B4
:1003F000CF91089583E08093E9008091F2008823F3
:1004000019F08AE38093E8000895FC0184859585BE
:1004100097FD0BC09FB7F89482E08093E90080912C
:10042000F2009FBF90E0019608959FB7F89482E094
:100430008093E9008091F2009FBF90E0089590E0E2
:10044000FC013197EF30F105B0F5EA5AFF4F0C94FB
:10045000361A809180008F7703C0809180008F7D55
:1004600080938000089580918000877FF9CF84B5C4
:100470008F7702C084B58F7D84BD089580919000F0
:100480008F7707C0809190008F7D03C0809190008E
:10049000877F8093900008958091C0008F7703C07C
:1004A0008091C0008F7D8093C00008958091C2002C
:1004B000877F8093C20008953FB7F894809111021E
:1004C00090911202A0911302B091140226B5A89B3C
:1004D00005C02F3F19F00196A11DB11D3FBFBA2FD6
:1004E000A92F982F8827820F911DA11DB11DBC0136
:1004F000CD0143E0660F771F881F991F4A95D1F7FA
:1005000008952FB7F89460910D0270910E028091BA
:100510000F02909110022FBF089520911D0230917B
:100520001E022817390771F490911B0280911C025A
:10053000981741F0E0911B02F0E0E453FE4F8081F8
:1005400090E008958FEF9FEF089508951F93CF9344
:10055000DF93DC015C962D913C915D97211531056F
:1005600039F481E090E013969C938E9312973DC0EE
:100570005196ED91FC91529750969C915097892FEE
:1005800080951FB75E964C915E9741FB772770F977
:1005900041FD6095F8944081772311F0492B01C00B
:1005A00048234083E9012197F1F748E0508160FF3B
:1005B00002C0592B01C058235083E9012197F1F75C
:1005C0006695415099F7772321F0908189238083A4
:1005D00003C08081982B90831FBF5C968D919C9166
:1005E0005D970197F1F721E030E0C901DF91CF91EC
:1005F0001F91089520911D0230911E02281739077E
:1006000071F480911C0220911B0290E0805C9F4F4E
:10061000821B910960E470E00E94221A089580E034
:1006200090E0089520911D0230911E02281739078D
:10063000B9F490911B0280911C02981789F0E09107
:100640001B02F0E0E453FE4F808120911B0230E05A
:100650002F5F3F4F2F73332720931B0290E00895A5
:100660008FEF9FEF08958EBD00000DB407FEFDCF04
:100670008EB508958FEF0C9433030F931F93CF9390
:10068000DF93EB010E9481028B010E943A038F3FAE
:1006900049F00E948102601B710B6C177D07A8F363
:1006A00080E001C081E0DF91CF911F910F9108950B
:1006B000DC015996ED91FC915A973097B9F08389F6
:1006C0009489A589B6894285538564857585841B7F
:1006D000950BA60BB70B811520E89207A105B10574
:1006E00038F08FEF9FE7A0E0B0E0089580E090E061
:1006F0000895CF93DF931F92CDB7DEB76983DC01F6
:10070000ED91FC910280F381E02D41E050E0BE01CB
:100710006F5F7F4F09950F90DF91CF9108950895F6
:1007200080E090E008950E94B21390E00895CF9386
:10073000DF931F92CDB7DEB7FC018485958597FDC9
:1007400005C02FEF3FEF358724870BC0CE01019600
:100750000E948813019719F4898190E002C08FEFFD
:100760009FEF0F90DF91CF9108950F931F93CF9339
:10077000DF931F92CDB7DEB78C01FC018485958590
:1007800097FF0EC0CE0101960E948813019719F4BD
:10079000298130E002C02FEF3FEFF8013587248731
:1007A000F801848595850F90DF91CF911F910F916E
:1007B0000895CF93DF931F92CDB7DEB7FC01818DF3
:1007C000928D009751F0BE016F5F7F4F0E9488129B
:1007D000019719F4898190E002C08FEF9FEF0F908D
:1007E000DF91CF910895CF92DF92EF92FF920F9316
:1007F0001F93CF93DF931F92CDB7DEB7182F062F2D
:10080000E42E862F880F8E5F99830E948B0183E0F0
:100810000E948B01F12EC12E9981D92E8C2D8F191A
:10082000801798F4F601E7FE02C0849101C0808130
:100830000E948B01182F80E00E948B018123FFEF23
:10084000CF1ADF0A8111EACF01C081E00F90DF915A
:10085000CF911F910F91FF90EF90DF90CF9008956F
:10086000DF92EF92FF920F931F93CF93DF93D82ED7
:100870008A017B01E40EF51EEB01CE15DF0571F058
:10088000D7FE03C0FE01849101C088810E948B01C4
:1008900021968111F2CF8FEF9FEF01C0C801DF9148
:1008A000CF911F910F91FF90EF90DF9008950F93DC
:1008B0001F93CF93DF931F92CDB7DEB782E089837A
:1008C00042E450E060EF71E080E80E9430040E9452
:1008D000C313DC0112960D911C911397011511059C
:1008E00069F0D801ED91FC910280F381E02DBE0109
:1008F0006F5F7F4FC801099597FF07C089810F90EF
:10090000DF91CF911F910F910895F8010085118516
:10091000E5CF615030F02091F100FC012083019679
:10092000F8CF289884E6809321020895CF93DF932F
:10093000282F30E0F901EE52FE4F8491F901E15683
:10094000FD4FD491F901E058FD4FC491CC2391F0B3
:1009500081110E941F02EC2FF0E0EE0FFF1FEE58F6
:10096000FD4FA591B491EC91ED2381E090E021F44D
:1009700080E002C080E090E0DF91CF9108951F9366
:10098000CF93DF93282F30E0F901EE52FE4F849190
:10099000F901E156FD4FD491F901E058FD4FC491A2
:1009A000CC23C9F0162F81110E941F02EC2FF0E01A
:1009B000EE0FFF1FEC59FD4FA591B4918FB7F8943E
:1009C000111105C09C91ED2FE095E92302C0EC9137
:1009D000ED2BEC938FBFDF91CF911F91089561E0D4
:1009E000FC0184810E94BF048091C6018111109294
:1009F000C6010895CF93DF93EC018E81882389F09F
:100A00008F8198859C012F5F3F4F38872F838230DD
:100A1000924018F40E943A03F3CFCE010E94EF04F3
:100A20001E82DF91CF910895CF92DF92FF920F93B4
:100A30001F93CF93DF9300D000D0CDB7DEB76C010A
:100A4000F62E29833A834B835C830E94FA048091BB
:100A5000C60129813A814B815C81811109C081E005
:100A60008093C60190917504809176049CBD8DBDE4
:100A700060E0F601848129833A834B835C830E9482
:100A8000BF046CE271E0C6010E943D038F2D8064BB
:100A90000E94330308E110E05C814B813A81298197
:100AA000DA01C901002E04C0B695A79597958795E0
:100AB0000A94D2F729833A834B835C830E943303E1
:100AC0000850110929813A814B815C81083FFFEF71
:100AD0001F0731F7FF2029F088E0F81204C087E8EB
:100AE00003C085E901C08FEF0E94330310E00E942C
:100AF0003A03F601828787FF04C01F3F11F01F5F92
:100B0000F6CF0F900F900F900F90DF91CF911F9124
:100B10000F91FF90DF90CF900895EF92FF920F9387
:100B20001F93CF93DF93EC017901411551056105C6
:100B3000710511F482E13CC08B85833039F089E086
:100B4000440F551F661F771F8A95D1F79A01AB0195
:100B500068E1CE010E941405882311F084E028C0CA
:100B60008EEF0E94330387018EEFF81AF80181910E
:100B70008F010E9433030E151F05C1F78FEF0E94EE
:100B800033038FEF0E9433030E943A038A878F71E9
:100B9000853031F081E18D83CE010E94EF0409C0E0
:100BA00068E572E0CE010E943D03811107C085E136
:100BB0008D83CE010E94EF0480E013C020E030E07E
:100BC000A9016DE0CE010E941405811104C00E94AC
:100BD0003A03882311F084E1EBCFCE010E94EF04A9
:100BE00081E0DF91CF911F910F91FF90EF900895D9
:100BF000CF93DF938091C701882399F1C09123029D
:100C0000D091240240912001509121016091220154
:100C10007091230125E232E0CE010E948D05811101
:100C200002C080E01FC04091C8015091C90160918D
:100C3000CA017091CB01411551056105710579F02B
:100C400025E232E0CE010E948D05882351F31092F7
:100C5000C8011092C9011092CA011092CB011092E2
:100C6000C70181E0DF91CF910895CF93DF9390E0AA
:100C7000FC01E156FD4F2491FC01E058FD4F8491A9
:100C8000882361F190E0880F991FFC01EC53FE4F1F
:100C9000C591D491FC01EC59FD4FA591B49161111E
:100CA00009C09FB7F8948881209582238883EC91AE
:100CB0002E230BC0623061F49FB7F8943881822FE5
:100CC000809583238883EC912E2B2C939FBF06C0A5
:100CD0008FB7F894E8812E2B28838FBFDF91CF91B7
:100CE00008958F929F92AF92BF92CF92DF92EF9230
:100CF000FF926B017C010E945C024B015C01C114FC
:100D0000D104E104F104F1F00E945C02DC01CB01AA
:100D100088199909AA09BB09883E9340A105B10524
:100D200070F321E0C21AD108E108F10888EE880EBC
:100D300083E0981EA11CB11CC114D104E104F1048C
:100D400019F7DDCFFF90EF90DF90CF90BF90AF907D
:100D50009F908F9008958F929F92AF92BF92CF9263
:100D6000DF92EF92FF920F931F93CF93DF935C017B
:100D70006B017A0180910B01882309F45BC080919B
:100D80002202882309F456C080911A0280FF05C010
:100D90008091E00082608093E000E70110E00AEFBC
:100DA00083E0882E9AE3992E2097D9F10E94B213FE
:100DB00081110AC0015009F43DC061E070E080E09B
:100DC00090E00E947106F0CF282F30E0C217D307C1
:100DD0000CF48C2F4FB7F8948092E9009091E800C2
:100DE00095FF1DC0282F30E0C21BD30BF601982FB2
:100DF000915020F081918093F100FACFC20ED31E62
:100E0000112319F09092E80009C08091E80085FD57
:100E100006C09092E80011E0209709F010E04FBF63
:100E2000C3CF1111C3CF5D9884E6809319021E14BD
:100E30001F0444F081E090E0F5019383828380E019
:100E400090E001C0C701DF91CF911F910F91FF90FA
:100E5000EF90DF90CF90BF90AF909F908F900895CC
:100E60001F920F920FB60F9211242F933F938F93DF
:100E70009F93AF93BF9380910D0290910E02A0912A
:100E80000F02B091100230910C0226E0230F2D3793
:100E900020F40296A11DB11D05C029E8230F039679
:100EA000A11DB11D20930C0280930D0290930E02A0
:100EB000A0930F02B0931002809111029091120240
:100EC000A0911302B09114020196A11DB11D80934F
:100ED000110290931202A0931302B0931402BF91D7
:100EE000AF919F918F913F912F910F900FBE0F90D7
:100EF0001F9018951F920F920FB60F9211242F93E7
:100F00003F934F935F936F937F938F939F93AF9391
:100F1000BF93EF93FF93E0911D02F0911E02309773
:100F200009F451C0968DA685B785858591FF04C0CB
:100F30009C91892329F447C09C91892309F043C0DF
:100F4000A389B4899C918589809589238C9386890E
:100F500097890197F1F7608D718DA685B7855585C5
:100F600038E020E0CB010197F1F7822F90E09595D2
:100F70008795282F4C91452309F02068315091F72F
:100F8000868D81FD209580911C0290E001968F73E3
:100F9000992730911B02381749F0A0911C02B0E04C
:100FA000A453BE4F2C9380931C0203C0868D816096
:100FB000868F828D938D0197F1F7A389B4899C91D7
:100FC0008589892B8C93FF91EF91BF91AF919F9170
:100FD0008F917F916F915F914F913F912F910F90E2
:100FE0000FBE0F901F901895E0911D02F0911E0208
:100FF000E817F90769F4A389B4899C9185898095DC
:1010000089238C9310921E0210921D0281E0089594
:1010100080E00895AF92BF92CF92DF92EF92FF925D
:101020000F931F93CF93DF93EC016901C801820FE7
:10103000931F8130924008F070C08E81882371F038
:1010400088819981AA81BB81481759076A077B0764
:1010500029F48F819885C816D906B0F5488359833D
:101060006A837B838B85833039F089E0440F551F79
:10107000661F771F8A95D1F79A01AB0161E1CE0116
:101080000E941405882319F083E08D8346C00E94D6
:1010900081025B010E943A038A878F3F49F40E94D4
:1010A00081026A197B096D327140A0F38FE003C0A1
:1010B0008E3F31F08DE08D83CE010E94EF042DC074
:1010C00018861F8281E08E838F8198858C159D05FF
:1010D00040F40E943A038F819885019698878F8308
:1010E000F3CF6701E00EF11ECE14DF0431F00E9451
:1010F0003A03F60181936F01F7CF8F819885080F2E
:10110000191F18870F838985882319F0011512404C
:1011100048F0CE010E94FA0405C0CE010E94EF04FF
:1011200080E001C081E0DF91CF911F910F91FF908E
:10113000EF90DF90CF90BF90AF9008958F929F92E5
:10114000AF92BF92EF92FF920F931F93CF934B01F9
:101150005C01C42F8091200190912101A091220176
:10116000B091230188159905AA05BB0501F10E94DC
:10117000F805811102C080E020C085E2E82E82E0FF
:10118000F82E00E012E020E030E0B501A4018091EB
:101190002302909124020E940A08882361F380921E
:1011A000200190922101A0922201B092230180910E
:1011B000C701C82BC093C70181E0CF911F910F9148
:1011C000FF90EF90BF90AF909F908F9008954F92B7
:1011D0005F926F927F928F929F92AF92BF92CF92C7
:1011E000DF92EF92FF920F931F93CF93DF93EC0167
:1011F0006A017B0128013901423051056105710501
:1012000010F480E073C089859A85AB85BC85019612
:10121000A11DB11D84179507A607B70790F38B880A
:101220009C88AD88BE888F89803129F4BB27AF2D7B
:101230009E2D8D2D09C0DB01CA0147E0B695A7950B
:10124000979587954A95D1F7880E991EAA1EBB1EC1
:101250008091200190912101A0912201B091230160
:1012600088169906AA06BB0679F48F898031A1F405
:10127000DD24EE24FF24C601880F991FFC01EB5DDD
:10128000FD4F5182408219C040E0C501B4010E9467
:101290009E088111EACFB5CFE894C7F8DD24EE248B
:1012A000FF24C601880F991F880F991FFC01EB5D71
:1012B000FD4F40825182628273828091C7018160BA
:1012C0008093C7018A89823080F08D819E81AF81B1
:1012D000B885880E991EAA1EBB1E8092C8019092E6
:1012E000C901A092CA01B092CB0181E0DF91CF91F8
:1012F0001F910F91FF90EF90DF90CF90BF90AF9034
:101300009F908F907F906F905F904F9008958F92F5
:101310009F92AF92BF92CF92DF92EF92FF920F9384
:101320001F93CF93DF93FC0181859285A385B485BC
:101330000196A11DB11D84179507A607B70710F4E4
:1013400080E05CC083899489A589B689C789C0314A
:1013500029F4852E962EA72EBB2409C04A015B01D5
:10136000C7E0B694A79497948794CA95D1F7E901FA
:101370006A017B018F01BC01CD01680D791D8A1DB9
:101380009B1D8090200190902101A0902201B0909F
:101390002301681579058A059B0599F4F801878969
:1013A0008031A9F4B701A601552766277727440F96
:1013B000551FFA01EB5DFD4F80819181A0E0B0E007
:1013C00018C040E00E949E088111E8CFB9CFB70154
:1013D000A6014F77552766277727440F551F440FDF
:1013E000551FFA01EB5DFD4F80819181A281B38190
:1013F000BF7088839983AA83BB8381E0DF91CF91FB
:101400001F910F91FF90EF90DF90CF90BF90AF9022
:101410009F908F9008958F929F92AF92BF92CF929C
:10142000DF92EF92FF920F931F93CF93DF93EC0124
:101430008D81811102C080E077C00B891C892D89C4
:101440003E890417150726073707A8F36A017B01B1
:10145000823029F4CA86DB86EC86FD860DC0C11475
:10146000D104E104F10451F41E821F82188619860A
:101470001A861B861C861D8681E056C08A849B8442
:10148000AC84BD84EB8DFC8D258530E0275F3F4F1C
:10149000B501A4014150510961097109022E04C02E
:1014A00076956795579547950A94D2F7D701C60167
:1014B0000197A109B10904C0B695A795979587959D
:1014C0002A95D2F784179507A607B70720F0892831
:1014D0008A288B2849F44F89588D698D7A8D4E83DF
:1014E0005F836887798704C0841B950BA60BB70BB5
:1014F0004C015D018E010A5F1F4F81149104A1040C
:10150000B10409F4A7CF4E815F8168857985980180
:101510008B8D9C8D0E94870991E0891A9108A10802
:10152000B1088111EACF87CFDF91CF911F910F9141
:10153000FF90EF90DF90CF90BF90AF909F908F90F3
:101540000895EF92FF920F931F93CF93DF931F9213
:10155000CDB7DEB7FC01818D928D009701F17F013F
:10156000BE016F5F7F4F0E948812019719F40981B5
:1015700010E002C00FEF1FEF0F3F8FEF180789F049
:10158000F701818D928DFC014285538564857585B7
:1015900041505109610971090E940B0A02C000E023
:1015A00010E0C8010F90DF91CF911F910F91FF9034
:1015B000EF9008953F924F925F926F927F928F9239
:1015C0009F92AF92BF92CF92DF92EF92FF920F93D2
:1015D0001F93CF93DF93CDB7DEB72C970FB6F89458
:1015E000DEBF0FBECDBF5C01DC015B968D909C9091
:1015F0005C971696CD90DD90ED90FC901997C114F4
:10160000D104E104F10439F0BFEFCB1ADB0AEB0A95
:10161000FB0A312C07C0F401C080D180E280F38046
:1016200033243394F40181859285A385B4859C018C
:10163000AD012F5F3F4F4F4F5F4F29873A874B8751
:101640005C87260137011D821E821F821886F401E5
:1016500081859285A385B4852D813E814F815885F2
:10166000281739074A075B0708F063C089859A8500
:10167000AB85BC858C159D05AE05BF0550F482E099
:10168000C82ED12CE12CF12C92E0492E512C612C4A
:10169000712C9E012F5F3F4FB701A601C4010E942C
:1016A0008709882309F445C089819A81AB81BC816F
:1016B000892B8A2B8B2B41F0260137019FEF491A8A
:1016C000590A690A790A05C0C414D504E604F70466
:1016D00091F02D813E814F8158852F5F3F4F4F4FB5
:1016E0005F4F2D833E834F8358873FEFC31AD30A42
:1016F000E30AF30AACCF0FEF1FEF2FEF3FE0B30188
:10170000A201C4010E94E708882399F0D50116962A
:101710004D915D916D917C91199741155105610530
:10172000710549F093018201C4010E94E70881110B
:1017300002C080E02AC0D50116964D925D926D924E
:101740007C921997332051F0D301C2010196A11D5B
:10175000B11DF40180839183A283B383F50187894E
:10176000908DA18DB28D892B8A2B8B2B69F4D5019D
:1017700057964D925D926D927C925A9714968C91E9
:101780001497806814968C9381E02C960FB6F89489
:10179000DEBF0FBECDBFDF91CF911F910F91FF90A4
:1017A000EF90DF90CF90BF90AF909F908F907F9001
:1017B0006F905F904F903F900895CF93DF93FC011F
:1017C000248127FF2EC0EC01668577858089918969
:1017D00041E00E949E08882341F1EA8980E2E89F67
:1017E000F0011124DF01AB5DBD4F1097F1F08D8149
:1017F000823050F44B895C896D897E895C964D936B
:101800005D936D937C935F978F89988DA98DBA8D29
:10181000EB5DFD4F938F828FB58BA48B8C818F777F
:101820008C83DF91CF910C94F80580E0DF91CF910C
:101830000895FC01818D928D009729F0FC0125818E
:1018400021110C94DD0B08952F923F924F925F92DD
:101850006F927F928F929F92AF92BF92CF92DF92C0
:10186000EF92FF920F931F93CF93DF9300D000D09E
:1018700000D0CDB7DEB78C015B011A01DC011596F3
:101880008C9115978130C9F414968C9181FF15C005
:1018900082FF1DC0F8014389548965897689828554
:1018A0009385A485B58584179507A607B70779F0B2
:1018B000C8010E940B0A81110AC081E090E0D801A2
:1018C00013969C938E93129780E090E042C1610141
:1018D00020912302309124023E832D8382C0D801BF
:1018E0005B968D919C915C97FC0174802FEF270D86
:1018F0002A013B0139E076946794579447943A95CE
:10190000D1F7722E74207A01F1E0FF22772009F4DA
:1019100074C080E092E08E199F0946018C159D05E8
:1019200008F44C01D8015B962D913C915C9716967A
:101930008D919D910D90BC91A02D0297A109B109A7
:10194000F901058404C0880F991FAA1FBB1F0A94C0
:10195000D2F74685578560897189840F951FA61F28
:10196000B71F9C01AD01270D311D411D511D2901DE
:101970003A01811432E0930609F086C0809120017B
:1019800090912101A0912201B09123018415950528
:10199000A605B70559F48FEF9FEFDC018093200176
:1019A00090932101A0932201B09323019501B301EB
:1019B000A2018D819E810E948D05882309F47DCF2F
:1019C0009EEFB91AC818D908F80182859385A485B5
:1019D000B585880D991DA11DB11D82879387A487A8
:1019E000B587D8011A964D915D916D917C911D97A7
:1019F000C114D10409F073CF87C0E114F10409F0D8
:101A000088CF16964D915D916D917C9119974115F6
:101A100051056105710559F457968D919D910D9071
:101A2000BC91A02D0097A105B10541F521C09E01F3
:101A30002F5F3F4F0E948709882309F446CF898191
:101A40009A81AB81BC81F801238D348DF9012789FE
:101A5000203129F048EF5FEF6FEF7FE004C048EFDF
:101A60005FEF60E070E084179507A607B70730F0D6
:101A7000C8010E94DA0A81114CCF1FCFF80186837A
:101A80009783A087B18745CFE114F10429F5D801E8
:101A90001A964D915D916D917C911D9753968D9104
:101AA0009D910D90BC91A02D481759076A077B079F
:101AB00098F00E94F805882309F4FFCE4092200197
:101AC0005092210160922201709223018091C701FE
:101AD00081608093C70108C041E0C301B2010E9448
:101AE0009E08882309F4E9CED501F701EB5DFD4F8F
:101AF000CF01880D991DE817F90719F02D91219351
:101B0000FACFA80CB91C5ECF53968D919D910D9084
:101B1000BC91A02D84179507A607B70740F4F801DC
:101B2000438B548B658B768B848180688483D8014A
:101B300014968C9183FD02C0C1010BC0F801858110
:101B4000882309F4BACEC8010E94DD0B8111F4CFBD
:101B5000B4CE26960FB6F894DEBF0FBECDBFDF9190
:101B6000CF911F910F91FF90EF90DF90CF90BF909A
:101B7000AF909F908F907F906F905F904F903F902D
:101B80002F900895CF93DF931F92CDB7DEB769836F
:101B900041E050E0BE016F5F7F4F0E94240C0F9028
:101BA000DF91CF910895CF93DF93EC01898D9A8DCA
:101BB000009739F481E090E09B838A8380E090E095
:101BC0000BC0FC01138212820E94240CE98DFA8D55
:101BD00022813381232B71F7DF91CF9108951F92DA
:101BE0000F920FB60F9211242F933F934F935F9351
:101BF0006F937F938F939F93AF93BF93EF93FF93D5
:101C0000E0E0F0E00995FF91EF91BF91AF919F91D6
:101C10008F917F916F915F914F913F912F910F9095
:101C20000FBE0F901F9018950E94501A1F920F928E
:101C30000FB60F9211248F939F938091E1009091A2
:101C4000E100937F9093E10083FF0FC01092E900C1
:101C500091E09093EB001092EC0092E39093ED00F2
:101C60001092220298E09093F00082FF20C093E04F
:101C70009093E9009091F200992319F09AE39093E0
:101C8000E80090911902992339F09091190291502E
:101C900090931902992389F190912102992339F0A7
:101CA00090912102915090932102992341F184FF58
:101CB00010C08091E2008E7E81608093E20080916E
:101CC000E1008F7E8093E10080911A028E7E806118
:101CD00011C080FF16C08091E2008E7E80618093EB
:101CE000E2008091E1008E7E8093E10080911A02F3
:101CF0008E7E816080931A0204C05D9ACDCF289AAF
:101D0000D6CF9F918F910F900FBE0F901F90189577
:101D10001F920F920FB60F921124CF92DF92EF9283
:101D2000FF920F931F932F933F934F935F936F9364
:101D30007F938F939F93AF93BF93EF93FF93CF9333
:101D4000DF93CDB7DEB76C97DEBFCDBF1092E90051
:101D50008091E80083FFEDC168E0CE0145960E94C6
:101D6000890482EF8093E8008D8987FF05C09091F8
:101D7000E80090FFFCCF03C09EEF9093E800982FFF
:101D8000907609F0C6C09E892F89188D91110CC0DC
:101D9000803829F4809120028093F10002C01092D3
:101DA000F1001092F10048C1422F50E0512B9130C8
:101DB00051F4811141C14130510509F03DC180917B
:101DC00020028D7F0BC0933061F4811135C1413009
:101DD000510509F031C18091200282608093200278
:101DE0002BC1953041F48091E80080FFFCCF206842
:101DF0002093E30021C1963009F05FC0EB8CFC8C8E
:101E00001092E9001092180210921702123091F508
:101E100010921602109215020E94570499E0BE011A
:101E20006F5F7F4FDB01E92F1D92EA95E9F79983F8
:101E30001A8391E09E8390EA98879AEF9987209180
:101E4000170230911802275F3F4F3C832B838D830D
:101E50001092E9001092180210921702F0921602E6
:101E6000E092150249E050E080E00E9430040E94B8
:101E70005704E2C0F0921602E09215020E94C313CA
:101E8000DC011296ED90FC901397E114F10409F433
:101E9000C0C0D701ED91FC910480F581E02DBE0119
:101EA0006B5E7F4FC7010995009719F00CF0C4C015
:101EB000C7C0F701E084F184E8CF973009F4C0C0CF
:101EC000983021F481E08093F100B6C0993009F098
:101ED000B3C0837009F0B4C0E3E3F1E081E021E036
:101EE00036E39081992361F08093E9002093EB0021
:101EF00091919093EC003093ED008F5F873089F7DC
:101F00008EE78093EA001092EA008F898093220284
:101F100093C08B8D9C8D1092E90010921802109244
:101F200017029093160280931502898D811156C075
:101F30008E899D89913A59F4813209F081C047E038
:101F400050E064E071E080E00E94300475C091329E
:101F500009F076C0833289F4888D90E0982F882725
:101F60002F89822BA0E0B0E08093000190930101C3
:101F7000A0930201B09303015FC0803269F48091A5
:101F8000E80082FFFCCF67E084E091E00E948904D2
:101F90008BEF8093E80006C0823209F04DC08F8934
:101FA00080930B0180911F02882319F0EEEFFAE075
:101FB00002C0E0E0F8E08091040190910501A09159
:101FC0000601B0910701803B9440A105B10509F0DD
:101FD0007BC080910B0180FF93C076C00E94C31329
:101FE000DC0112960D911C9113970115110541F119
:101FF000D801ED91FC910190F081E02DBE016B5E66
:102000007F4FC8010995811117C0F801008511851E
:10201000ECCF113009F44EC0133091F48F8988232E
:1020200009F445C0823081F440E862E181E592E044
:102030000E94F303882321F08EEF8093E80079C09B
:1020400081E28093EB0075C0813029F440E868E0BC
:1020500088E492E0EDCF833099F70E94C313DC014E
:102060001296ED90FC9013978E010F5F1F4F680141
:10207000E114F10479F0D701ED91FC910680F7812C
:10208000E02DB801C7010995080F111DF701E08483
:10209000F184EECFD8011C92F60101900020E9F7FF
:1020A0003197BF016C197D0940E0C601C1CF62E3E1
:1020B00072E002C066E372E06115710509F2FB018E
:1020C000449150E080E840CF0FB6F894A8958091F5
:1020D0006000886180936000109260000FBEA89538
:1020E000EE3F2AE0F20739F08091FE0A9091FF0A54
:1020F00091838083A1CF1092FF0A1092FE0A9CCF99
:10210000EE3F8AE0F80731F0808191819093FF0AD9
:102110008093FE0A87E797E7918380839BE088E1BD
:102120000FB6F894A895809360000FBE909360005E
:1021300083CF6C960FB6F894DEBF0FBECDBFDF9194
:10214000CF91FF91EF91BF91AF919F918F917F912F
:102150006F915F914F913F912F911F910F91FF9040
:10216000EF90DF90CF900F900FBE0F901F901895BB
:10217000EF92FF920F931F93CF93DF93E82EF62EEB
:10218000C7E0D0E0042F10E098010C2E02C0359576
:1021900027950A94E2F7B901617077278E2D0E9486
:1021A000BF0461E08F2D0E94BF0460E08F2D0E946C
:1021B000BF04219748F7DF91CF911F910F91FF90B6
:1021C000EF9008950F931F93CF93DF931F92CDB796
:1021D000DEB7482F06E914E061E0F8018181498308
:1021E0000E94350661E0F80181810E94BF0461E030
:1021F000F80180810E94BF0460E0F80181810E94A3
:10220000BF0460E0F80180810E94BF044981F801A9
:10221000608181810F90DF91CF911F910F910C947C
:10222000B81060E0809197040E94350661E08091CB
:1022300096040E94BF04809197040E94960401971F
:10224000D1F360E0809196040C94BF04009769F08C
:10225000FC0101900020E9F73197AF01481B590BB1
:10226000BC0187E794E00C94B90180E090E0089508
:10227000DF92EF92FF920F931F93CF93DF93CDB72F
:10228000DEB728970FB6F894DEBF0FBECDBF8091A2
:102290009F04882309F446C084EE8093BC0080919B
:1022A000BC0087FFFCCF80ED8093BB0084EC809363
:1022B000BC008091BC0087FFFCCF1092BB0084EC77
:1022C0008093BC008091BC0087FFFCCF84EE80939C
:1022D000BC008091BC0087FFFCCF81ED8093BB00E8
:1022E00084EC8093BC008091BC0087FFFCCFE8E9C0
:1022F000F4E094EC9093BC008091BC0087FFFCCF8D
:102300008091BB00819374E0EF39F70799F784E877
:102310008093BC008091BC0087FFFCCF84E9809350
:10232000BC0089C080ED0E94E2100E94111161E0A2
:10233000809197040E94350640E060919604809158
:1023400097040E94B8100E94111181ED0E94E210C2
:102350000E94111100E010E060E0809197040E945B
:10236000350687E0E82EF12CD12C61E080919604AF
:102370000E94BF04809197040E94960499270E2C16
:1023800001C0880F0A94EAF7D82A60E08091960489
:102390000E94BF0481E0E81AF10838F7F801EA5614
:1023A000FB4FD28261E0809197040630110549F01D
:1023B0000E94350660E0809196040E94BF0460E0B0
:1023C00008C00E94350660E0809196040E94BF0418
:1023D00061E0809197040E94BF0461E080919604BF
:1023E0000E94BF0460E0809196040E94BF0460E0F8
:1023F000809197040E9435060F5F1F4F073011052B
:1024000009F0AACF61E0809197040E94350660E050
:10241000809197040E94BF0461E0809196040E941D
:10242000BF0461E0809197040E94BF0460E0809146
:1024300097040E94350680919804482F469546954A
:1024400046954E70942F990F990F490F8F70480F32
:1024500080919904382F3695369536953E70932F96
:10246000990F990F390F8F70380F80919A04282F88
:102470002F7087FF08C085FB992790F98CE0989F03
:10248000200D112409C08073869586958695982F16
:10249000990F990F890F280FE0919B0460919C047C
:1024A00070919D0480919E04562F56955695569591
:1024B0005E70952F990F990F590F6F70560F672FF8
:1024C0006695669566956E70962F990F990F690FB0
:1024D0007F70670F982F92959F708F707AE0979F0B
:1024E000800D112490E08053984F9F838E83782F26
:1024F0008F819E2F28960FB6F894DEBF0FBECDBFFA
:10250000DF91CF911F910F91FF90EF90DF90089591
:102510004F925F926F927F928F929F92AF92BF92F3
:10252000CF92DF92EF92FF920F931F93CF93DF939F
:102530003C016B01DC0115968C91811103C08FEF7A
:102540009FEFD5C0F301848180FFF9CF81E08388BC
:102550009488A588B68842855385648575858416D8
:102560009506A606B70609F480E090E02C01430129
:10257000B6E08B0E911CA0902302B0902402892B10
:1025800009F480C0D3011A964D915D916D917C91B3
:102590001D97EA01D17015962C9115977A018B0140
:1025A00089E016950795F794E7948A95D1F75B969D
:1025B0008D919C915C97223061F4FC01828D938D0A
:1025C000A48DB58DBC01CD016E0D7F1D801F911FA7
:1025D00046C0DC0114962C912150122F1E21209709
:1025E000E9F411111BC0452B462B472B51F4F30185
:1025F0008789908DA18DB28D86839783A087B187BF
:102600000DC0D30116964D915D916D917C911997F6
:1026100094010E948709882309F491CFF301238D47
:10262000348D86819781A085B1850297A109B10972
:10263000F901058404C0880F991FAA1FBB1F0A94C3
:10264000D2F74685578560897189840F951FA61F2B
:10265000B71FBC01CD01610F711D811D911DD301FB
:1026600014962C9126FF10C0009120011091210199
:10267000209122013091230160177107820793078F
:1026800031F502C0C20133C040E00E949E08882399
:1026900009F455CFCB5DDD4FF601CE010196C81789
:1026A000D90719F029912193FACFEFEFCE1ADE0A5C
:1026B000F30182859385A485B5850196A11DB11D81
:1026C00082879387A487B58780E090E058CF760112
:1026D00001E010E09E01AB01BC01C5010E940A08A7
:1026E000882309F42CCFBFEFCB1ADB0AE1CFDF91AF
:1026F000CF911F910F91FF90EF90DF90CF90BF90FF
:10270000AF909F908F907F906F905F904F900895C3
:10271000FC0180912202811103C08FEF9FEF089589
:102720009FB7F89482E08093E9002091F20030E0B6
:102730001216130614F421E030E02115310559F08A
:10274000289884E6809321028091F1008083809113
:10275000F200882319F09FBFC90108958BE680938A
:10276000E800F9CF2FB7F89483E08093E9009091C7
:10277000E800892F807295FF04C09091F20080E4F8
:10278000891B2FBF08958091A40481110DC082E0A0
:102790008093A00484E08093A1041092A30410927B
:1027A000A20481E08093A40480EA94E008958BE57C
:1027B00091E0909378048093770487E794E00C94F9
:1027C000F407CF93DF93CDB7DEB7AD970FB6F8948C
:1027D000DEBF0FBECDBF789484B5826084BD84B562
:1027E000816084BD85B5826085BD85B5816085BD0C
:1027F00080916E00816080936E00109281008091C4
:10280000810082608093810080918100816080934B
:102810008100809180008160809380008091910090
:1028200082608093910080919100816080939100FB
:10283000809190008160809390008091C1008460BD
:102840008093C1008091C10082608093C10080911B
:10285000C10081608093C1008091C300816080933A
:10286000C3008091C00082608093C0008091C2004C
:1028700081608093C20080917A00846080937A00A6
:1028800080917A00826080937A0080917A008E7FB6
:1028900080937A0080917A00806880937A00109209
:1028A00022021092200210921A028091D7008160B9
:1028B0008093D70080EA8093D80089B58F7E89BD48
:1028C00089B5826089BD09B400FEFDCF61E070E08A
:1028D00080E090E00E9471068091D8008F7C80613A
:1028E0008093D8008091E000807F8093E000809109
:1028F000E1008E7E8093E1008DE08093E200559AA6
:10290000209AEEEFFFE7859194918B3F9C4D19F44F
:1029100081E080931F0280917A00846080937A0026
:1029200080917A008D7F80937A0080917A008E7FEB
:1029300080937A0068EE73E080E090E00E94710678
:1029400010929204109291041092900410928F04AD
:1029500010928E0410928D0485E690E0909394047A
:10296000809393048091830498EF980F943048F0FB
:1029700022EF280F243028F026EE280F233008F00D
:1029800060C021E230E030938E0420938D0423E672
:1029900030E03093900420938F0422E430E03093B1
:1029A000920420939104943058F092EF980F943051
:1029B00038F08A51833008F4DAC1A0E0B0E0D9C120
:1029C000A8E6B0E0E8E6F0E0808181608C93809139
:1029D000830498EF980F943058F022EF280F24309A
:1029E00038F026EE280F233018F020E030E002C047
:1029F0002BE630E030938B0420938A04943010F45B
:102A00009CEF09C08E3071F08F3071F0803171F021
:102A1000813171F09AEE980F81E001C0880F9A958C
:102A2000EAF707C088E005C082E003C084E001C087
:102A300081E080938C048091930490919404019799
:102A4000F1F78091910490919204892B21F180916A
:102A50001D0290911E0224E087379207E1F0009753
:102A600011F00E94F407809195048E7F8093950465
:102A700010921C0210921B0287E794E090931E02B2
:102A800080931D02E0918A04F0918B0490818091E3
:102A90008C04892B808368EE73E080E090E00E94D4
:102AA0007106109197041230F9F4809196048330E6
:102AB000D9F481E080939F0461E082E00E94BF042A
:102AC00061E083E00E94BF048091B9008E7F809313
:102AD000B9008091B9008D7F8093B9001093B80040
:102AE00085E08093BC0007C010929F0461E0809154
:102AF00096040E94350668EE73E080E090E00E9444
:102B000071068FEF9FEF909332048093310448EE6B
:102B1000A42E43E0B42E54E6E52EF12C6AE0C62E36
:102B2000D12C70E0872E70E0972E8AE0582E90E32B
:102B3000492E2AE3222E3EE2332EE4E2F1E0DE01CA
:102B400011968EE001900D928A95E1F70E9438115E
:102B5000E92F288B398B4A8B5B8B6C8B7D8B8E8B13
:102B60009F8BCE0101968E0F911D8E0F911DFC0142
:102B70003297608071800E94381129833A834B8399
:102B80005C836D837E838F8398872A3018F440920C
:102B90000C0107C0822F652D0E94161A805D80935C
:102BA0000C01822F652D0E94161A905D90930D01E5
:102BB00020920E012A812A3018F440920F0107C09A
:102BC000822F652D0E94161A805D80930F01822F3F
:102BD000652D0E94161A905D9093100120921101AC
:102BE0002B812A3018F44092120107C0822F652DE4
:102BF0000E94161A805D80931201822F652D0E941B
:102C0000161A905D90931301109214010E943811CE
:102C100029833A834B835C836D837E838F8398877C
:102C20005A3018F44092150107C0852F652D0E9477
:102C3000161A805D80931501852F652D0E94161A46
:102C4000905D90931601309217012D812A3018F46F
:102C50004092180107C0822F652D0E94161A805DD0
:102C600080931801822F652D0E94161A905D909313
:102C7000190130921A012E813F81C901B5010E94CC
:102C8000221A605D60931B01B7010E94221A605DE9
:102C900060931C01C901B7010E94221AB6010E946B
:102CA000221A605D60931D01C901B6010E94221ABB
:102CB000805D80931E0110921F0160E177E280E049
:102CC00090E00E9471068E01015E1F4F22E045E0F8
:102CD00060E070E080E291E40E9490170F501109CB
:102CE00022E045E060E070E080E291E40E9490170D
:102CF0000F50110922E045E060E070E080E291E4CD
:102D00000E949017C3010E9426118BE791E00E9458
:102D1000261185E191E00E9426118BE791E00E9447
:102D200026118CE091E00E9426118BE791E00E9431
:102D30002611CE014F960E9426118BE791E00E944A
:102D40002611CE0140960E9426118BE791E00E9449
:102D50002611C8010E9426118FE791E00E942611DA
:102D60008114910409F4E9CE0E940000DECEA8E6A9
:102D7000B0E0833008F426CEE0E0F0E025CE0F93FB
:102D80001F93109228041092270488EE93E0A0E08D
:102D9000B0E08093290490932A04A0932B04B0936D
:102DA0002C042DE331E030932604209325042FEFEB
:102DB0003FEF309332042093310420E520937504D3
:102DC00061E0609376041092B1041092B204109204
:102DD000B5041092B70402E010E020E030E0009368
:102DE000B8041093B9042093BA043093BB04109232
:102DF000CF041092D9041092D8042FE431E030931C
:102E0000D7042093D6041092DB0410927A04109217
:102E1000790480937B0490937C04A0937D04B09309
:102E20007E048BE591E09093780480937704109270
:102E30008E0410928D041092900410928F041092C0
:102E40009204109291041092940410929304809131
:102E500095048E7F8D7F8093950486958170682779
:102E600081E00E94BF0461E081E00E943506E0EA53
:102E7000F2E0E491E0938704E1E8F2E0E491F0E02D
:102E8000EE0FFF1FEC59FD4F8591949190938904AB
:102E90008093880460E080E00E943506809195046C
:102EA00081FD04C061E080E00E94BF0410928304B1
:102EB000EFE9F2E0E491E0938404E0E8F2E0E491E9
:102EC000F0E0EE0FFF1FEE58FD4F85919491909327
:102ED0008604809385041092F8041092F70488EE1B
:102EE00093E0A0E0B0E08093F9049093FA04A093FB
:102EF000FB04B093FC048DE691E09093F60480937C
:102F0000F50410920F0510920E051092010582E053
:102F10008093970483E0809396041F910F91089506
:102F2000EF920F931F93CF93DF93E80147FD02C009
:102F300034E001C034E1E42F440FFF0BF7FF03C07E
:102F4000F195E195F109E32E022F2E2FAE010E949B
:102F5000B017CE01DF91CF911F910F91EF9008959F
:102F60004F925F926F927F929F92AF92BF92CF9259
:102F7000DF92EF92FF920F931F93CF93DF93CDB722
:102F8000DEB729970FB6F894DEBF0FBECDBF6A013A
:102F9000122FB02E2BE3201720F0FF24F394F00E15
:102FA00002C0BCE3FB2E0F2D27E0AE014F5F5F4F49
:102FB0000E943E19AC018981982F9970913031F0AF
:102FC000E1FC06C0E0FE06C090E205C09DE203C041
:102FD0009BE201C090E0EE2DE07183FF3CC09111B7
:102FE00002C083E001C084E0811718F4212F281B60
:102FF00001C020E0E1110BC0F601822F30E28823EE
:1030000019F031938150FBCFC20ED11C20E09923DF
:1030100029F0D6019C93F60131966F01C601039603
:10302000E2FE0AC03EE4D6013C9341E411964C9383
:10303000119712963C9306C03EE6F601308341E6B6
:1030400041833283FC01322F40E2332309F442C032
:1030500041933150FACF82FF44C0911102C083E006
:1030600001C084E0811718F4212F281B01C020E043
:10307000E1110BC0F601822F30E2882319F0319361
:103080008150FBCFC20ED11C20E0992329F0D6013C
:103090009C93F60131966F01C6010396E2FE0BC0C8
:1030A00039E4D6013C933EE411963C93119736E403
:1030B00012963C9307C039E6F60130833EE6318331
:1030C00036E63283FC01322F40E2332319F041937C
:1030D0003150FBCFFC01E20FF11D10828EEF9FEF0C
:1030E000B7C0F1E0911101C0F0E06F2F70E014164D
:1030F000150624F49A012F5F3F4F02C021E030E013
:10310000260F371FBB2029F06B2D70E06F5F7F4FBC
:1031100002C060E070E0260F371F612F70E02617B5
:1031200037071CF4121B212F01C020E03E2D3871FF
:1031300059F4D601322F60E2332319F06D933150E8
:10314000FBCFC20ED11C20E0FF2331F0D6019C93AF
:10315000B6016F5F7F4F6B01E1110BC0F601922F3B
:1031600030E3992319F031939150FBCFC20ED11C5B
:1031700020E09F2D940F3A81782F7071A72E84FF45
:1031800003C0313309F49150191624F4993018F022
:1031900098E001C091E0E42F852F57FF02C0E0E0E6
:1031A00080E06E2F782FE0E0F0E0AEE29A2E3A0158
:1031B000691A71082A01461A570A0B2D10E0119559
:1031C000019511096F3F8FEF780729F4D6019C9282
:1031D000C60101966C014617570784F066167706FC
:1031E0006CF47F01E40CF51CA1E0B0E0AC0FBD1F56
:1031F000EA0EFB1ED7011196BC9002C090E3B92ED7
:10320000615071093196C60101967C016017710702
:1032100024F0D601BC926C01D5CF6417750741F438
:10322000363320F4353321F4A11002C081E3B82EE7
:10323000F601B082F701822F90E2882319F0919372
:103240008150FBCFF701E20FF11D108280E090E08A
:1032500029960FB6F894DEBF0FBECDBFDF91CF9198
:103260001F910F91FF90EF90DF90CF90BF90AF90A4
:103270009F907F906F905F904F900895283008F056
:1032800027E03327DA01990F311D87FD9160009601
:103290006105710539F432602E5F3D9330E32A9564
:1032A000E1F708959F3F30F080387105610509F01E
:1032B0003C5F3C5F3D93913008F08068911DDF9347
:1032C000CF931F930F93FF92EF92192F987F9695AC
:1032D000E92F96959695E90FFF27EC5DFE4F99270C
:1032E0003327EE24FF24A701E701059008940794F3
:1032F00028F4360FE71EF81E491F511D660F771F71
:10330000881F991F0694A1F70590079428F4E70EEB
:10331000F81E491F561FC11D770F881F991F661F72
:103320000694A1F70590079428F4F80E491F561F3C
:10333000C71FD11D880F991F661F771F0694A1F71D
:103340000590079420F4490F561FC71FD81F990FE7
:10335000661F771F881F0694A9F784911095177030
:1033600041F0D695C79557954795F794E7941A95E8
:10337000C1F7EAECF0E068941590159135916591EC
:10338000959105907FE27395E118F10A430B560B76
:10339000C90BD009C0F7E10CF11E431F561FC91F0E
:1033A000D01D7EF4703311F48A95E6CFE894015075
:1033B00030F0080F0AF40027021708F4202F239595
:1033C000022F7A3328F079E37D932A95E9F710C02C
:1033D0007D932A9589F60694979567953795179565
:1033E0001794E118F10A430B560BC90BD00998F05A
:1033F00023957E9173957A3308F070E37C932013C4
:10340000B8F77E9170617D9330F0839571E37D9381
:1034100070E32A95E1F71124EF90FF900F911F912F
:10342000CF91DF91992787FD90950895991B79E0B9
:1034300004C0991F961708F0961B881F7A95C9F744
:103440008095089597FB072E16F4009407D077FD1A
:1034500009D00E943C1A07FC05D03EF49095819556
:103460009F4F0895709561957F4F0895EE0FFF1F50
:103470000590F491E02D0994AA1BBB1B51E107C0F4
:10348000AA1FBB1FA617B70710F0A61BB70B881FF4
:10349000991F5A95A9F780959095BC01CD01089583
:1034A00081E090E0F8940C94551A11E0C0E6D1E068
:1034B00004C0FE010E94361A2196C136D107C9F711
:0434C000F894FFCFAE
:1034C400FFFFFFFF00E1000000000000787878783B
:1034D4007878787800787878787878787878780058
:1034E400FFFFFFFF8101880190019A01A301AA0156
:1034F400B30100C1808100000000000000E401ABC2
:10350400069303FA0105029703B50300000000C205
:103514000DB90190038F0300000000A602B90190C9
:1035240003A502FA0212038D02000000007903D3FE
:103534000D9003190C5803D903A10A202020000A76
:10354400004D6F6E64617900547565736461790030
:103554005765646E65736461790054687572736449
:1035640061790046726964617900536174757264AB
:0A35740061790053756E64617900FF
:1070000055C000006EC000006CC000006AC00000E7
:1070100068C0000066C0000064C0000062C00000DC
:1070200060C000005EC00000FCC400005AC0000048
:1070300058C0000056C0000054C0000052C00000FC
:1070400050C000005DC000004CC000004AC00000FD
:1070500048C0000046C0000044C0000042C000001C
:1070600040C000003EC000003CC000003AC000002C
:1070700038C0000036C0000034C0000032C000003C
:1070800030C000002EC000002CC000002AC000004C
:1070900028C0000026C0000024C0000022C000005C
:1070A00020C000001EC000001CC0000011241FBE34
:1070B000CFEFDAE0DEBFCDBF11E0A0E0B1E0E2E467
:1070C000FFE702C005900D92A43BB107D9F711E08C
:1070D000A4EBB1E001C01D92AD3CB107E1F74FD385
:1070E0002EC78ECFF89410926F001092810081E02D
:1070F00085BF15BE47985D9A289A0C9400000895A4
:107100001F920F920FB60F9211242F938F939F937C
:10711000EF93FF9310928500109284008091B40148
:107120009091B501009741F001979093B50180933C
:10713000B401892B09F45D9A8091B6019091B70151
:10714000009741F001979093B7018093B601892B86
:1071500009F4289A8091BA019091BB01019690930D
:10716000BB018093BA01E0E0F0E0859194918F5FDC
:107170009F4F49F08091B8019091B9010196909389
:10718000B9018093B801FF91EF919F918F912F9159
:107190000F900FBE0F901F90189584E08093E90028
:1071A0000DC08091E8008B778093E80003C08EB318
:1071B000882351F08091E80082FFF9CF8091E800A8
:1071C00085FFEFCF8091F1000895982F83E08093A1
:1071D000E9008091E80085FD0DC08091E8008E7780
:1071E0008093E80003C08EB3882369F08091E800A3
:1071F00080FFF9CF9093F1005D9884E690E0909342
:10720000B5018093B40108954F925F926F927F927F
:107210008F929F92AF92BF92CF92DF92EF92FF92A6
:107220000F931F93CF93DF9384E08093E9008091C5
:10723000E80082FF57C2289884E690E09093B70157
:107240008093B601AADF182F853481F48CEA9DE083
:107250009093B9018093B80107B600FCFDCFF9996E
:10726000FECF81E180935700E89503C0843519F47F
:1072700094DF8DE00DC28C34E1F38035D1F3843797
:1072800021F484E4A2DF80E003C2813611F489E5B1
:10729000FFC18134B1F481DF182F7FDF90E0880FC8
:1072A000991FAA2797FDA095BA2F312F330F20E001
:1072B000442737FD4095542F822B932BA42BB52BBD
:1072C000B8C1803711F483E5E3C1833549F4C0E0E8
:1072D000D1E089917ADF21E0C730D207D1F7D9C157
:1072E000863521F481E371DF80E3D2C1833731F445
:1072F00087E86BDF85E969DF8EE1CAC18536B9F4BD
:10730000E0E0F0E093E085E090935700E89507B661
:1073100000FCFDCF80935700E89507B600FCFDCF39
:10732000E058FF4FA0E7E030FA0771F7A2CF8237AD
:1073300039F4E1E0F0E089E0809357008491A8C13E
:10734000863439F4E0E0F0E089E0809357008491DE
:107350009FC18E3439F4E3E0F0E089E08093570078
:10736000849196C1813539F4E2E0F0E089E08093C0
:10737000570084918DC1823631F489E526DF80E0A3
:1073800024DF80E885C1823419F0873609F0E5C032
:107390001092B9011092B80100DF082FFEDEF82E1E
:1073A000FCDE682E8554823008F071C1902F80E099
:1073B000CF2DD0E0C82BD92B10926F00173609F0D3
:1073C0004BC081E180935700E895DD24CC24C39421
:1073D0003FC0E090BD01F090BE010091BF0110914F
:1073E000C001B6E46B16D9F4ED2DF0E0EE29FF29CB
:1073F000E4918E2FEADEDD2081F082E090E0A0E0D3
:10740000B0E0E80EF91E0A1F1B1FE092BD01F092CA
:10741000BE010093BF011093C001DC2418C0D80145
:10742000C701B695A7959795879573D5CEDE82E06F
:1074300090E0A0E0B0E0E80EF91E0A1F1B1FE092EA
:10744000BD01F092BE010093BF011093C0012197CE
:10745000209709F0BECF7DC08090BD019090BE0105
:10746000A090BF01B090C00196E4691609F05DC01C
:1074700083E0F40180935700E89507B600FCFDCF48
:1074800054C0F6E46F1661F5772031F1E090BD014C
:10749000F090BE010091BF011091C0017EDED82E98
:1074A000CC24852D90E08C299D29F7010C01409278
:1074B0005700E895112482E090E0A0E0B0E0E80EEB
:1074C000F91E0A1F1B1FE092BD01F092BE0100933E
:1074D000BF011093C00102C060DE582E742423C087
:1074E000E090BD01F090BE010091BF011091C0017C
:1074F00016950795F794E79450DE682FC70111D5CC
:107500008091BD019091BE01A091BF01B091C001D9
:107510000296A11DB11D8093BD019093BE01A09361
:10752000BF01B093C001219704C05524772444249F
:107530004394209709F0A5CF96E4691641F485E0BD
:10754000F40180935700E89507B600FCFDCF8DE06D
:107550003CDE82E080936F009CC0833471F4009124
:10756000BD011091BE0119DE90E021E0F8010C018F
:1075700020935700E89511247CCE833619F5E090CE
:10758000BD01F090BE010091BF011091C00105DE68
:10759000F701E16090E021E00C0120935700E895AD
:1075A000112482E090E0A0E0B0E0E80EF91E0A1F8E
:1075B0001B1FE092BD01F092BE010093BF0110932A
:1075C000C00157CE8D3661F4E091BD01F091BE014E
:1075D00085E080935700E89507B600FCFDCF49CEC3
:1075E000823551F4E091BD01F091BE0105911491F5
:1075F000812FEBDD802F4CC0843421F5E090BD015C
:10760000F090BE010091BF011091C0011695079541
:10761000F794E794C2DD682FC70183D48091BD0140
:107620009091BE01A091BF01B091C0010296A11D31
:10763000B11D8093BD019093BE01A093BF01B09393
:10764000C00117CE843609F5E090BD01F090BE016F
:107650000091BF011091C001D801C701B695A7954F
:107660009795879556D4B1DD82E090E0A0E0B0E038
:10767000E80EF91E0A1F1B1FE092BD01F092BE0129
:107680000093BF011093C00104C08B3111F08FE350
:107690009CDD83E08093E9009091E8008091E80010
:1076A0008E778093E80095FF04C010C08EB38823C6
:1076B000C9F08091E80080FFF9CF8091E8008E77D3
:1076C0008093E80003C08EB3882361F08091E800C6
:1076D00080FFF9CF84E08093E9008091E8008B7708
:1076E0008093E800DF91CF911F910F91FF90EF9071
:1076F000DF90CF90BF90AF909F908F907F906F90D2
:107700005F904F9008959091C501892F8F778132B6
:1077100049F58091C6018032A1F0813219F5913A84
:1077200009F58091E800877F8093E8008CE091E084
:1077300067E070E025D28091E8008B778093E800C5
:107740000895913279F48091E800877F8093E80072
:107750008CE091E067E070E077D28091E8008E776E
:107760008093E800089582E061EC42E0D1D083E0AC
:1077700061E842E1CDD084E060E842E1C9C01F93F6
:10778000209100081092000844B714BE88E10FB69B
:10779000F89480936000109260000FBE80E8E0E0F3
:1077A000F0E00FB6F89480936100E09361000FBEA3
:1077B00031E035BF92E095BF3F9A209A559A809369
:1077C00061001092610047985D9A289A1092890092
:1077D0008AEF8093880090936F0083E0809381000C
:1077E000859194918F5F9F4F11F03093BC01942F3E
:1077F00041FF19C0809109012817A9F08093000862
:10780000789480911301882339F08091BA01909186
:10781000BB0188579140C8F3F8941092000881E0AA
:10782000809313010CC090FF04C08091BC01882399
:1078300051F493FF09C080910901281729F0809124
:10784000BC01882309F04EDCD4D078941092B901A1
:107850001092B8011EEF20C0D7DC49D38091B80147
:107860009091B901815A9F4010F0109213018091BC
:10787000C1019091C20101969093C2018093C10110
:10788000292F97FF03C0512F591B252F220F28178F
:1078900010F4479801C0479A809113018823E1F6BC
:1078A0008091E00081608093E0001CDC80E090E04B
:1078B0001F910895FA01923049F0933061F09130B0
:1078C000F9F484E191E022E130E01EC086E291E02B
:1078D0002EE330E019C0882329F484E691E024E007
:1078E00030E012C0813029F488E691E02EE130E0EA
:1078F0000BC0823029F488E891E02AE230E004C02D
:1079000080E090E020E030E091838083C901089519
:107910008093E9008091EB0081608093EB001092EE
:10792000ED006093EC004093ED008091EE00881F25
:107930008827881F08958091C50188238CF403C08F
:107940008EB38823B1F08091E80082FFF9CF809157
:10795000E8008B778093E80008958EB3882349F080
:107960008091E80080FFF9CF8091E8008E778093C6
:10797000E8000895EF92FF920F931F9345D04CD0EB
:1079800008ED10E0F80180818F7780838081806826
:10799000808380818F7D808319BC1EBA1092C301C1
:1079A00080EEE82EF12CF70180818B7F8083F80137
:1079B00080818160808380E060E042E0A9DFE1EEC9
:1079C000F0E080818E7F8083E2EEF0E08081816054
:1079D0008083808188608083F70180818E7F8083AF
:1079E000F8018081806180831F910F91FF90EF905B
:1079F0000895E7EDF0E08081816080838AE482BFB2
:107A000081E08093C401B6CFE8EDF0E080818E7F05
:107A100080831092E20008951092DA001092E10043
:107A200008951F920F920FB60F9211242F933F9338
:107A30004F935F936F937F938F939F93AF93BF9376
:107A4000EF93FF938091DA0080FF1AC08091D800F5
:107A500080FF16C08091DA008E7F8093DA008091DB
:107A6000D90080FF0AC019BC82E089BD09B400FEBC
:107A7000FDCF81E08EBB3AD203C019BC1EBA36D20C
:107A80008091E10080FF17C08091E20080FF13C069
:107A90008091E2008E7F8093E2008091E20080611D
:107AA0008093E2008091D80080628093D80019BC56
:107AB00085E08EBB1BD28091E10084FF2BC08091BA
:107AC000E20084FF27C019BC82E089BD09B400FE32
:107AD000FDCF8091D8008F7D8093D8008091E10008
:107AE0008F7E8093E1008091E2008F7E8093E200A0
:107AF0008091E20081608093E2008091C30188233D
:107B000031F48091E30087FD02C081E001C084E090
:107B10008EBBECD18091E10083FF21C08091E20017
:107B200083FF1DC08091E100877F8093E10082E0A8
:107B30008EBB1092C3018091E1008E7F8093E100A3
:107B40008091E2008E7F8093E2008091E20080616C
:107B50008093E20080E060E042E0DADEC7D1FF918E
:107B6000EF91BF91AF919F918F917F916F915F91B5
:107B70004F913F912F910F900FBE0F901F9018952E
:107B80009C014091CB015091CC014617570718F446
:107B9000F90190E044C06115710511F0AB01F8CF17
:107BA0008091E8008E778093E80040E050E0F0CFCD
:107BB0008EB3882309F444C0853009F443C0809112
:107BC000E80083FF02C081E008958091E80082FD13
:107BD00031C08091E80080FF22C08091F300909135
:107BE000F200782F60E0292F30E0262B372B07C0DA
:107BF00081918093F100415050402F5F3F4F4115DC
:107C0000510519F02830310598F390E028303105FE
:107C100009F491E08091E8008E778093E8004115A7
:107C2000510531F6992321F605C08EB3882341F022
:107C3000853041F08091E80082FFF7CF80E0089521
:107C400082E0089583E008959C016115710529F48F
:107C50008091E8008B778093E800F90126C08EB30D
:107C6000882391F1853091F18091E80083FF02C073
:107C700081E008958091E80082FFF1CF06C08091F5
:107C8000F10081936150704059F02091F300809190
:107C9000F200322F20E090E0822B932B892B79F792
:107CA0008091E8008B778093E80061157105B9F643
:107CB00005C08EB3882341F0853041F08091E80003
:107CC00080FFF7CF80E0089582E0089583E0089573
:107CD0000F931F93DF93CF9300D0CDB7DEB7E5ECC2
:107CE000F1E08091F100819381E0ED3CF807C9F764
:107CF0000ADD8091E80083FFE4C08091C501909186
:107D0000C601953009F46DC0963040F4913081F190
:107D1000913070F0933009F0D4C02AC0983009F443
:107D2000A3C0993009F4B2C0963009F0CAC07CC033
:107D3000803809F4C6C0823809F0C3C08091C901F7
:107D400087708093E9008091EB001092E900209108
:107D5000E800277F2093E80090E025E0969587953E
:107D60002A95E1F781708093F1001092F10087C0AD
:107D7000882319F0823009F0A4C08F71823009F095
:107D8000A0C08091C701882331F52091C9012770D7
:107D900009F497C02093E9008091EB0080FF1BC09D
:107DA000933021F48091EB00806213C08091EB004E
:107DB00080618093EB0081E090E002C0880F991F02
:107DC0002A95E2F78093EA001092EA008091EB0096
:107DD00088608093EB001092E9008091E800877F33
:107DE00051C0882309F06DC01091C7011F770FB7EC
:107DF000F8948091E800877F8093E8009CDD809173
:107E0000E80080FFFCCF8091E3008078812B809395
:107E1000E30080688093E300112311F482E001C045
:107E200083E08EBB0FBF4DC08058823008F049C040
:107E30008091C7019091C8016091C901AE014F5F67
:107E40005F4F38DDBC01009709F43BC08091E8002A
:107E5000877F8093E80089819A8192DE8091E80093
:107E60008B778093E8002DC0803859F58091E80029
:107E7000877F8093E8008091C3018093F100809117
:107E8000E8008E778093E80056DD1BC08823C9F494
:107E90009091C7019230A8F48091E800877F809389
:107EA000E8009093C30147DD8091C301882331F43A
:107EB0008091E30087FD02C081E001C084E08EBBB9
:107EC00052DC8091E80083FF0AC08091EB00806261
:107ED0008093EB008091E800877F8093E8000F900B
:107EE0000F90CF91DF911F910F91089508951F93E7
:107EF0008EB3882361F01091E9001092E90080911F
:107F0000E80083FF01C0E4DE17701093E9001F91C1
:107F10000895F999FECF92BD81BDF89A992780B551
:107F20000895262FF999FECF1FBA92BD81BD20BDBD
:107F30000FB6F894FA9AF99A0FBE01960895F8943C
:027F4000FFCF71
:107F42004341544552494E41007700080000000069
:107F52000000080112011001020000084F1B0392E9
:107F620001000201000109023E0002010080320903
:107F72000400000102020100052400100104240291
:107F8200040524060001070582030800FF09040115
:107F920000020A0000000705040210000107058321
:107FA20002100001040309041E03500072006F0056
:107FB20020004D006900630072006F002000330052
:107FC2002E003300560000002A03530070006100A7
:107FD20072006B00460075006E00200045006C00C8
:107FE20065006300740072006F006E006900630038
:047FF2007300000018
:040000030000700089
:00000001FF
