:100000000C94EA000C9412010C9412010C9412014D
:100010000C9412010C9412010C9412010C94120114
:100020000C9412010C9492020C9461100C94D31055
:100030000C9412010C9412010C9412010C941201F4
:100040000C9412010C9412010C9412010C941201E4
:100050000C94850D0C9412010C9412010C9448021E
:100060000C9412010C9429130C9403130C94120198
:100070000C9412010C9412010C9412010C941201B4
:100080000C9412010C9412010C9412010C941201A4
:100090000C9412010C9412010C9412010C94120194
:1000A0000C9412010C9412010C9412019F01A201F4
:1000B000910195019901C301C301C301A601AA01E0
:1000C000AE01B401B801C301BE017C3C3E5E2B3DD4
:1000D0003F2F5B5D3B2C2A225C00070605040100D4
:1000E000080A0B0C0D090000000200090F000003B4
:1000F0000401000C000000000000000000000000EF
:1001000000000000080B00020202010009040000C8
:100110000102020000052400100105240101010470
:10012000240206052406000107058103100040098A
:10013000040100020A000000070502024000000757
:100140000583024000000403090412010002EF02CB
:1001500001404F1B049200010102030153706172C0
:100160006B46756E00537061726B46756E205072EF
:100170006F204D6963726F000000000025002800A9
:100180002B002E00310000000000240027002A0070
:100190002D003000040404040403040502020202DA
:1001A0000403020202020606060606060404020210
:1001B00002040404080201104080401020408040E6
:1001C00080080204018040201002011080102040AD
:1001D0004020081A11241FBECFEFDAE0DEBFCDBFEA
:1001E00011E0A0E0B1E0E4E5F5E302C005900D9276
:1001F000A03DB107D9F725E0A0EDB1E001C01D9207
:10020000A236B207E1F710E0CAEED0E004C02197B1
:10021000FE010E94761AC93ED107C9F70E948A15CD
:100220000C94A81A0C9400003FB7F8948091DE015A
:100230009091DF01A091E001B091E10126B5A89B6A
:1002400005C02F3F19F00196A11DB11D3FBFBA2F68
:10025000A92F982F8827820F911DA11DB11DBC01C8
:10026000CD0143E0660F771F881F991F4A95D1F78C
:100270000895DC015996ED91FC915A973097B9F0A9
:1002800083899489A589B689428553856485758556
:10029000841B950BA60BB70B811520E89207A105CF
:1002A000B10538F08FEF9FE7A0E0B0E0089580E05F
:1002B00090E00895CF93DF931F92CDB7DEB76983A7
:1002C000DC01ED91FC910280F381E02D41E050E0F2
:1002D000BE016F5F7F4F09950F90DF91CF91089519
:1002E000089580E090E00895362F90E0FC01EA51F7
:1002F000FF4F4491FC01ED54FE4F2491FC01EC565C
:10030000FE4F8491882309F451C04423E1F150E069
:10031000FA013197EF30F105B0F5EA5AFF4F0C942E
:10032000761A909180009F7707C0909180009F7D02
:1003300003C090918000977F9093800024C094B573
:100340009F7702C094B59F7D94BD1DC09091900091
:100350009F7707C0909190009F7D03C0909190007F
:10036000977F909390000FC09091C0009F7703C03B
:100370009091C0009F7D9093C00005C09091C200F5
:10038000977F9093C200E82FF0E0EE0FFF1FE85830
:10039000FE4FA591B4918FB7F894EC91311103C041
:1003A00020952E2301C02E2B2C938FBF08958231D0
:1003B00008F08251E82FF0E0E652FF4FE49180917F
:1003C0007B00E3FB222720F930E095E0220F331F6A
:1003D0009A95E1F78F7D282B20937B00E770E064EE
:1003E000E0937C0080917A00806480937A00809111
:1003F0007A0086FDFCCF809178002091790090E012
:10040000922B08958F929F92AF92BF92CF92DF92DC
:10041000EF92FF926B017C010E9414014B015C0181
:10042000C114D104E104F104F1F00E941401DC01D3
:10043000CB0188199909AA09BB09883E9340A105F7
:10044000B10570F321E0C21AD108E108F10888EE85
:10045000880E83E0981EA11CB11CC114D104E104D4
:10046000F10419F7DDCFFF90EF90DF90CF90BF90B0
:10047000AF909F908F9008952FB7F8946091DA0114
:100480007091DB018091DC019091DD012FBF089517
:100490001F920F920FB60F9211242F933F938F93B9
:1004A0009F93AF93BF938091DA019091DB01A0916C
:1004B000DC01B091DD013091D90126E0230F2D3709
:1004C00020F40296A11DB11D05C029E8230F039653
:1004D000A11DB11D2093D9018093DA019093DB0116
:1004E000A093DC01B093DD018091DE019091DF01EA
:1004F000A091E001B091E1010196A11DB11D809391
:10050000DE019093DF01A093E001B093E101BF9180
:10051000AF919F918F913F912F910F900FBE0F90B0
:100520001F9018951F920F920FB60F9211240F90E3
:100530000FBE0F901F9018958FB7F8948091D1013E
:100540008FBF089561E0FC0184810E947401809155
:10055000D00181111092D00108958EBD00000DB41C
:1005600007FEFDCF8EB508958FEF0C94AD020F936B
:100570001F93CF93DF93EB010E943C028B010E94FB
:10058000B4028F3F49F00E943C02601B710B6C1754
:100590007D07A8F380E001C081E0DF91CF911F913A
:1005A0000F910895CF93DF93EC018E81882389F01A
:1005B0008F8198859C012F5F3F4F38872F83823032
:1005C000924018F40E94B402F3CFCE010E94A2021E
:1005D0001E82DF91CF9108958CBD9DBD0895CF936C
:1005E000DF93EC018091D001811109C081E08093FB
:1005F000D0018091E6049091E7040E94EC0260E053
:100600008C81DF91CF910C947401CF92DF92FF9295
:100610000F931F93CF93DF9300D000D0CDB7DEB7F9
:100620006C01F62E29833A834B835C830E94D202AD
:10063000C6010E94EF026CE271E0C6010E94B7029F
:100640008F2D80640E94AD0208E110E05C814B8137
:100650003A812981DA01C901002E04C0B695A79517
:10066000979587950A94D2F729833A834B835C83C5
:100670000E94AD020850110929813A814B815C81A9
:10068000083F8FEF180731F7FF2029F0E8E0FE124E
:1006900004C087E803C085E901C08FEF0E94AD0266
:1006A00010E00E94B402F601828787FF04C01F3F5A
:1006B00011F01F5FF6CF0F900F900F900F90DF910A
:1006C000CF911F910F91FF90DF90CF900895AF923F
:1006D000BF92CF92DF92EF92FF920F931F93CF932F
:1006E000DF93EC016901C801820F931F81309240B2
:1006F00008F070C08E81882371F088819981AA8169
:10070000BB81481759076A077B0729F48F819885B1
:10071000C816D906B0F5488359836A837B838B85D5
:10072000833039F089E0440F551F661F771F8A9583
:10073000D1F79A01AB0161E1CE010E940503882344
:1007400019F083E08D8346C00E943C025B010E9449
:10075000B4028A878F3F49F40E943C026A197B09E0
:100760006D327140A0F38FE003C08E3F31F08DE019
:100770008D83CE010E94A2022DC018861F8281E0C7
:100780008E838F8198858C159D0540F40E94B4025C
:100790008F819885019698878F83F3CF6701E00E4C
:1007A000F11ECE14DF0431F00E94B402F6018193F1
:1007B0006F01F7CF8F819885080F191F18870F8356
:1007C0008985882319F00115124048F0CE010E9456
:1007D000D20205C0CE010E94A20280E001C081E0E9
:1007E000DF91CF911F910F91FF90EF90DF90CF900D
:1007F000BF90AF900895EF92FF920F931F93CF9306
:10080000DF93EC017901411551056105710511F482
:1008100082E13CC08B85833039F089E0440F551F5D
:10082000661F771F8A95D1F79A01AB0168E1CE0167
:100830000E940503882311F084E028C08EEF0E94F7
:10084000AD0287018EEFF81AF80181918F010E94A5
:10085000AD020E151F05C1F78FEF0E94AD028FEF9D
:100860000E94AD020E94B4028A878F71853031F0F8
:1008700081E18D83CE010E94A20209C068E572E089
:10088000CE010E94B702811107C085E18D83CE01A0
:100890000E94A20280E013C020E030E0A9016DE0D8
:1008A000CE010E940503811104C00E94B402882376
:1008B00011F084E1EBCFCE010E94A20281E0DF9132
:1008C000CF911F910F91FF90EF9008958091D201E9
:1008D0008823A9F14091000150910101609102012A
:1008E0007091030127EF31E08091F7039091F803B5
:1008F0000E94FB03811102C080E008954091D30162
:100900005091D4016091D5017091D60141155105E6
:100910006105710591F027EF31E08091F703909127
:10092000F8030E94FB03882339F31092D30110923D
:10093000D4011092D5011092D6011092D20181E01B
:1009400008958F929F92AF92BF92EF92FF920F9372
:100950001F93CF934B015C01C42F809100019091B4
:100960000101A0910201B091030188159905AA0522
:10097000BB0501F10E946604811102C080E020C025
:1009800087EFE82E81E0F82E00E012E020E030E072
:10099000B501A4018091F7039091F8030E946703C9
:1009A000882361F38092000190920101A0920201DC
:1009B000B09203018091D201C82BC093D20181E093
:1009C000CF911F910F91FF90EF90BF90AF909F90AC
:1009D0008F9008954F925F926F927F928F929F9225
:1009E000AF92BF92CF92DF92EF92FF920F931F933D
:1009F000CF93DF93EC016A017B012801390142307A
:100A000051056105710510F480E073C089859A85F0
:100A1000AB85BC850196A11DB11D84179507A6075E
:100A2000B70790F38B889C88AD88BE888F8980310A
:100A300029F4BB27AF2D9E2D8D2D09C0DB01CA01E6
:100A400047E0B695A795979587954A95D1F7880E73
:100A5000991EAA1EBB1E8091000190910101A091D8
:100A60000201B091030188169906AA06BB0679F423
:100A70008F898031A1F4DD24EE24FF24C601880F84
:100A8000991FFC01E950FE4F5182408219C040E09D
:100A9000C501B4010E94A1048111EACFB5CFE89449
:100AA000C7F8DD24EE24FF24C601880F991F880FA4
:100AB000991FFC01E950FE4F40825182628273828D
:100AC0008091D20181608093D2018A89823080F046
:100AD0008D819E81AF81B885880E991EAA1EBB1E8E
:100AE0008092D3019092D401A092D501B092D60108
:100AF00081E0DF91CF911F910F91FF90EF90DF90F8
:100B0000CF90BF90AF909F908F907F906F905F90AD
:100B10004F9008958F929F92AF92BF92CF92DF92A3
:100B2000EF92FF920F931F93CF93DF93FC01818588
:100B30009285A385B4850196A11DB11D84179507E3
:100B4000A607B70710F480E05CC083899489A58963
:100B5000B689C789C03129F4852E962EA72EBB24CD
:100B600009C04A015B01C7E0B694A79497948794A3
:100B7000CA95D1F7E9016A017B018F01BC01CD0162
:100B8000680D791D8A1D9B1D8090000190900101C8
:100B9000A0900201B0900301681579058A059B05B4
:100BA00099F4F80187898031A9F4B701A601552786
:100BB00066277727440F551FFA01E950FE4F8081C1
:100BC0009181A0E0B0E018C040E00E94A104811132
:100BD000E8CFB9CFB701A6014F775527662777270A
:100BE000440F551F440F551FFA01E950FE4F8081F5
:100BF0009181A281B381BF7088839983AA83BB83CB
:100C000081E0DF91CF911F910F91FF90EF90DF90E6
:100C1000CF90BF90AF909F908F9008954F925F922A
:100C20006F927F92AF92BF92CF92DF92EF92FF923C
:100C30000F931F93CF93DF9300D000D0CDB7DEB7D3
:100C40008C0149835A836B837C835901C12CD12C3D
:100C50007601412C82E0582E612C712C49815A81F9
:100C60006B817C819E012F5F3F4FC8010E948A05E6
:100C7000882351F1D301C201F801058404C0880F13
:100C8000991FAA1FBB1F0A94D2F7C80ED91EEA1ECD
:100C9000FB1E49815A816B817C818789803129F0D3
:100CA00088EF9FEFAFEFBFE004C088EF9FEFA0E0B9
:100CB000B0E0481759076A077B0780F2F501C08248
:100CC000D182E282F38281E00F900F900F900F901B
:100CD000DF91CF911F910F91FF90EF90DF90CF9018
:100CE000BF90AF907F906F905F904F9008951F934B
:100CF000CF93DF93EC0180E2689FF00111249F0104
:100D000029503E4FD9011B969C91917129F0842F57
:100D1000827411F080E058C0142F6A8B809100011A
:100D200090910101A0910201B09103018E879F87EC
:100D3000A88BB98BE950FE4F4489558960E070E07B
:100D4000BA01552744274F8B588F698F7A8F828D30
:100D5000938DA0E0B0E0482B592B6A2B7B2B4F8B57
:100D6000588F698F7A8FD9011B968C91887151F4B5
:100D7000848D958DA68DB78D8B8B9C8BAD8BBE8B0B
:100D800081E00DC0803131F69E012D5E3F4F8B8D8D
:100D90009C8D0E940E06882309F4BCCF84E08D83CD
:100DA000812F8F708C831E821F82188619861A8667
:100DB0001B861C861D8616FF06C0CE01DF91CF91D3
:100DC0001F910C94601381E0DF91CF911F910895E2
:100DD0008F929F92AF92BF92CF92DF92EF92FF924B
:100DE0000F931F93CF93DF93EC018D81811102C08C
:100DF00080E077C00B891C892D893E89041715076F
:100E000026073707A8F36A017B01823029F4CA86D6
:100E1000DB86EC86FD860DC0C114D104E104F1042B
:100E200051F41E821F82188619861A861B861C861C
:100E30001D8681E056C08A849B84AC84BD84EB8D82
:100E4000FC8D258530E0275F3F4FB501A40141505F
:100E5000510961097109022E04C07695679557956D
:100E600047950A94D2F7D701C6010197A109B109A4
:100E700004C0B695A795979587952A95D2F78417BC
:100E80009507A607B70720F089288A288B2849F4F8
:100E90004F89588D698D7A8D4E835F8368877987F6
:100EA00004C0841B950BA60BB70B4C015D018E0192
:100EB0000A5F1F4F81149104A104B10409F4A7CF64
:100EC0004E815F816885798598018B8D9C8D0E940C
:100ED0008A0591E0891A9108A108B1088111EACF29
:100EE00087CFDF91CF911F910F91FF90EF90DF900F
:100EF000CF90BF90AF909F908F9008953F924F9268
:100F00005F926F927F928F929F92AF92BF92CF9299
:100F1000DF92EF92FF920F931F93CF93DF93CDB7A2
:100F2000DEB72C970FB6F894DEBF0FBECDBF5C01C5
:100F3000DC015B968D909C905C971696CD90DD9031
:100F4000ED90FC901997C114D104E104F10439F03B
:100F5000BFEFCB1ADB0AEB0AFB0A312C07C0F40106
:100F6000C080D180E280F38033243394F401818502
:100F70009285A385B4859C01AD012F5F3F4F4F4FF4
:100F80005F4F29873A874B875C87260137011D828F
:100F90001E821F821886F40181859285A385B485FF
:100FA0002D813E814F815885281739074A075B07F5
:100FB00008F063C089859A85AB85BC858C159D0535
:100FC000AE05BF0550F482E0C82ED12CE12CF12CE7
:100FD00092E0492E512C612C712C9E012F5F3F4FC6
:100FE000B701A601C4010E948A05882309F445C0FF
:100FF00089819A81AB81BC81892B8A2B8B2B41F013
:10100000260137019FEF491A590A690A790A05C072
:10101000C414D504E604F70491F02D813E814F817C
:1010200058852F5F3F4F4F4F5F4F2D833E834F8338
:1010300058873FEFC31AD30AE30AF30AACCF0FEF86
:101040001FEF2FEF3FE0B301A201C4010E94EA04A9
:10105000882399F0D50116964D915D916D917C9103
:101060001997411551056105710549F093018201F8
:10107000C4010E94EA04811102C080E02AC0D501A7
:1010800016964D925D926D927C921997332051F095
:10109000D301C2010196A11DB11DF401808391838A
:1010A000A283B383F5018789908DA18DB28D892BA1
:1010B0008A2B8B2B69F4D50157964D925D926D92D8
:1010C0007C925A9714968C911497806814968C93FE
:1010D00081E02C960FB6F894DEBF0FBECDBFDF9136
:1010E000CF911F910F91FF90EF90DF90CF90BF9025
:1010F000AF909F908F907F906F905F904F903F90B8
:1011000008952F923F924F925F926F927F928F92AB
:101110009F92AF92BF92CF92DF92EF92FF920F9386
:101120001F93CF93DF9300D0CDB7DEB7FC0185814D
:10113000882309F4D9C0848180FFD6C021E02A83A6
:10114000438954896589768982859385A485B58587
:10115000481759076A077B0709F41A826F013A8119
:10116000832F90E0DE0111964D013F01B6E06B0E3A
:10117000711C892B09F47DC0D6011A964D915D91A1
:101180006D917C911D975A01B1E0BB22F60125813A
:101190001A012B0189E056944794379427948A9535
:1011A000D1F7838D948D223061F4FC01828D938D73
:1011B000A48DB58DBC01CD01620D731D841D951DDF
:1011C00045C0DC0114961C9111501221A114B104E8
:1011D000D1F4111118C0452B462B472B51F4F601C1
:1011E0008789908DA18DB28D86839783A087B187E3
:1011F0000AC0468157816085718593010E948A05E6
:10120000882309F471C0F601238D348D868197817E
:10121000A085B1850297A109B109AC01BD01F90111
:10122000058404C0440F551F661F771F0A94D2F728
:1012300086859785A089B189840F951FA61FB71F42
:10124000BC01CD01610F711D811D911DD601149648
:101250002C9126FF14C000910001109101012091F2
:10126000020130910301601771078207930751F55E
:1012700006C0FA81FF23C1F1898190E037C040E0C8
:101280000E94A104882381F1F501E950FE4FD401A9
:10129000CF010196E817F90719F021912D93FACFA4
:1012A000EFEF8E1A9E0AF60182859385A485B58597
:1012B0000196A11DB11D82879387A487B58780E021
:1012C00090E057CF740101E010E09501AB01BC0143
:1012D0008091F7039091F8030E946703882321F01F
:1012E000BFEF8B1A9B0ADFCF8FEF9FEF0F900F900E
:1012F000DF91CF911F910F91FF90EF90DF90CF90F2
:10130000BF90AF909F908F907F906F905F904F9025
:101310003F902F900895FC01818D928D009711F0E0
:101320000C9481088FEF9FEF08950F931F93CF9335
:10133000DF93FC01818D928D0097B9F0EF010E943F
:1013400081088C010F3F8FEF180791F0898D9A8DDE
:10135000FC014285538564857585415051096109B9
:1013600071090E94E806C80105C080E090E002C053
:101370008FEF9FEFDF91CF911F910F9108954F92C3
:101380005F926F927F92AF92BF92CF92DF92EF9275
:10139000FF920F931F93CF93DF93CDB7DEB72B97B9
:1013A0000FB6F894DEBF0FBECDBF7C01CE01019613
:1013B0006C01FC0190E28BE08C0D91938E13FDCFBC
:1013C000DA0130E047E09D91992339F19E3219F01E
:1013D000EAECF0E00AC04A3009F472C138E04AE0B1
:1013E000F2CF3196891709F46BC184918111F9CF3D
:1013F000431708F465C18FED890F8E3508F060C181
:1014000081E0830FF601E30FF11D3FE9390F3A3117
:1014100008F490529083382FD6CF8981803209F416
:101420004FC1B22E8B01DB015B968D919C915C9735
:10143000F701948F838F16961D921D921D921C9218
:101440001997FB011286138614861586712CF801F4
:1014500082859385A485B585438954896589768974
:1014600084179507A607B70708F061C025E0B69571
:10147000A795979587952A95D1F7F82FFF706F2E2E
:10148000D80115968C91823008F41AC1C8010E94C7
:10149000810897FD15C1F80182859385A485B585DE
:1014A0004F96A11DB11D82879387A487B587F0E26F
:1014B0006F9EC0011124BC0169507E4F61157105FA
:1014C00009F4FEC0DB012C91222319F0253EC1F462
:1014D00027C071100EC0F701628A4091000150913F
:1014E0000101609102017091030146875787608B6B
:1014F000718BFC01E950FE4F8081811113C015C032
:101500004BE050E0C6010E949B1A892B09F09FCF47
:101510008B2D8073803309F4D3C04B2D662DCCC046
:101520007720C9F27724739492CF772473948B2D0C
:101530008271823109F0C4C07720D1F0D7011E96A4
:101540006D917D918D919C91519741E00E94A104F4
:10155000882309F4B5C0F7016289F0E26F9FB001FA
:10156000112469507E4F6115710509F079C0A8C03A
:10157000D80115968C91823009F4A2C0C8010E944E
:101580007E07882309F49CC0D8015B96ED91FC91FD
:101590005C9716964D905D906D907C901997B2E097
:1015A0004B1A510861087108058404C0440C551C8D
:1015B000661C771C0A94D2F786859785A089B18925
:1015C000480E591E6A1E7B1EA480E1E04E1A510887
:1015D00061087108AA2009F10E946604882309F4B1
:1015E0006FC0E7EFF1E0119223E0E73FF207D9F790
:1015F000D301C2018A0D911DA11DB11D809300016F
:1016000090930101A0930201B09303018091D20154
:1016100081608093D201AA94DDCFD8015B96ED91D1
:10162000FC915C9780E092E0A0E0B0E0058404C00B
:10163000880F991FAA1FBB1F0A94D2F7F80143898C
:10164000548965897689840F951FA61FB71F838BE0
:10165000948BA58BB68BD70152961C9267EF71E0E5
:1016600080E2FB0111928A95E9F78BE0F601DB013C
:1016700001900D928A95E1F781E298E2DB015196A3
:101680009C938E93509720E038E01F963C932E93C6
:101690001E9753969C938E93529759969C938E9334
:1016A000589757963C932E9356970E94660488232A
:1016B00039F04B2DF7016289C7010E94770601C0FE
:1016C00080E02B960FB6F894DEBF0FBECDBFDF9142
:1016D000CF911F910F91FF90EF90DF90CF90BF902F
:1016E000AF907F906F905F904F900895CF93DF936E
:1016F000EC018D818823A1F18C8187FF2DC06E853F
:101700007F858889998941E00E94A104882341F15D
:10171000EA8980E2E89FF0011124DF01A950BE4F61
:101720001097F1F08D81823050F44B895C896D897E
:101730007E895C964D935D936D937C935F978F89C3
:10174000988DA98DBA8DE950FE4F938F828FB58BFE
:10175000A48B8C818F778C83DF91CF910C9466045E
:1017600080E0DF91CF910895CF93DF93EC010E9449
:10177000760B882311F01D8281E0DF91CF910895CF
:10178000FC01818D928D009711F00C94760B0895D9
:101790002F923F924F925F926F927F928F929F9281
:1017A000AF92BF92CF92DF92EF92FF920F931F936F
:1017B000CF93DF9300D000D0CDB7DEB78C015B01B3
:1017C0001A01DC0115968C9115978130C9F4149695
:1017D0008C9181FF15C082FF1BC0F8014389548999
:1017E0006589768982859385A485B5858417950753
:1017F000A607B70769F0C8010E94E806811108C072
:1018000081E090E0F8019383828380E090E039C129
:10181000610183C0D8015B968D919C915C97FC011E
:10182000248121502A013B0139E076946794579432
:1018300047943A95D1F7722E74207A01F1E0FF2295
:10184000772009F476C080E092E08E199F09460166
:101850008C159D0508F44C01D8015B962D913C91A7
:101860005C9716968D919D910D90BC91A02D02973D
:10187000A109B109F901058404C0880F991FAA1FA5
:10188000BB1F0A94D2F74685578560897189840FFA
:10189000951FA61FB71F9C01AD01270D311D411DCE
:1018A000511D29013A01811432E0930609F088C0E4
:1018B0008091000190910101A0910201B09103017A
:1018C00084159505A605B70559F48FEF9FEFDC0148
:1018D0008093000190930101A0930201B093030152
:1018E0009501B301A2018091F7039091F8030E9442
:1018F000FB03882309F484CF9EEFB91AC818D908CE
:10190000F80182859385A485B585880D991DA11D53
:10191000B11D82879387A487B587D8011A964D9108
:101920005D916D917C911D97C114D10409F072CF26
:1019300087C0E114F10409F086CF16964D915D91B0
:101940006D917C911997411551056105710559F407
:1019500057968D919D910D90BC91A02D0097A1055A
:10196000B10541F521C09E012F5F3F4F0E948A05BE
:10197000882309F44BCF89819A81AB81BC81F8011E
:10198000238D348DF9012789203129F048EF5FEF4D
:101990006FEF7FE004C048EF5FEF60E070E0841716
:1019A0009507A607B70730F0C8010E947E0781118E
:1019B0004ACF26CFF80186839783A087B18743CF8C
:1019C000E114F10429F5D8011A964D915D916D91BC
:1019D0007C911D9753968D919D910D90BC91A02D5A
:1019E000481759076A077B0798F00E946604882306
:1019F00009F406CF40920001509201016092020169
:101A0000709203018091D20181608093D20108C05D
:101A100041E0C301B2010E94A104882309F4F0CE81
:101A2000D501F701E950FE4FCF01880D991DE81748
:101A3000F90719F02D912193FACFA80CB91C5ECFAC
:101A400053968D919D910D90BC91A02D8417950773
:101A5000A607B70740F4F801438B548B658B768B50
:101A6000848180688483D80114968C9183FD02C0A0
:101A7000C10107C0C8010E94760B882309F4C0CEBB
:101A8000F7CF0F900F900F900F90DF91CF911F9194
:101A90000F91FF90EF90DF90CF90BF90AF909F900D
:101AA0008F907F906F905F904F903F902F90089510
:101AB000CF93DF931F92CDB7DEB7698341E050E04B
:101AC000BE016F5F7F4F0E94C80B0F90DF91CF91D7
:101AD0000895CF93DF93EC01898D9A8D009739F4A7
:101AE00081E090E09B838A8380E090E00BC0FC0162
:101AF000138212820E94C80BE98DFA8D22813381F4
:101B0000232B71F7DF91CF9108951F920F920FB69B
:101B10000F9211242F933F934F935F936F937F9373
:101B20008F939F93AF93BF93EF93FF93E0E0F0E029
:101B30000995FF91EF91BF91AF919F918F917F9107
:101B40006F915F914F913F912F910F900FBE0F902A
:101B50001F9018956115710579F0FB010190002027
:101B6000E9F73197AF01461B570BDC01ED91FC9172
:101B70000280F381E02D099480E090E008950E94B6
:101B8000961A4091F2015091F3012091F0013091A9
:101B9000F10142175307B4F49091E8009570E1F316
:101BA0009091E80092FD19C08093F1008091F201BC
:101BB0009091F30101968F739927892B19F48EEF79
:101BC0008093E8008091F2019091F3010196909347
:101BD000F3018093F20181E0089580E00895DF929F
:101BE000EF92FF920F931F93CF93DF93D82E8A012A
:101BF0007B01E40EF51EEB01CE15DF0571F0D7FE7B
:101C000003C0FE01849101C088810E94C10D21960C
:101C10008111F2CF8FEF9FEF01C0C801DF91CF910B
:101C20001F910F91FF90EF90DF900895615030F079
:101C30002091F100FC0120830196F8CF289884E6DA
:101C40008093F5010895CF92DF92EF92FF920F9368
:101C50001F93CF93DF936C017A018B01C0E0D0E03A
:101C6000CE15DF0589F0D8016D918D01D601ED917A
:101C7000FC910190F081E02DC6010995892B11F4AA
:101C80007E0102C02196ECCFC701DF91CF911F9159
:101C90000F91FF90EF90DF90CF900895FC01538D4E
:101CA000448D252F30E0842F90E0821B930B541736
:101CB00010F0CF96089501970895FC01918D828DC3
:101CC000981761F0828DDF01A80FB11D5D968C9190
:101CD000928D9F5F9F73928F90E008958FEF9FEF9B
:101CE0000895FC01918D828D981731F0828DE80F57
:101CF000F11D858D90E008958FEF9FEF0895FC0111
:101D0000918D228D892F90E0805C9F4F821B9109DD
:101D10008F739927089589EF93E00E947F0E21E049
:101D2000892B09F420E0822F0895FC01848DDF01C6
:101D3000A80FB11DA35ABF4F2C91848D90E001963E
:101D40008F739927848FA689B7892C93A089B1892D
:101D50008C9180648C93938D848D981306C0028837
:101D6000F389E02D80818F7D80830895EF92FF922B
:101D70000F931F93CF93DF93EC0181E0888F9B8DAE
:101D80008C8D981305C0E889F989808185FD24C070
:101D9000F62E0B8D10E00F5F1F4F0F731127E02EF3
:101DA0008C8DE8120CC00FB607FCFACFE889F989D0
:101DB000808185FFF5CFCE010E94950EF1CF8B8DEE
:101DC000FE01E80FF11DE35AFF4FF0820B8FEA8905
:101DD000FB898081806207C0EE89FF896083E88982
:101DE000F98980818064808381E090E0DF91CF91E8
:101DF0001F910F91FF90EF900895CF93DF93EC0127
:101E0000888D8823C9F0EA89FB89808185FD05C01A
:101E1000A889B9898C9186FD0FC00FB607FCF5CF54
:101E2000808185FFF2CFA889B9898C9185FFEDCF9C
:101E3000CE010E94950EE7CFDF91CF91089580E00B
:101E400090E0892B29F00E948B0E81110C940000E8
:101E50000895CF93DF931F92CDB7DEB76983DC017E
:101E6000ED91FC910280F381E02D41E050E0BE0154
:101E70006F5F7F4F09950F90DF91CF91089583E0B9
:101E80008093E9008091F200882319F08AE380931F
:101E9000E8000895FC018485958597FD0BC09FB7E8
:101EA000F89482E08093E9008091F2009FBF90E077
:101EB000019608959FB7F89482E08093E90080919D
:101EC000F2009FBF90E008950F931F93CF93DF938D
:101ED0001F92CDB7DEB782E0898342E450E064E030
:101EE00071E080E80E94EF0D0E947615DC011296E9
:101EF0000D911C9113970115110569F0D801ED9111
:101F0000FC910280F381E02DBE016F5F7F4FC8011D
:101F1000099597FF07C089810F90DF91CF911F919D
:101F20000F910895F80100851185E5CF8F929F925A
:101F3000AF92BF92CF92DF92EF92FF920F931F93D7
:101F4000CF93DF935C016B017A0180910F018823AD
:101F500009F45BC08091F601882309F456C0809192
:101F6000E30180FF05C08091E00082608093E00083
:101F7000E70110E00AEF83E0882E9AE3992E20977C
:101F8000D9F10E94651581110AC0015009F43DC0C4
:101F900061E070E080E090E00E940202F0CF282F24
:101FA00030E0C217D3070CF48C2F4FB7F89480920F
:101FB000E9009091E80095FF1DC0282F30E0C21B7A
:101FC000D30BF601982F915020F081918093F1006E
:101FD000FACFC20ED31E112319F09092E80009C067
:101FE0008091E80085FD06C09092E80011E02097FE
:101FF00009F010E04FBFC3CF1111C3CF5D9884E645
:102000008093F4011E141F0444F081E090E0F50178
:102010009383828380E090E001C0C701DF91CF917C
:102020001F910F91FF90EF90DF90CF90BF90AF90F6
:102030009F908F9008950E94651590E008950F93EA
:102040001F93CF93DF931F92CDB7DEB78C01FC01B6
:102050008485958597FF0EC0CE0101960E943B15A1
:10206000019719F4298130E002C02FEF3FEFF8010A
:1020700035872487F801848595850F90DF91CF916E
:102080001F910F910895CF93DF931F92CDB7DEB7C5
:10209000FC018485958597FD05C02FEF3FEF3587BF
:1020A00024870BC0CE0101960E943B15019719F4BD
:1020B000898190E002C08FEF9FEF0F90DF91CF9169
:1020C00008951F920F920FB60F9211248F939F9332
:1020D0008091E1009091E100937F9093E10083FF74
:1020E0000FC01092E90091E09093EB001092EC0089
:1020F00092E39093ED001092F60198E09093F00037
:1021000082FF20C093E09093E9009091F200992320
:1021100019F09AE39093E8009091F401992339F033
:102120009091F40191509093F401992389F1909149
:10213000F501992339F09091F50191509093F501B3
:10214000992341F184FF10C08091E2008E7E81606E
:102150008093E2008091E1008F7E8093E100809186
:10216000E3018E7E806111C080FF16C08091E20085
:102170008E7E80618093E2008091E1008E7E80936C
:10218000E1008091E3018E7E81608093E30104C0D1
:102190005D9ACDCF289AD6CF9F918F910F900FBE89
:1021A0000F901F9018951F920F920FB60F92112447
:1021B000CF92DF92EF92FF920F931F932F933F9353
:1021C0004F935F936F937F938F939F93AF93BF933F
:1021D000EF93FF93CF93DF93CDB7DEB76C97DEBF5E
:1021E000CDBF1092E9008091E80083FFEDC168E067
:1021F000CE0145960E94160E82EF8093E8008D89ED
:1022000087FF05C09091E80090FFFCCF03C09EEFD0
:102210009093E800982F907609F0C6C09E892F8988
:10222000188D91110CC0803829F48091E4018093BD
:10223000F10002C01092F1001092F10048C1422F4B
:1022400050E0512B913051F4811141C14130510581
:1022500009F03DC18091E4018D7F0BC0933061F4A2
:10226000811135C14130510509F031C18091E4013E
:1022700082608093E4012BC1953041F48091E800A5
:1022800080FFFCCF20682093E30021C1963009F045
:102290005FC0EB8CFC8C1092E9001092F30110925D
:1022A000F201123091F51092F1011092F0010E94AA
:1022B000640F99E0BE016F5F7F4FDB01E92F1D9234
:1022C000EA95E9F799831A8391E09E8390EA9887CB
:1022D0009AEF99872091F2013091F301275F3F4FE8
:1022E0003C832B838D831092E9001092F3011092AE
:1022F000F201F092F101E092F00149E050E080E05B
:102300000E94EF0D0E94640FE2C0F092F101E09292
:10231000F0010E947615DC011296ED90FC90139767
:10232000E114F10409F4C0C0D701ED91FC910480DF
:10233000F581E02DBE016B5E7F4FC70109950097C7
:1023400019F00CF0C4C0C7C0F701E084F184E8CFF5
:10235000973009F4C0C0983021F481E08093F100F7
:10236000B6C0993009F0B3C0837009F0B4C0E1E1A0
:10237000F1E081E021E036E39081992361F08093E0
:10238000E9002093EB0091919093EC003093ED00E5
:102390008F5F873089F78EE78093EA001092EA001A
:1023A0008F898093F60193C08B8D9C8D1092E900EC
:1023B0001092F3011092F2019093F1018093F001D9
:1023C000898D811156C08E899D89913A59F4813247
:1023D00009F081C047E050E068E071E080E00E94D1
:1023E000EF0D75C0913209F076C0833289F4888D83
:1023F00090E0982F88272F89822BA0E0B0E080936F
:10240000040190930501A0930601B09307015FC0FA
:10241000803269F48091E80082FFFCCF67E088E0B9
:1024200091E00E94160E8BEF8093E80006C0823286
:1024300009F04DC08F8980930F018091E2018823BC
:1024400019F0EEEFFAE002C0E0E0F8E08091080158
:1024500090910901A0910A01B0910B01803B944039
:10246000A105B10509F07BC080910F0180FF93C0E9
:1024700076C00E947615DC0112960D911C9113977F
:102480000115110541F1D801ED91FC910190F08108
:10249000E02DBE016B5E7F4FC8010995811117C009
:1024A000F80100851185ECCF113009F44EC01330CE
:1024B00091F48F89882309F445C0823081F440E883
:1024C00062E185E691E00E94CB19882321F08EEF2E
:1024D0008093E80079C081E28093EB0075C0813081
:1024E00029F440E868E08CE591E0EDCF833099F77E
:1024F0000E947615DC011296ED90FC9013978E01E8
:102500000F5F1F4F6801E114F10479F0D701ED91DD
:10251000FC910680F781E02DB801C7010995080FED
:10252000111DF701E084F184EECFD8011C92F60171
:1025300001900020E9F73197BF016C197D0940E057
:10254000C601C1CF66E471E002C06AE471E06115C2
:10255000710509F2FB01449150E080E840CF0FB6CD
:10256000F894A89580916000886180936000109233
:1025700060000FBEA895EE3F2AE0F20739F0809187
:10258000FE0A9091FF0A91838083A1CF1092FF0AE7
:102590001092FE0A9CCFEE3F8AE0F80731F080816E
:1025A00091819093FF0A8093FE0A87E797E79183D2
:1025B00080839BE088E10FB6F894A8958093600033
:1025C0000FBE9093600083CF6C960FB6F894DEBF79
:1025D0000FBECDBFDF91CF91FF91EF91BF91AF9132
:1025E0009F918F917F916F915F914F913F912F912B
:1025F0001F910F91FF90EF90DF90CF900F900FBE43
:102600000F901F9018951F920F920FB60F921124E2
:102610002F933F934F935F936F937F938F939F93EA
:10262000AF93BF93EF93FF9389EF93E00E94950ED2
:10263000FF91EF91BF91AF919F918F917F916F919A
:102640005F914F913F912F910F900FBE0F901F9070
:1026500018951F920F920FB60F9211242F938F93FC
:102660009F93EF93FF93E0910904F0910A04808116
:10267000E0910F04F091100482FD12C090818091CE
:1026800012048F5F8F7320911304821751F0E09131
:102690001204F0E0E750FC4F958F8093120401C0C4
:1026A0008081FF91EF919F918F912F910F900FBE9D
:1026B0000F901F901895682F89EF93E00C94B60E39
:1026C0008F929F92AF92BF92CF92DF92EF92FF9242
:1026D0000F931F93CF93DF9300D000D0CDB7DEB719
:1026E000FC018581813079F5948191FF2CC043896B
:1026F000548965897689452B462B472B09F45CC0A4
:102700007F0140E050E0BA01CF010E94E806882333
:10271000D1F0F7018788908CA18CB28CC38CD48CBB
:1027200082E090E0A0E0B0E0F60180839183A28394
:10273000B3839E012F5F3F4FB501A401C6010E94E4
:102740008A05811102C080E037C000E010E09801E6
:10275000B501A401C6010E94EA048823A1F389807F
:102760009A80AB80BC80F6018789803129F088EFA0
:102770009FEFAFEFBFE004C088EF9FEFA0E0B0E0B5
:1027800088169906AA06BB06A0F2F701178A108ED2
:10279000118E128E138A148A158A168A8481806893
:1027A0008483C7010E94760B882369F240E050E0E1
:1027B000BA01C7010E94E8060F900F900F900F908A
:1027C000DF91CF911F910F91FF90EF90DF90CF900D
:1027D000BF90AF909F908F9008958F929F92AF92ED
:1027E000BF92CF92DF92EF92FF92CF93DF93C82FE9
:1027F00088EE94E09093F8038093F703CC2369F17B
:10280000C53010F080E00DC140E060E070E0CB0129
:102810000E94A1048823B1F320E1C29FC0011124CA
:1028200089519E4FFC01E254FE4F20812F7751F7D2
:102830003C96408151816281738144365105610526
:10284000710500F33497C080D180E280F380C11419
:10285000D104E104F10421F4D5CFC12CD12C7601AF
:1028600040E0C701B6010E94A104882359F280917B
:102870000202909103028115924021F6A091070275
:10288000AA2309F4BFCF6091050270910602611579
:10289000710509F4B7CF20910402222309F4B2CFC5
:1028A000A09306052093F80480E030E0E1E0F0E03A
:1028B000C82FAF01082E02C0440F551F0A94E2F73B
:1028C0002417350741F0982F8F5F983089F789E0FA
:1028D0008093010597CF8093010520910D023091DF
:1028E0000E022115310519F040E050E008C020919A
:1028F0001B0230911C0240911D0250911E02209338
:10290000F9043093FA044093FB045093FC0446010D
:102910005701860E971EA11CB11C8092070590924C
:102920000805A0920905B0920A05E0910802F0910D
:102930000902F0930D05E0930C05B0E00E947C1AAB
:10294000860E971EA81EB91E80920E0590920F0546
:10295000A0921005B092110585E0EE0FFF1F8A9539
:10296000E1F7E150FE4FEF2FFF27E6958E0E9F1EF9
:10297000A11CB11C8092020590920305A09204054F
:10298000B092050520910A0230910B022115310504
:1029900021F0A90160E070E008C040911702509159
:1029A00018026091190270911A02D701C6018819A4
:1029B0009909AA09BB09840F951FA61FB71F04C058
:1029C000B695A79597958795CA95D2F78093FD04FC
:1029D0009093FE04A093FF04B0930005853F2FE081
:1029E0009207A105B10510F48CE018C0853F9F4FF8
:1029F000A105B10510F480E111C0809123029091EE
:102A00002402A0912502B091260280930E05909396
:102A10000F05A0931005B093110580E280930B057C
:102A200081E0DF91CF91FF90EF90DF90CF90BF904A
:102A3000AF909F908F90089590E0FC01ED54FE4F71
:102A40002491FC01EC56FE4F8491882399F090E08C
:102A5000880F991FFC01EA57FE4FA591B491FC0124
:102A6000E858FE4F859194918FB7F894EC91E22B42
:102A7000EC938FBF0895FC018091F601811103C092
:102A80008FEF9FEF08959FB7F89482E08093E9005D
:102A90002091F20030E01216130614F421E030E029
:102AA0002115310559F0289884E68093F50180912D
:102AB000F10080838091F200882319F09FBFC90143
:102AC00008958BE68093E800F9CF2FB7F89483E060
:102AD0008093E9009091E800892F807295FF04C0EF
:102AE0009091F20080E4891B2FBF089580913F05EB
:102AF00081110DC082E080933B0584E080933C050A
:102B000010923E0510923D0581E080933F058BE3D6
:102B100095E00895CF93DF93CDB7DEB7C456D109C2
:102B20000FB6F894DEBF0FBECDBF789484B5826037
:102B300084BD84B5816084BD85B5826085BD85B561
:102B4000816085BD80916E00816080936E001092DF
:102B5000810080918100826080938100809181005A
:102B600081608093810080918000816080938000EB
:102B700080919100826080939100809191008160AA
:102B8000809391008091900081608093900080916B
:102B9000C10084608093C1008091C10082608093F5
:102BA000C1008091C10081608093C1008091C30009
:102BB00081608093C3008091C00082608093C000D8
:102BC0008091C20081608093C20080917A0084600D
:102BD00080937A0080917A00826080937A0080915D
:102BE0007A008E7F80937A0080917A00806880934B
:102BF0007A001092F6011092E4011092E3018091A4
:102C0000D70081608093D70080EA8093D80089B58F
:102C10008F7E89BD89B5826089BD09B400FEFDCF74
:102C200061E070E080E090E00E9402028091D800B4
:102C30008F7C80618093D8008091E000807F8093BA
:102C4000E0008091E1008E7E8093E1008DE0809332
:102C5000E200559A209AEEEFFFE7859194918B3F21
:102C60009C4D19F481E08093E20168EE73E080E00E
:102C700090E00E940202E0910904F0910A0482E0CF
:102C80008083E0910504F09106041082E09107042E
:102C9000F091080483E3808310921104E0910D0405
:102CA000F0910E0486E08083E0910B04F0910C0417
:102CB000808180618083E0910B04F0910C0480811D
:102CC00088608083E0910B04F0910C04808180681F
:102CD0008083E0910B04F0910C0480818F7D8083D0
:102CE00068EE73E080E090E00E94020210913205ED
:102CF0001230F9F4809131058330D9F481E080936A
:102D00003A0561E082E00E94740161E083E00E9484
:102D100074018091B9008E7F8093B9008091B900D1
:102D20008D7F8093B9001093B80085E08093BC003C
:102D300006C010923A05809131050E941C1568EE7C
:102D400073E080E090E00E94020265E671E089EFA6
:102D500093E00E94AA0D80917A008F7780937A0089
:102D600080917C008E7F80937C0080917C008D7FA1
:102D700080937C0080917C00846080937C008091B3
:102D80007A00806880937A0080917A0080648093D2
:102D90007A0080917A0086FDFCCF6EE671E089EFC3
:102DA00093E00E94AA0D8FEF9FEF9093A30480936E
:102DB000A20463E771E086E994E00E94AA0D1092F4
:102DC000F3041092F1041092EE041092ED0481E1EC
:102DD0008093EC040E943C028B018091EC040E94E1
:102DE0001C1561E08091EC040E947401FFB6F89418
:102DF0008091E501811124C0E5EAF1E08491E4ECE1
:102E0000F1E09491E82FF0E0EE0FFF1FEA57FE4F3C
:102E1000A591B491EC91E92321F461E081E10E9454
:102E2000740181E10E941C158CB580618CBD8CB54C
:102E300080648CBD8FE00E941C1580E10E941C15EF
:102E40008091E5018F5F8093E501FFBE82E580936D
:102E5000E60481E08093E7048091E6049091E70422
:102E60000E94EC025AE0F52E8FEF0E94AD02FA9418
:102E7000F110FACF88EE94E00E94EF0220E030E0FB
:102E8000A90160E088EE94E00E940503F82E80938B
:102E9000F204E1E08E1749F00E943C02601B710BC6
:102EA000613D774058F381E056C02AEA31E040E0C6
:102EB00050E068E088EE94E00E94050382FF03C0C2
:102EC000F092F30410C044E0F42E0E94B402809308
:102ED000F204FA94F110F9CF8A3A11F082E03BC083
:102EE00082E08093F3048091F304823021F0C12CBE
:102EF000D12C760105C0C12CD12CE12C30E4F32E6D
:102F000020E030E0A90167E388EE94E00E94050329
:102F1000A701960169E288EE94E00E940503809380
:102F2000F204882349F00E943C02601B710B613D52
:102F3000774030F388E00FC08091F304823001F5D0
:102F400020E030E0A9016AE388EE94E00E940503E6
:102F5000882341F086E08093ED0488EE94E00E949F
:102F6000A202B2C00E94B402807C803C19F483E0CB
:102F70008093F3040E94B4020E94B4020E94B4023F
:102F800088EE94E00E94A20280E58093E60481E04E
:102F90008093E7040E94ED13882329F080911705A0
:102FA000882341F091C080E00E94ED13882309F44A
:102FB0008BC0F4CF80910B05803109F582E08093BE
:102FC00017051092290510922A0510922B051092D0
:102FD0002C0580910C0590910D05A0E0B0E025E056
:102FE000880F991FAA1FBB1F2A95D1F7809325052B
:102FF00090932605A0932705B09328051FC0803223
:1030000009F062C083E08093170540910E0550914E
:103010000F0560911005709111054093290550939B
:103020002A0560932B0570932C0525E235E084EF8B
:1030300094E00E940E06882309F446C084EF94E0D1
:1030400090932E0580932D0581E0809316051092B4
:1030500018051092190510921A0510921B0510926E
:103060001C0510921D0510921E0510921F0510924E
:10307000200510922105109222051092230510922E
:1030800024056BE871E086E994E00E94AA0D60EAED
:1030900071E086E994E00E94AA0D1EAE1DAE8FE39A
:1030A00091E09CAF8BAF21961FAE219719A218A279
:1030B0009F8F8E8F1BA2C12CB12C7E012BE3E20EC1
:1030C000F11C02E115E055C063EA71E086E994E085
:1030D0000E94AA0D60EA71E086E994E00E94AA0DC0
:1030E00091C0FE01E85AFF4F80E090E0D901A6545C
:1030F000BE4F4C914F3249F0442339F001962F5F77
:103100003F4F41938C30910589F7E8E5F0E0EC0FF3
:10311000FD1FE80FF91F1082F901E654FE4F808170
:103120008F3211F42F5F3F4FC22EB32EF901E654B8
:10313000FE4F8081882349F1F7018581811125C1E6
:1031400021E0AE01485A5F4FB801C7010E94BF0994
:10315000D82EF5E002311F0709F011C1882309F4C8
:1031600051C08E01025E1F4F902F812F8701E92EE3
:10317000F82E2C2D3B2DF901E654FE4F80818F3225
:1031800009F0AFCF2F5F3F4FACCF1C821B828FE384
:1031900091E09A8389831E8222E0AE01485A5F4FF4
:1031A000B801CE0101960E94BF098823F9F0CE0133
:1031B00001960E9460138823C9F06F8578898989F8
:1031C0009A8941E00E94A104882381F0EB8980E282
:1031D000E89FF0011124E950FE4F309739F085EE59
:1031E00080831E820E946604811105C0E5E00231E1
:1031F0001E0729F407C025E00231120719F0C801A3
:103200000E94B40B60ED77E080E090E00E94020243
:1032100062EC71E089EF93E00E94AA0D8AE090E0F1
:103220000E945B138091EC019091ED01A091EE0161
:10323000B091EF018091E8019091E901A091EA013C
:10324000B091EB018091E6019091E7011092E801C5
:103250001092E9011092EA011092EB011092EC0138
:103260001092ED011092EE011092EF011092E70121
:103270001092E60180917B008F7D80937B0080918E
:103280007A008F7780937A0080917C008E7F809384
:103290007C0080917C008D7F80937C0080917C00FD
:1032A0008B7F80937C0080917A00806880937A0085
:1032B00080917A00806480937A0080917A0086FD04
:1032C000FCCF209178003091790090917B009F7D18
:1032D00090937B0090917A009F7790937A009091E1
:1032E0007C009E7F90937C0090917C009D7F9093CA
:1032F0007C0090917C00946090937C0090917A0087
:10330000906890937A0090917A00906490937A00FC
:1033100080917A0086FDFCCF0091780010917900B1
:10332000C9010E945B138AE090E00E945B13C80110
:103330000E945B138AE090E00E945B1380E00E9491
:10334000D7017C0183E00E94D7018C01C7010E9454
:103350005B138AE090E00E945B13C8010E945B133C
:103360008AE090E00E945B138091E6019091E70172
:103370008091E6019091E7010E941F0F43CFC801A1
:103380000E94B40BD110F0CE3DCFF5E002311F0703
:1033900009F035CF37CFCF92DF92EF92FF920F93A4
:1033A0001F93CF93DF931F92CDB7DEB7182F062F51
:1033B000E42E862F880F8E5F99830E94C10D83E0D3
:1033C0000E94C10DF12EC12E9981D92E8C2D8F19FD
:1033D000801798F4F601E7FE02C0849101C0808155
:1033E0000E94C10D182F80E00E94C10D8123FFEFC4
:1033F000CF1ADF0A8111EACF01C081E00F90DF917F
:10340000CF911F910F91FF90EF90DF90CF90089593
:10341000E9EFF3E01382128288EE93E0A0E0B0E0DF
:1034200084839583A683B7832BE131E031832083A6
:103430002DEC30E0358724872CEC30E03787268769
:1034400028EC30E0318B208B29EC30E0338B228B61
:103450002AEC30E0358B248B2EEC30E0378B268B3A
:10346000118E128E138E148EE6E9F4E0138212820E
:1034700084839583A683B7832DE231E03183208353
:103480002FEF3FEF35872487E6EEF4E020E5208339
:1034900021E02183E8EEF4E015821682118613867E
:1034A00042E050E060E070E04487558766877787A8
:1034B00013A215A614A62FE331E033A722A717A65F
:1034C000E7E4F5E01382128284839583A683B783B1
:1034D0008BE491E091838083128E118E1486E1E358
:1034E000F5E082E0818383E080830895EE0FFF1F83
:1034F0000590F491E02D09940E94871AA59F900DE4
:10350000B49F900DA49F800D911D11240895A29F3A
:10351000B001B39FC001A39F700D811D1124911DA7
:10352000B29F700D811D1124911D089581E090E0DE
:10353000F8940C94A81AFB01DC0104C08D91019051
:10354000801921F441505040C8F7881B990B089509
:04355000F894FFCF1D
:10355400FFFFFFFFFFFFFFFF00E10000000000008E
:1035640000C1808100000000000000B60E230E4E52
:103574000EFD0E7F0E5D0E710E00000000290F96E9
:103584000F1B103F0F4A0F43101F1000000000587C
:103594000D230E71017001000000005A01690D71C4
:1035A40001C00B39018B09950900000000BF0D23F0
:1035B4000E71017001536574757041444300646F6A
:1035C4006E6500496E697469616C697A696E672019
:1035D400534420636172642E2E2E00696E697469EF
:1035E400616C697A6174696F6E20646F6E652E0018
:1035F4000D0A00696E697469616C697A6174696F36
:103604006E206661696C656421006A70732E74783B
:1036140074004D61696E2050726F6772616D6D0048
:00000001FF
