:100000000C94EA000C9412010C9412010C9412014D
:100010000C9412010C9412010C9412010C94120114
:100020000C9412010C94AD060C94E10D0C94530E3B
:100030000C9412010C9412010C9412010C941201F4
:100040000C9412010C9412010C9412010C941201E4
:100050000C94220D0C9412010C9412010C94630662
:100060000C9412010C9412010C9412010C941201C4
:100070000C9412010C9412010C9412010C941201B4
:100080000C9412010C9412010C9412010C941201A4
:100090000C9412010C9412010C9412010C94120194
:1000A0000C9412010C9412010C941201EA03ED035A
:1000B000DC03E003E4030E040E040E04F103F50375
:1000C000F903FF0303040E040904070605040100F5
:1000D000080A0B0C0D0900000000240027002A006C
:1000E0002D0030000000000200090F000003040191
:1000F000000C0000000000000000000000000000F4
:100100000000080B000202020100090400000102C5
:10011000020000052400100105240101010424024D
:1001200006052406000107058103100040090401AB
:1001300000020A00000007050202400000070583D4
:10014000024000000403090412010002EF02014012
:100150004F1B0492000101020301537061726B4650
:10016000756E00537061726B46756E2050726F2011
:100170004D6963726F0000000000250028002B000D
:100180002E003100000000002300260029002C0072
:100190002F00040404040403040502020202040301
:1001A0000202020206060606060604040202020411
:1001B0000404080201104080401020408040800864
:1001C00002040180402010020110801020404020D5
:1001D0003814D61211241FBECFEFDAE0DEBFCDBF38
:1001E00011E0A0E0B1E0E4E1FBE202C005900D9275
:1001F000A43BB107D9F725E0A4EBB1E001C01D9203
:10020000AF30B207E1F710E0C9EED0E004C02197AB
:10021000FE010E943C15C83ED107C9F70E94E012BA
:100220000C947D150C940000CF92DF92EF92FF9218
:100230000F931F93CF93DF936C017A018B01C0E082
:10024000D0E0CE15DF0589F0D8016D918D01D60182
:10025000ED91FC910190F081E02DC6010995892B6B
:1002600011F47E0102C02196ECCFC701DF91CF913E
:100270001F910F91FF90EF90DF90CF900895CF9353
:10028000DF931F92CDB7DEB76983DC01ED91FC915E
:100290000280F381E02D41E050E0BE016F5F7F4FAF
:1002A00009950F90DF91CF91089583E08093E90045
:1002B0008091F200882319F08AE38093E800089582
:1002C000FC018485958597FD0BC09FB7F89482E06B
:1002D0008093E9008091F2009FBF90E0019608951D
:1002E0009FB7F89482E08093E9008091F2009FBF6D
:1002F00090E00895823108F08251E82FF0E0E65353
:10030000FF4FE49180917B00E3FB222720F930E04E
:1003100095E0220F331F9A95E1F78F7D282B2093CC
:100320007B00E770E064E0937C0080917A00806459
:1003300080937A0080917A0086FDFCCF80917800CE
:100340002091790090E0922B08953FB7F894809126
:100350000B0290910C02A0910D02B0910E0226B5F5
:10036000A89B05C02F3F19F00196A11DB11D3FBFED
:10037000BA2FA92F982F8827820F911DA11DB11D7B
:10038000BC01CD0143E0660F771F881F991F4A9576
:10039000D1F708952FB7F894609107027091080281
:1003A0008091090290910A022FBF089520912204A2
:1003B000309123042817390771F49091200480911B
:1003C0002104981741F0E0912004F0E0EA53FE4F39
:1003D000808190E008958FEF9FEF089508951F9317
:1003E000CF93DF93DC015C962D913C915D972115B5
:1003F000310539F481E090E013969C938E93129727
:100400003DC05196ED91FC91529750969C9150971A
:10041000892F80951FB75E964C915E9741FB772799
:1004200070F941FD6095F8944081772311F0492BD4
:1004300001C048234083E9012197F1F748E050814A
:1004400060FF02C0592B01C058235083E901219756
:10045000F1F76695415099F7772321F09081892330
:10046000808303C08081982B90831FBF5C968D9101
:100470009C915D970197F1F721E030E0C901DF9190
:10048000CF911F91089520912204309123042817C1
:10049000390771F4809121042091200490E0805C60
:1004A0009F4F821B910960E470E00E940915089536
:1004B00080E090E0089520912204309123042817D1
:1004C0003907B9F49091200480912104981789F09C
:1004D000E0912004F0E0EA53FE4F80812091200457
:1004E00030E02F5F3F4F2F7333272093200490E09D
:1004F00008958FEF9FEF08958EBD00000DB407FEA5
:10050000FDCF8EB508958FEF0C947C020F931F934F
:10051000CF93DF93EB010E94CA018B010E948302FB
:100520008F3F49F00E94CA01601B710B6C177D0759
:10053000A8F380E001C081E0DF91CF911F910F917E
:100540000895DC015996ED91FC915A973097B9F0D6
:1005500083899489A589B689428553856485758583
:10056000841B950BA60BB70B811520E89207A105FC
:10057000B10538F08FEF9FE7A0E0B0E0089580E08C
:1005800090E00895CF93DF931F92CDB7DEB76983D4
:10059000DC01ED91FC910280F381E02D41E050E01F
:1005A000BE016F5F7F4F09950F90DF91CF91089546
:1005B000089580E090E0089580E00E947A014091E3
:1005C000BC015091BD016091BE017091BF01092E27
:1005D000000CAA0BBB0B805F9140A109B109840FED
:1005E000951FA61FB71F8093BC019093BD01A093D8
:1005F000BE01B093BF0183E00E947A014091B8012F
:100600005091B9016091BA017091BB01092E000CA3
:10061000AA0BBB0B805F9140A109B109840F951F04
:10062000A61FB71F8093B8019093B901A093BA0198
:10063000B093BB018091B6019091B7010196909360
:10064000B7018093B60108950E94B11290E0089519
:10065000CF93DF931F92CDB7DEB7FC0184859585DC
:1006600097FD05C02FEF3FEF358724870BC0CE01E4
:1006700001960E948712019719F4898190E002C0C7
:100680008FEF9FEF0F90DF91CF9108950F931F93FE
:10069000CF93DF931F92CDB7DEB78C01FC01848529
:1006A000958597FF0EC0CE0101960E948712019793
:1006B00019F4298130E002C02FEF3FEFF8013587B0
:1006C0002487F801848595850F90DF91CF911F9144
:1006D0000F910895CF93DF931F92CDB7DEB7FC0142
:1006E000818D928D009751F0BE016F5F7F4F0E9408
:1006F0008711019719F4898190E002C08FEF9FEF75
:100700000F90DF91CF910895409111025091120204
:1007100020910F023091100242175307B4F49091C8
:10072000E8009570E1F39091E80092FD19C0809384
:10073000F100809111029091120201968F73992716
:10074000892B19F48EEF8093E8008091110290912B
:1007500012020196909312028093110281E0089593
:1007600080E00895615030F02091F100FC01208379
:100770000196F8CF289884E680931C020895362FBE
:1007800090E0FC01EC51FF4F4491FC01EF54FE4F0F
:100790002491FC01EE56FE4F8491882309F451C048
:1007A0004423E1F150E0FA013197EF30F105B0F563
:1007B000EA5AFF4F0C943C15909180009F7707C038
:1007C000909180009F7D03C090918000977F9093CF
:1007D000800024C094B59F7702C094B59F7D94BDDE
:1007E0001DC0909190009F7707C0909190009F7DD1
:1007F00003C090919000977F909390000FC09091CC
:10080000C0009F7703C09091C0009F7D9093C0006F
:1008100005C09091C200977F9093C200E82FF0E04E
:10082000EE0FFF1FEA58FE4FA591B4918FB7F894D1
:10083000EC91311103C020952E2301C02E2B2C9357
:100840008FBF089561E0FC0184810E94BF03809105
:10085000C00181111092C0010895CF93DF93EC0184
:100860008E81882389F08F8198859C012F5F3F4F6F
:1008700038872F838230924018F40E948302F3CF8E
:10088000CE010E9422041E82DF91CF910895CF9263
:10089000DF92FF920F931F93CF93DF9300D000D08E
:1008A000CDB7DEB76C01F62E29833A834B835C8388
:1008B0000E942D048091C00129813A814B815C8185
:1008C000811109C081E08093C0019091240480913E
:1008D00025049CBD8DBD60E0F601848129833A83A7
:1008E0004B835C830E94BF036CE271E0C6010E94EF
:1008F00086028F2D80640E947C0208E110E05C81FA
:100900004B813A812981DA01C901002E04C0B695D4
:10091000A795979587950A94D2F729833A834B83B5
:100920005C830E947C020850110929813A814B8125
:100930005C81083FFFEF1F0731F7FF2029F088E0B7
:10094000F81204C087E803C085E901C08FEF0E9458
:100950007C0210E00E948302F601828787FF04C0B8
:100960001F3F11F01F5FF6CF0F900F900F900F9069
:10097000DF91CF911F910F91FF90DF90CF9008955D
:10098000EF92FF920F931F93CF93DF93EC017901C6
:10099000411551056105710511F482E13CC08B855B
:1009A000833039F089E0440F551F661F771F8A9501
:1009B000D1F79A01AB0168E1CE010E944704882378
:1009C00011F084E028C08EEF0E947C0287018EEF38
:1009D000F81AF80181918F010E947C020E151F0503
:1009E000C1F78FEF0E947C028FEF0E947C020E9471
:1009F00083028A878F71853031F081E18D83CE014A
:100A00000E94220409C068E572E0CE010E948602BD
:100A1000811107C085E18D83CE010E94220480E010
:100A200013C020E030E0A9016DE0CE010E94470430
:100A3000811104C00E948302882311F084E1EBCF6E
:100A4000CE010E94220481E0DF91CF911F910F918E
:100A5000FF90EF900895CF93DF938091C101882399
:100A600099F1C0911E02D0911F0240910C0150914A
:100A70000D0160910E0170910F0120E232E0CE0174
:100A80000E94C004811102C080E01FC04091C201D9
:100A90005091C3016091C4017091C5014115510588
:100AA0006105710579F020E232E0CE010E94C004B8
:100AB000882351F31092C2011092C3011092C40115
:100AC0001092C5011092C10181E0DF91CF9108958C
:100AD000CF93DF9390E0FC01EF54FE4F2491FC0193
:100AE000EE56FE4F8491882361F190E0880F991FA4
:100AF000FC01EA52FF4FC591D491FC01EA58FE4F28
:100B0000A591B491611109C09FB7F894888120958F
:100B100082238883EC912E230BC0623061F49FB74F
:100B2000F8943881822F809583238883EC912E2B33
:100B30002C939FBF06C08FB7F894E8812E2B288393
:100B40008FBFDF91CF9108958F929F92AF92BF9206
:100B5000CF92DF92EF92FF926B017C010E94A50180
:100B60004B015C01C114D104E104F104F1F00E94D5
:100B7000A501DC01CB0188199909AA09BB09883EA6
:100B80009340A105B10570F321E0C21AD108E10834
:100B9000F10888EE880E83E0981EA11CB11CC114D8
:100BA000D104E104F10419F7DDCFFF90EF90DF905D
:100BB000CF90BF90AF909F908F9008958F929F920B
:100BC000AF92BF92CF92DF92EF92FF920F931F935B
:100BD000CF93DF935C016B017A0180910B01882335
:100BE00009F45BC080911D02882309F456C08091EE
:100BF000140280FF05C08091E00082608093E000D5
:100C0000E70110E00AEF83E0882E9AE3992E2097FF
:100C1000D9F10E94B11281110AC0015009F43DC0FE
:100C200061E070E080E090E00E94A405F0CF282F02
:100C300030E0C217D3070CF48C2F4FB7F894809292
:100C4000E9009091E80095FF1DC0282F30E0C21BFD
:100C5000D30BF601982F915020F081918093F100F1
:100C6000FACFC20ED31E112319F09092E80009C0EA
:100C70008091E80085FD06C09092E80011E0209781
:100C800009F010E04FBFC3CF1111C3CF5D9884E6C8
:100C9000809313021E141F0444F081E090E0F501DC
:100CA0009383828380E090E001C0C701DF91CF9100
:100CB0001F910F91FF90EF90DF90CF90BF90AF907A
:100CC0009F908F9008951F920F920FB60F9211244C
:100CD0002F933F938F939F93AF93BF93809107027E
:100CE00090910802A0910902B0910A023091060287
:100CF00026E0230F2D3720F40296A11DB11D05C05B
:100D000029E8230F0396A11DB11D209306028093AD
:100D1000070290930802A0930902B0930A028091FF
:100D20000B0290910C02A0910D02B0910E0201965F
:100D3000A11DB11D80930B0290930C02A0930D0294
:100D4000B0930E02BF91AF919F918F913F912F91E0
:100D50000F900FBE0F901F9018951F920F920FB615
:100D60000F9211242F933F934F935F936F937F9331
:100D70008F939F93AF93BF93EF93FF93E0912204E0
:100D8000F0912304309709F451C0968DA685B7855C
:100D9000858591FF04C09C91892329F447C09C91CB
:100DA000892309F043C0A389B4899C9185898095E2
:100DB00089238C93868997890197F1F7608D718DCE
:100DC000A685B785558538E020E0CB010197F1F77E
:100DD000822F90E095958795282F4C91452309F017
:100DE0002068315091F7868D81FD209580912104F6
:100DF00090E001968F73992730912004381749F0BD
:100E0000A0912104B0E0AA53BE4F2C9380932104FB
:100E100003C0868D8160868F828D938D0197F1F757
:100E2000A389B4899C918589892B8C93FF91EF913B
:100E3000BF91AF919F918F917F916F915F914F91F2
:100E40003F912F910F900FBE0F901F901895E0913A
:100E50002204F0912304E817F90769F4A389B489FF
:100E60009C918589809589238C93109223041092FC
:100E7000220481E0089580E00895AF92BF92CF925E
:100E8000DF92EF92FF920F931F93CF93DF93EC01CA
:100E90006901C801820F931F8130924008F070C031
:100EA0008E81882371F088819981AA81BB8148173E
:100EB00059076A077B0729F48F819885C816D906D8
:100EC000B0F5488359836A837B838B85833039F0FF
:100ED00089E0440F551F661F771F8A95D1F79A0145
:100EE000AB0161E1CE010E944704882319F083E041
:100EF0008D8346C00E94CA015B010E9483028A87DB
:100F00008F3F49F40E94CA016A197B096D32714012
:100F1000A0F38FE003C08E3F31F08DE08D83CE01D2
:100F20000E9422042DC018861F8281E08E838F814B
:100F300098858C159D0540F40E9483028F819885C9
:100F4000019698878F83F3CF6701E00EF11ECE14D0
:100F5000DF0431F00E948302F60181936F01F7CF25
:100F60008F819885080F191F18870F83898588231B
:100F700019F00115124048F0CE010E942D0405C061
:100F8000CE010E94220480E001C081E0DF91CF9178
:100F90001F910F91FF90EF90DF90CF90BF90AF9097
:100FA00008958F929F92AF92BF92EF92FF920F930C
:100FB0001F93CF934B015C01C42F80910C01909142
:100FC0000D01A0910E01B0910F0188159905AA0598
:100FD000BB0501F10E942B05811102C080E020C0F9
:100FE00080E2E82E82E0F82E00E012E020E030E01F
:100FF000B501A40180911E0290911F020E943D073D
:10100000882361F380920C0190920D01A0920E0151
:10101000B0920F018091C101C82BC093C10181E042
:10102000CF911F910F91FF90EF90BF90AF909F9045
:101030008F9008954F925F926F927F928F929F92BE
:10104000AF92BF92CF92DF92EF92FF920F931F93D6
:10105000CF93DF93EC016A017B0128013901423013
:1010600051056105710510F480E073C089859A858A
:10107000AB85BC850196A11DB11D84179507A607F8
:10108000B70790F38B889C88AD88BE888F898031A4
:1010900029F4BB27AF2D9E2D8D2D09C0DB01CA0180
:1010A00047E0B695A795979587954A95D1F7880E0D
:1010B000991EAA1EBB1E80910C0190910D01A0915A
:1010C0000E01B0910F0188169906AA06BB0679F4A5
:1010D0008F898031A1F4DD24EE24FF24C601880F1E
:1010E000991FFC01E05EFD4F5182408219C040E033
:1010F000C501B4010E94D1078111EACFB5CFE894B0
:10110000C7F8DD24EE24FF24C601880F991F880F3D
:10111000991FFC01E05EFD4F408251826282738222
:101120008091C10181608093C1018A89823080F001
:101130008D819E81AF81B885880E991EAA1EBB1E27
:101140008092C2019092C301A092C401B092C501E5
:1011500081E0DF91CF911F910F91FF90EF90DF9091
:10116000CF90BF90AF909F908F907F906F905F9047
:101170004F9008958F929F92AF92BF92CF92DF923D
:10118000EF92FF920F931F93CF93DF93FC01818522
:101190009285A385B4850196A11DB11D841795077D
:1011A000A607B70710F480E05CC083899489A589FD
:1011B000B689C789C03129F4852E962EA72EBB2467
:1011C00009C04A015B01C7E0B694A794979487943D
:1011D000CA95D1F7E9016A017B018F01BC01CD01FC
:1011E000680D791D8A1D9B1D80900C0190900D014A
:1011F000A0900E01B0900F01681579058A059B0536
:1012000099F4F80187898031A9F4B701A60155271F
:1012100066277727440F551FFA01E05EFD4F808156
:101220009181A0E0B0E018C040E00E94D107811198
:10123000E8CFB9CFB701A6014F77552766277727A3
:10124000440F551F440F551FFA01E05EFD4F80818A
:101250009181A281B381BF7088839983AA83BB8364
:1012600081E0DF91CF911F910F91FF90EF90DF9080
:10127000CF90BF90AF909F908F9008958F929F9244
:10128000AF92BF92CF92DF92EF92FF920F931F9394
:10129000CF93DF93EC018D81811102C080E077C094
:1012A0000B891C892D893E890417150726073707E6
:1012B000A8F36A017B01823029F4CA86DB86EC86BA
:1012C000FD860DC0C114D104E104F10451F41E8265
:1012D0001F82188619861A861B861C861D8681E049
:1012E00056C08A849B84AC84BD84EB8DFC8D25859F
:1012F00030E0275F3F4FB501A4014150510961091A
:101300007109022E04C076956795579547950A9402
:10131000D2F7D701C6010197A109B10904C0B6955A
:10132000A795979587952A95D2F784179507A607CD
:10133000B70720F089288A288B2849F44F89588DCF
:10134000698D7A8D4E835F836887798704C0841B9B
:10135000950BA60BB70B4C015D018E010A5F1F4F69
:1013600081149104A104B10409F4A7CF4E815F81D7
:101370006885798598018B8D9C8D0E94BA0891E0D3
:10138000891A9108A108B1088111EACF87CFDF91AE
:10139000CF911F910F91FF90EF90DF90CF90BF9072
:1013A000AF909F908F900895EF92FF920F931F93AD
:1013B000CF93DF931F92CDB7DEB7FC01818D928D65
:1013C000009701F17F01BE016F5F7F4F0E9487117F
:1013D000019719F4098110E002C00FEF1FEF0F3FD2
:1013E0008FEF180789F0F701818D928DFC014285FE
:1013F00053856485758541505109610971090E94C1
:101400003E0902C000E010E0C8010F90DF91CF91CB
:101410001F910F91FF90EF9008953F924F925F922E
:101420006F927F928F929F92AF92BF92CF92DF92F4
:10143000EF92FF920F931F93CF93DF93CDB7DEB759
:101440002C970FB6F894DEBF0FBECDBF5C01DC0158
:101450005B968D909C905C971696CD90DD90ED906C
:10146000FC901997C114D104E104F10439F0BFEFE5
:10147000CB1ADB0AEB0AFB0A312C07C0F401C0804F
:10148000D180E280F38033243394F4018185928506
:10149000A385B4859C01AD012F5F3F4F4F4F5F4F38
:1014A00029873A874B875C87260137011D821E8278
:1014B0001F821886F40181859285A385B4852D81CC
:1014C0003E814F815885281739074A075B0708F086
:1014D00063C089859A85AB85BC858C159D05AE0555
:1014E000BF0550F482E0C82ED12CE12CF12C92E003
:1014F000492E512C612C712C9E012F5F3F4FB7015B
:10150000A601C4010E94BA08882309F445C0898154
:101510009A81AB81BC81892B8A2B8B2B41F02601D0
:1015200037019FEF491A590A690A790A05C0C4149C
:10153000D504E604F70491F02D813E814F81588552
:101540002F5F3F4F4F4F5F4F2D833E834F83588711
:101550003FEFC31AD30AE30AF30AACCF0FEF1FEF32
:101560002FEF3FE0B301A201C4010E941A088823B3
:1015700099F0D50116964D915D916D917C911997D9
:10158000411551056105710549F093018201C401BE
:101590000E941A08811102C080E02AC0D501169667
:1015A0004D925D926D927C921997332051F0D30148
:1015B000C2010196A11DB11DF40180839183A28314
:1015C000B383F5018789908DA18DB28D892B8A2BEC
:1015D0008B2B69F4D50157964D925D926D927C925A
:1015E0005A9714968C911497806814968C9381E086
:1015F0002C960FB6F894DEBF0FBECDBFDF91CF9112
:101600001F910F91FF90EF90DF90CF90BF90AF9020
:101610009F908F907F906F905F904F903F90089534
:10162000CF93DF93FC01248127FF2EC0EC01668558
:1016300077858089918941E00E94D107882341F113
:10164000EA8980E2E89FF0011124DF01A05EBD4F2E
:101650001097F1F08D81823050F44B895C896D894F
:101660007E895C964D935D936D937C935F978F8994
:10167000988DA98DBA8DE05EFD4F938F828FB58BCB
:10168000A48B8C818F778C83DF91CF910C942B0569
:1016900080E0DF91CF910895FC01818D928D0097BC
:1016A00029F0FC01258121110C94100B08952F9233
:1016B0003F924F925F926F927F928F929F92AF92E2
:1016C000BF92CF92DF92EF92FF920F931F93CF932F
:1016D000DF9300D000D000D0CDB7DEB78C015B0126
:1016E0001A01DC0115968C9115978130C9F4149676
:1016F0008C9181FF15C082FF1DC0F8014389548978
:101700006589768982859385A485B5858417950733
:10171000A607B70779F0C8010E943E0981110AC0E7
:1017200081E090E0D80113969C938E93129780E00D
:1017300090E042C1610120911E0230911F023E8360
:101740002D8382C0D8015B968D919C915C97FC01A2
:1017500074802FEF270D2A013B0139E076946794BE
:10176000579447943A95D1F7722E74207A01F1E09C
:10177000FF22772009F474C080E092E08E199F095F
:1017800046018C159D0508F44C01D8015B962D91FE
:101790003C915C9716968D919D910D90BC91A02DDA
:1017A0000297A109B109F901058404C0880F991FA6
:1017B000AA1FBB1F0A94D2F7468557856089718995
:1017C000840F951FA61FB71F9C01AD01270D311D6A
:1017D000411D511D29013A01811432E0930609F09F
:1017E00086C080910C0190910D01A0910E01B091E5
:1017F0000F0184159505A605B70559F48FEF9FEFE6
:10180000DC0180930C0190930D01A0930E01B09325
:101810000F019501B301A2018D819E810E94C00438
:10182000882309F47DCF9EEFB91AC818D908F801AA
:1018300082859385A485B585880D991DA11DB11D4F
:1018400082879387A487B587D8011A964D915D91B9
:101850006D917C911D97C114D10409F073CF87C09D
:10186000E114F10409F088CF16964D915D916D91C8
:101870007C911997411551056105710559F45796E9
:101880008D919D910D90BC91A02D0097A105B10562
:1018900041F521C09E012F5F3F4F0E94BA08882367
:1018A00009F446CF89819A81AB81BC81F801238DEF
:1018B000348DF9012789203129F048EF5FEF6FEF70
:1018C0007FE004C048EF5FEF60E070E084179507A9
:1018D000A607B70730F0C8010E940D0A81114CCF4E
:1018E0001FCFF80186839783A087B18745CFE11486
:1018F000F10429F5D8011A964D915D916D917C9175
:101900001D9753968D919D910D90BC91A02D4817D8
:1019100059076A077B0798F00E942B05882309F472
:10192000FFCE40920C0150920D0160920E01709218
:101930000F018091C10181608093C10108C041E025
:10194000C301B2010E94D107882309F4E9CED50171
:10195000F701E05EFD4FCF01880D991DE817F907EB
:1019600019F02D912193FACFA80CB91C5ECF539694
:101970008D919D910D90BC91A02D84179507A60780
:10198000B70740F4F801438B548B658B768B8481C9
:1019900080688483D80114968C9183FD02C0C101B4
:1019A0000BC0F8018581882309F4BACEC8010E94D2
:1019B000100B8111F4CFB4CE26960FB6F894DEBF8B
:1019C0000FBECDBFDF91CF911F910F91FF90EF9090
:1019D000DF90CF90BF90AF909F908F907F906F904F
:1019E0005F904F903F902F900895CF93DF931F9279
:1019F000CDB7DEB7698341E050E0BE016F5F7F4F36
:101A00000E94570B0F90DF91CF910895CF93DF93F2
:101A1000EC01898D9A8D009739F481E090E09B83E9
:101A20008A8380E090E00BC0FC01138212820E9446
:101A3000570BE98DFA8D22813381232B71F7DF91CA
:101A4000CF9108951F920F920FB60F9211242F93EA
:101A50003F934F935F936F937F938F939F93AF9336
:101A6000BF93EF93FF93E0911802F091190209954B
:101A7000FF91EF91BF91AF919F918F917F916F9166
:101A80005F914F913F912F910F900FBE0F901F903C
:101A900018950E947815CF92DF92EF92FF920F93E4
:101AA0001F93CF93DF931F92CDB7DEB7182F062F6A
:101AB000E42E862F880F8E5F99830E94840383E033
:101AC0000E948403F12EC12E9981D92E8C2D8F195D
:101AD000801798F4F601E7FE02C0849101C080816E
:101AE0000E948403182F80E00E9484038123FFEF6B
:101AF000CF1ADF0A8111EACF01C081E00F90DF9198
:101B0000CF911F910F91FF90EF90DF90CF900895AC
:101B1000DF92EF92FF920F931F93CF93DF93D82E14
:101B20008A017B01E40EF51EEB01CE15DF0571F095
:101B3000D7FE03C0FE01849101C088810E94840306
:101B400021968111F2CF8FEF9FEF01C0C801DF9185
:101B5000CF911F910F91FF90EF90DF9008950F9319
:101B60001F93CF93DF931F92CDB7DEB782E08983B7
:101B700042E450E062E071E080E80E94880D0E943B
:101B8000C212DC0112960D911C91139701151105DB
:101B900069F0D801ED91FC910280F381E02DBE0146
:101BA0006F5F7F4FC801099597FF07C089810F902C
:101BB000DF91CF911F910F910895F8010085118554
:101BC000E5CF1F920F920FB60F9211248F939F9320
:101BD0008091E1009091E100937F9093E10083FF79
:101BE0000FC01092E90091E09093EB001092EC008E
:101BF00092E39093ED0010921D0298E09093F00014
:101C000082FF20C093E09093E9009091F200992325
:101C100019F09AE39093E80090911302992339F018
:101C200090911302915090931302992389F190910E
:101C30001C02992339F090911C02915090931C0240
:101C4000992341F184FF10C08091E2008E7E816073
:101C50008093E2008091E1008F7E8093E10080918B
:101C600014028E7E806111C080FF16C08091E20058
:101C70008E7E80618093E2008091E1008E7E809371
:101C8000E100809114028E7E81608093140204C072
:101C90005D9ACDCF289AD6CF9F918F910F900FBE8E
:101CA0000F901F9018951F920F920FB60F9211244C
:101CB000CF92DF92EF92FF920F931F932F933F9358
:101CC0004F935F936F937F938F939F93AF93BF9344
:101CD000EF93FF93CF93DF93CDB7DEB76C97DEBF63
:101CE000CDBF1092E9008091E80083FFEDC168E06C
:101CF000CE0145960E94B20382EF8093E8008D8961
:101D000087FF05C09091E80090FFFCCF03C09EEFD5
:101D10009093E800982F907609F0C6C09E892F898D
:101D2000188D91110CC0803829F480911B0280938A
:101D3000F10002C01092F1001092F10048C1422F50
:101D400050E0512B913051F4811141C14130510586
:101D500009F03DC180911B028D7F0BC0933061F46F
:101D6000811135C14130510509F031C180911B020B
:101D7000826080931B022BC1953041F48091E80072
:101D800080FFFCCF20682093E30021C1963009F04A
:101D90005FC0EB8CFC8C1092E90010921202109242
:101DA0001102123091F51092100210920F020E944F
:101DB000AF0D99E0BE016F5F7F4FDB01E92F1D92F0
:101DC000EA95E9F799831A8391E09E8390EA9887D0
:101DD0009AEF99872091110230911202275F3F4FAD
:101DE0003C832B838D831092E90010921202109293
:101DF0001102F0921002E0920F0249E050E080E000
:101E00000E94880D0E94AF0DE2C0F0921002E09295
:101E10000F020E94C212DC011296ED90FC90139703
:101E2000E114F10409F4C0C0D701ED91FC910480E4
:101E3000F581E02DBE016B5E7F4FC70109950097CC
:101E400019F00CF0C4C0C7C0F701E084F184E8CFFA
:101E5000973009F4C0C0983021F481E08093F100FC
:101E6000B6C0993009F0B3C0837009F0B4C0E1E1A5
:101E7000F1E081E021E036E39081992361F08093E5
:101E8000E9002093EB0091919093EC003093ED00EA
:101E90008F5F873089F78EE78093EA001092EA001F
:101EA0008F8980931D0293C08B8D9C8D1092E900C9
:101EB00010921202109211029093100280930F025E
:101EC000898D811156C08E899D89913A59F481324C
:101ED00009F081C047E050E064E071E080E00E94DA
:101EE000880D75C0913209F076C0833289F4888DEF
:101EF00090E0982F88272F89822BA0E0B0E0809374
:101F0000000190930101A0930201B09303015FC00F
:101F1000803269F48091E80082FFFCCF67E084E0C2
:101F200091E00E94B2038BEF8093E80006C08232FA
:101F300009F04DC08F8980930B0180911A0288238C
:101F400019F0EEEFFAE002C0E0E0F8E08091040161
:101F500090910501A0910601B0910701803B94404A
:101F6000A105B10509F07BC080910B0180FF93C0F2
:101F700076C00E94C212DC0112960D911C9113973B
:101F80000115110541F1D801ED91FC910190F0810D
:101F9000E02DBE016B5E7F4FC8010995811117C00E
:101FA000F80100851185ECCF113009F44EC01330D3
:101FB00091F48F89882309F445C0823081F440E888
:101FC00062E183E691E00E944B0D882321F08EEFC1
:101FD0008093E80079C081E28093EB0075C0813086
:101FE00029F440E868E08AE591E0EDCF833099F785
:101FF0000E94C212DC011296ED90FC9013978E01A4
:102000000F5F1F4F6801E114F10479F0D701ED91E2
:10201000FC910680F781E02DB801C7010995080FF2
:10202000111DF701E084F184EECFD8011C92F60176
:1020300001900020E9F73197BF016C197D0940E05C
:10204000C601C1CF64E471E002C068E471E06115CB
:10205000710509F2FB01449150E080E840CF0FB6D2
:10206000F894A89580916000886180936000109238
:1020700060000FBEA895EE3F2AE0F20739F080918C
:10208000FE0A9091FF0A91838083A1CF1092FF0AEC
:102090001092FE0A9CCFEE3F8AE0F80731F0808173
:1020A00091819093FF0A8093FE0A87E797E79183D7
:1020B00080839BE088E10FB6F894A8958093600038
:1020C0000FBE9093600083CF6C960FB6F894DEBF7E
:1020D0000FBECDBFDF91CF91FF91EF91BF91AF9137
:1020E0009F918F917F916F915F914F913F912F9130
:1020F0001F910F91FF90EF90DF90CF900F900FBE48
:102100000F901F9018959B01AC0110924104109202
:10211000400410923F0410923E0410923D0410922D
:102120003C0460E874E88EE190E00E941D15F9011E
:102130002430310518F0C901039702C081E090E016
:1021400090934304809342048091320498EF980F57
:10215000943048F062EF680F643028F066EE680F44
:10216000633008F07EC0B9017695679564317105DA
:1021700018F06351710902C061E070E070933D0492
:1021800060933C04369720F0B9016550710902C094
:1021900061E070E070933F0460933E04B901660F04
:1021A000771F260F371F36952795369527952D30A3
:1021B000310518F02C50310902C021E030E0309395
:1021C000410420934004943058F092EF980F9430DB
:1021D00038F08A51833008F46FC0A0E0B0E06EC0E0
:1021E000A8E6B0E0E8E6F0E0808181608C93809121
:1021F000320498EF980F943058F022EF280F2430D3
:1022000038F026EE280F233018F020E030E002C02E
:102210002BE630E030933A0420933904943010F4E4
:102220009CEF09C08E3071F08F3071F0803171F009
:10223000813171F09AEE980F81E001C0880F9A9574
:10224000EAF707C088E005C082E003C084E001C06F
:1022500081E080933B048091420490914304019774
:10226000F1F78091400490914104892B69F18091AC
:1022700022049091230424E08632920729F10097EA
:1022800011F00E942707809144048E7F80934404BC
:10229000109221041092200486E294E0909323048B
:1022A00080932204E0913904F0913A049081809166
:1022B0003B04892B80830895A8E6B0E0833008F4BE
:1022C00091CFE0E0F0E090CF0895CF93DF930097B7
:1022D00079F0FC0101900020E9F73197AF01481B2C
:1022E000590BBC0186E294E00E941401EC0102C08B
:1022F000C0E0D0E042E050E061EB71E086E294E0C3
:102300000E9414018C0F9D1FDF91CF9108954F9271
:102310005F926F927F928F929F92AF92BF92CF9275
:10232000DF92EF92FF920F931F93CF93DF933C01C5
:102330006B01DC0115968C91811103C08FEF9FEF2B
:10234000D5C0F301848180FFF9CF81E08388948830
:10235000A588B6884285538564857585841695065B
:10236000A606B70609F480E090E02C014301B6E030
:102370008B0E911CA0901E02B0901F02892B09F4B5
:1023800080C0D3011A964D915D916D917C911D97FE
:10239000EA01D17015962C9115977A018B0189E08D
:1023A00016950795F794E7948A95D1F75B968D91EA
:1023B0009C915C97223061F4FC01828D938DA48DF9
:1023C000B58DBC01CD016E0D7F1D801F911F46C0D4
:1023D000DC0114962C912150122F1E212097E9F434
:1023E00011111BC0452B462B472B51F4F301878954
:1023F000908DA18DB28D86839783A087B1870DC004
:10240000D30116964D915D916D917C911997940130
:102410000E94BA08882309F491CFF301238D348DEB
:1024200086819781A085B1850297A109B109F9013B
:10243000058404C0880F991FAA1FBB1F0A94D2F7F6
:102440004685578560897189840F951FA61FB71F20
:10245000BC01CD01610F711D811D911DD301149629
:102460002C9126FF10C000910C0110910D012091BC
:102470000E0130910F01601771078207930731F544
:1024800002C0C20133C040E00E94D107882309F492
:1024900055CFC05EDD4FF601CE010196C817D907B2
:1024A00019F029912193FACFEFEFCE1ADE0AF3014A
:1024B00082859385A485B5850196A11DB11D82876E
:1024C0009387A487B58780E090E058CF760101E03C
:1024D00010E09E01AB01BC01C5010E943D078823AD
:1024E00009F42CCFBFEFCB1ADB0AE1CFDF91CF91FC
:1024F0001F910F91FF90EF90DF90CF90BF90AF9022
:102500009F908F907F906F905F904F900895FC0107
:1025100080911D02811103C08FEF9FEF08959FB737
:10252000F89482E08093E9002091F20030E01216E6
:10253000130614F421E030E02115310559F02898F4
:1025400084E680931C028091F10080838091F200E8
:10255000882319F09FBFC90108958BE68093E80096
:10256000F9CF2FB7F89483E08093E9009091E800C9
:10257000892F807295FF04C09091F20080E4891B3E
:102580002FBF08958091490481110DC082E080938E
:10259000450484E080934604109248041092470456
:1025A00081E08093490485E494E0089589E391E013
:1025B000909327048093260486E294E00C942707E6
:1025C000789484B5826084BD84B5816084BD85B50E
:1025D000826085BD85B5816085BD80916E0081601A
:1025E00080936E00109281008091810082608093C0
:1025F00081008091810081608093810080918000C2
:10260000816080938000809191008260809391002E
:102610008091910081608093910080919000816011
:10262000809390008091C10084608093C10080916C
:10263000C10082608093C1008091C100816080935D
:10264000C1008091C30081608093C3008091C0006D
:1026500082608093C0008091C20081608093C2003C
:1026600080917A00846080937A0080917A00826001
:1026700080937A0080917A008E7F80937A00809197
:102680007A00806880937A0010921D0210921B02DB
:10269000109214028091D70081608093D70080EA65
:1026A0008093D80089B58F7E89BD89B5826089BD48
:1026B00009B400FEFDCF61E070E080E090E00E9490
:1026C000A4058091D8008F7C80618093D800809190
:1026D000E000807F8093E0008091E1008E7E809317
:1026E000E1008DE08093E200559A209AEEEFFFE73B
:1026F000859194918B3F9C4D19F481E080931A024F
:1027000080917A00846080937A0080917A008D7F36
:1027100080937A0080917A008E7F80937A0068E8B7
:1027200073E180E090E00E94A40560E076E980E03B
:1027300090E00E94831089E591E00E94651164EFAA
:1027400071E080E090E00E94A40581E691E00E94A3
:10275000651164EF71E080E090E00E94A40589E7D4
:1027600091E00E94651164EF71E080E090E00E94CA
:10277000A40586E891E00E94651164EF71E080E0B5
:1027800090E00E94A40588E991E00E94651168EE3E
:1027900073E080E090E00E94A40581EA91E00E944D
:1027A000651164EF71E080E090E00E94A40589EA81
:1027B00091E00E94651164EF71E080E090E00E947A
:1027C000A40560E07BE480E090E00E94831064EF69
:1027D00071E080E090E00E94A4051092800080E10A
:1027E0008093810091E09093170220E931E03093CB
:1027F0001602209315023093870020938600809163
:102800008100887F80938100809181008160809326
:1028100081002CED32E0309319022093180290933E
:102820006F0078949091810080911702892B80939A
:10283000810061E087E00E946805C0E0D0E061E0CF
:1028400087E00E94BF0368EE73E080E090E00E94A2
:10285000A40560E087E00E94BF0368EE73E080E0BB
:1028600090E00E94A405209751F30E940000E7CF5A
:102870000F931F93109254041092530488EE93E028
:10288000A0E0B0E08093550490935604A0935704C1
:10289000B09358042BE131E030935204209351045B
:1028A0002FEF3FEF30935E0420935D0420E52093EB
:1028B000240461E0609325041092A6041092A704FA
:1028C0001092AA041092AC0402E010E020E030E084
:1028D0000093AD041093AE042093AF043093B00482
:1028E0001092C4041092CE041092CD042DE231E077
:1028F0003093CC042093CB041092D004109229047E
:102900001092280480932A0490932B04A0932C0403
:10291000B0932D0489E391E09093270480932604DB
:1029200010923D0410923C0410923F0410923E0419
:1029300010924104109240041092430410924204F9
:10294000809144048E7F8D7F8093440486958170AE
:10295000682781E00E94BF0361E081E00E94680572
:10296000E2EBF1E0E491E0933604E3E9F1E0E49195
:10297000F0E0EE0FFF1FEA58FE4F8591949190937F
:1029800038048093370460E080E00E9468058091FD
:10299000440481FD04C061E080E00E94BF03109206
:1029A0003204E1EBF1E0E491E0933304E2E9F1E099
:1029B000E491F0E0EE0FFF1FEC57FE4F85919491EC
:1029C00090933504809334041092ED041092EC043B
:1029D00088EE93E0A0E0B0E08093EE049093EF04E3
:1029E000A093F004B093F1048BE491E09093EB0496
:1029F0008093EA0410920405109203051092F604E5
:102A000082E08093060583E0809305051F910F9176
:102A1000089597FB072E16F4009407D077FD09D090
:102A20000E94421507FC05D03EF4909581959F4F7A
:102A30000895709561957F4F0895052E97FB1EF4BC
:102A400000940E94341557FD07D00E94561507FCCC
:102A500003D04EF40C943415509540953095219543
:102A60003F4F4F4F5F4F08959095809570956195BA
:102A70007F4F8F4F9F4F0895EE0FFF1F0590F491EA
:102A8000E02D0994AA1BBB1B51E107C0AA1FBB1F65
:102A9000A617B70710F0A61BB70B881F991F5A95EA
:102AA000A9F780959095BC01CD010895A1E21A2E59
:102AB000AA1BBB1BFD010DC0AA1FBB1FEE1FFF1FE2
:102AC000A217B307E407F50720F0A21BB30BE40B32
:102AD000F50B661F771F881F991F1A9469F7609579
:102AE0007095809590959B01AC01BD01CF01089533
:102AF00081E090E0F8940C947D1510E0C9EED0E0F0
:102B000004C0FE010E943C152196CA3ED107C9F7B8
:042B1000F894FFCF67
:102B1400FFFFFFFF00E1000000000000FFFFFFFFD8
:102B240000C18081000000000000003F01DE052498
:102B340003550160012803460300000000F50C144E
:102B440001D902D80200000000EF011401D902EEFD
:102B54000143025B02D60100000000C202060DD947
:102B6400024C0BA1026A03D40941542B4F52474C27
:102B74000041542B4E414D453D4A6577656C735079
:102B840065725365636F6E640041542B5053574410
:102B94003D343332310041542B554152543D313987
:102BA4003230302C312C300041542B524553455493
:102BB4000041542B494E49540041542B444953433A
:042BC400000D0A00F6
:1070000055C000006EC000006CC000006AC00000E7
:1070100068C0000066C0000064C0000062C00000DC
:1070200060C000005EC00000FCC400005AC0000048
:1070300058C0000056C0000054C0000052C00000FC
:1070400050C000005DC000004CC000004AC00000FD
:1070500048C0000046C0000044C0000042C000001C
:1070600040C000003EC000003CC000003AC000002C
:1070700038C0000036C0000034C0000032C000003C
:1070800030C000002EC000002CC000002AC000004C
:1070900028C0000026C0000024C0000022C000005C
:1070A00020C000001EC000001CC0000011241FBE34
:1070B000CFEFDAE0DEBFCDBF11E0A0E0B1E0E2E467
:1070C000FFE702C005900D92A43BB107D9F711E08C
:1070D000A4EBB1E001C01D92AD3CB107E1F74FD385
:1070E0002EC78ECFF89410926F001092810081E02D
:1070F00085BF15BE47985D9A289A0C9400000895A4
:107100001F920F920FB60F9211242F938F939F937C
:10711000EF93FF9310928500109284008091B40148
:107120009091B501009741F001979093B50180933C
:10713000B401892B09F45D9A8091B6019091B70151
:10714000009741F001979093B7018093B601892B86
:1071500009F4289A8091BA019091BB01019690930D
:10716000BB018093BA01E0E0F0E0859194918F5FDC
:107170009F4F49F08091B8019091B9010196909389
:10718000B9018093B801FF91EF919F918F912F9159
:107190000F900FBE0F901F90189584E08093E90028
:1071A0000DC08091E8008B778093E80003C08EB318
:1071B000882351F08091E80082FFF9CF8091E800A8
:1071C00085FFEFCF8091F1000895982F83E08093A1
:1071D000E9008091E80085FD0DC08091E8008E7780
:1071E0008093E80003C08EB3882369F08091E800A3
:1071F00080FFF9CF9093F1005D9884E690E0909342
:10720000B5018093B40108954F925F926F927F927F
:107210008F929F92AF92BF92CF92DF92EF92FF92A6
:107220000F931F93CF93DF9384E08093E9008091C5
:10723000E80082FF57C2289884E690E09093B70157
:107240008093B601AADF182F853481F48CEA9DE083
:107250009093B9018093B80107B600FCFDCFF9996E
:10726000FECF81E180935700E89503C0843519F47F
:1072700094DF8DE00DC28C34E1F38035D1F3843797
:1072800021F484E4A2DF80E003C2813611F489E5B1
:10729000FFC18134B1F481DF182F7FDF90E0880FC8
:1072A000991FAA2797FDA095BA2F312F330F20E001
:1072B000442737FD4095542F822B932BA42BB52BBD
:1072C000B8C1803711F483E5E3C1833549F4C0E0E8
:1072D000D1E089917ADF21E0C730D207D1F7D9C157
:1072E000863521F481E371DF80E3D2C1833731F445
:1072F00087E86BDF85E969DF8EE1CAC18536B9F4BD
:10730000E0E0F0E093E085E090935700E89507B661
:1073100000FCFDCF80935700E89507B600FCFDCF39
:10732000E058FF4FA0E7E030FA0771F7A2CF8237AD
:1073300039F4E1E0F0E089E0809357008491A8C13E
:10734000863439F4E0E0F0E089E0809357008491DE
:107350009FC18E3439F4E3E0F0E089E08093570078
:10736000849196C1813539F4E2E0F0E089E08093C0
:10737000570084918DC1823631F489E526DF80E0A3
:1073800024DF80E885C1823419F0873609F0E5C032
:107390001092B9011092B80100DF082FFEDEF82E1E
:1073A000FCDE682E8554823008F071C1902F80E099
:1073B000CF2DD0E0C82BD92B10926F00173609F0D3
:1073C0004BC081E180935700E895DD24CC24C39421
:1073D0003FC0E090BD01F090BE010091BF0110914F
:1073E000C001B6E46B16D9F4ED2DF0E0EE29FF29CB
:1073F000E4918E2FEADEDD2081F082E090E0A0E0D3
:10740000B0E0E80EF91E0A1F1B1FE092BD01F092CA
:10741000BE010093BF011093C001DC2418C0D80145
:10742000C701B695A7959795879573D5CEDE82E06F
:1074300090E0A0E0B0E0E80EF91E0A1F1B1FE092EA
:10744000BD01F092BE010093BF011093C0012197CE
:10745000209709F0BECF7DC08090BD019090BE0105
:10746000A090BF01B090C00196E4691609F05DC01C
:1074700083E0F40180935700E89507B600FCFDCF48
:1074800054C0F6E46F1661F5772031F1E090BD014C
:10749000F090BE010091BF011091C0017EDED82E98
:1074A000CC24852D90E08C299D29F7010C01409278
:1074B0005700E895112482E090E0A0E0B0E0E80EEB
:1074C000F91E0A1F1B1FE092BD01F092BE0100933E
:1074D000BF011093C00102C060DE582E742423C087
:1074E000E090BD01F090BE010091BF011091C0017C
:1074F00016950795F794E79450DE682FC70111D5CC
:107500008091BD019091BE01A091BF01B091C001D9
:107510000296A11DB11D8093BD019093BE01A09361
:10752000BF01B093C001219704C05524772444249F
:107530004394209709F0A5CF96E4691641F485E0BD
:10754000F40180935700E89507B600FCFDCF8DE06D
:107550003CDE82E080936F009CC0833471F4009124
:10756000BD011091BE0119DE90E021E0F8010C018F
:1075700020935700E89511247CCE833619F5E090CE
:10758000BD01F090BE010091BF011091C00105DE68
:10759000F701E16090E021E00C0120935700E895AD
:1075A000112482E090E0A0E0B0E0E80EF91E0A1F8E
:1075B0001B1FE092BD01F092BE010093BF0110932A
:1075C000C00157CE8D3661F4E091BD01F091BE014E
:1075D00085E080935700E89507B600FCFDCF49CEC3
:1075E000823551F4E091BD01F091BE0105911491F5
:1075F000812FEBDD802F4CC0843421F5E090BD015C
:10760000F090BE010091BF011091C0011695079541
:10761000F794E794C2DD682FC70183D48091BD0140
:107620009091BE01A091BF01B091C0010296A11D31
:10763000B11D8093BD019093BE01A093BF01B09393
:10764000C00117CE843609F5E090BD01F090BE016F
:107650000091BF011091C001D801C701B695A7954F
:107660009795879556D4B1DD82E090E0A0E0B0E038
:10767000E80EF91E0A1F1B1FE092BD01F092BE0129
:107680000093BF011093C00104C08B3111F08FE350
:107690009CDD83E08093E9009091E8008091E80010
:1076A0008E778093E80095FF04C010C08EB38823C6
:1076B000C9F08091E80080FFF9CF8091E8008E77D3
:1076C0008093E80003C08EB3882361F08091E800C6
:1076D00080FFF9CF84E08093E9008091E8008B7708
:1076E0008093E800DF91CF911F910F91FF90EF9071
:1076F000DF90CF90BF90AF909F908F907F906F90D2
:107700005F904F9008959091C501892F8F778132B6
:1077100049F58091C6018032A1F0813219F5913A84
:1077200009F58091E800877F8093E8008CE091E084
:1077300067E070E025D28091E8008B778093E800C5
:107740000895913279F48091E800877F8093E80072
:107750008CE091E067E070E077D28091E8008E776E
:107760008093E800089582E061EC42E0D1D083E0AC
:1077700061E842E1CDD084E060E842E1C9C01F93F6
:10778000209100081092000844B714BE88E10FB69B
:10779000F89480936000109260000FBE80E8E0E0F3
:1077A000F0E00FB6F89480936100E09361000FBEA3
:1077B00031E035BF92E095BF3F9A209A559A809369
:1077C00061001092610047985D9A289A1092890092
:1077D0008AEF8093880090936F0083E0809381000C
:1077E000859194918F5F9F4F11F03093BC01942F3E
:1077F00041FF19C0809109012817A9F08093000862
:10780000789480911301882339F08091BA01909186
:10781000BB0188579140C8F3F8941092000881E0AA
:10782000809313010CC090FF04C08091BC01882399
:1078300051F493FF09C080910901281729F0809124
:10784000BC01882309F04EDCD4D078941092B901A1
:107850001092B8011EEF20C0D7DC49D38091B80147
:107860009091B901815A9F4010F0109213018091BC
:10787000C1019091C20101969093C2018093C10110
:10788000292F97FF03C0512F591B252F220F28178F
:1078900010F4479801C0479A809113018823E1F6BC
:1078A0008091E00081608093E0001CDC80E090E04B
:1078B0001F910895FA01923049F0933061F09130B0
:1078C000F9F484E191E022E130E01EC086E291E02B
:1078D0002EE330E019C0882329F484E691E024E007
:1078E00030E012C0813029F488E691E02EE130E0EA
:1078F0000BC0823029F488E891E02AE230E004C02D
:1079000080E090E020E030E091838083C901089519
:107910008093E9008091EB0081608093EB001092EE
:10792000ED006093EC004093ED008091EE00881F25
:107930008827881F08958091C50188238CF403C08F
:107940008EB38823B1F08091E80082FFF9CF809157
:10795000E8008B778093E80008958EB3882349F080
:107960008091E80080FFF9CF8091E8008E778093C6
:10797000E8000895EF92FF920F931F9345D04CD0EB
:1079800008ED10E0F80180818F7780838081806826
:10799000808380818F7D808319BC1EBA1092C301C1
:1079A00080EEE82EF12CF70180818B7F8083F80137
:1079B00080818160808380E060E042E0A9DFE1EEC9
:1079C000F0E080818E7F8083E2EEF0E08081816054
:1079D0008083808188608083F70180818E7F8083AF
:1079E000F8018081806180831F910F91FF90EF905B
:1079F0000895E7EDF0E08081816080838AE482BFB2
:107A000081E08093C401B6CFE8EDF0E080818E7F05
:107A100080831092E20008951092DA001092E10043
:107A200008951F920F920FB60F9211242F933F9338
:107A30004F935F936F937F938F939F93AF93BF9376
:107A4000EF93FF938091DA0080FF1AC08091D800F5
:107A500080FF16C08091DA008E7F8093DA008091DB
:107A6000D90080FF0AC019BC82E089BD09B400FEBC
:107A7000FDCF81E08EBB3AD203C019BC1EBA36D20C
:107A80008091E10080FF17C08091E20080FF13C069
:107A90008091E2008E7F8093E2008091E20080611D
:107AA0008093E2008091D80080628093D80019BC56
:107AB00085E08EBB1BD28091E10084FF2BC08091BA
:107AC000E20084FF27C019BC82E089BD09B400FE32
:107AD000FDCF8091D8008F7D8093D8008091E10008
:107AE0008F7E8093E1008091E2008F7E8093E200A0
:107AF0008091E20081608093E2008091C30188233D
:107B000031F48091E30087FD02C081E001C084E090
:107B10008EBBECD18091E10083FF21C08091E20017
:107B200083FF1DC08091E100877F8093E10082E0A8
:107B30008EBB1092C3018091E1008E7F8093E100A3
:107B40008091E2008E7F8093E2008091E20080616C
:107B50008093E20080E060E042E0DADEC7D1FF918E
:107B6000EF91BF91AF919F918F917F916F915F91B5
:107B70004F913F912F910F900FBE0F901F9018952E
:107B80009C014091CB015091CC014617570718F446
:107B9000F90190E044C06115710511F0AB01F8CF17
:107BA0008091E8008E778093E80040E050E0F0CFCD
:107BB0008EB3882309F444C0853009F443C0809112
:107BC000E80083FF02C081E008958091E80082FD13
:107BD00031C08091E80080FF22C08091F300909135
:107BE000F200782F60E0292F30E0262B372B07C0DA
:107BF00081918093F100415050402F5F3F4F4115DC
:107C0000510519F02830310598F390E028303105FE
:107C100009F491E08091E8008E778093E8004115A7
:107C2000510531F6992321F605C08EB3882341F022
:107C3000853041F08091E80082FFF7CF80E0089521
:107C400082E0089583E008959C016115710529F48F
:107C50008091E8008B778093E800F90126C08EB30D
:107C6000882391F1853091F18091E80083FF02C073
:107C700081E008958091E80082FFF1CF06C08091F5
:107C8000F10081936150704059F02091F300809190
:107C9000F200322F20E090E0822B932B892B79F792
:107CA0008091E8008B778093E80061157105B9F643
:107CB00005C08EB3882341F0853041F08091E80003
:107CC00080FFF7CF80E0089582E0089583E0089573
:107CD0000F931F93DF93CF9300D0CDB7DEB7E5ECC2
:107CE000F1E08091F100819381E0ED3CF807C9F764
:107CF0000ADD8091E80083FFE4C08091C501909186
:107D0000C601953009F46DC0963040F4913081F190
:107D1000913070F0933009F0D4C02AC0983009F443
:107D2000A3C0993009F4B2C0963009F0CAC07CC033
:107D3000803809F4C6C0823809F0C3C08091C901F7
:107D400087708093E9008091EB001092E900209108
:107D5000E800277F2093E80090E025E0969587953E
:107D60002A95E1F781708093F1001092F10087C0AD
:107D7000882319F0823009F0A4C08F71823009F095
:107D8000A0C08091C701882331F52091C9012770D7
:107D900009F497C02093E9008091EB0080FF1BC09D
:107DA000933021F48091EB00806213C08091EB004E
:107DB00080618093EB0081E090E002C0880F991F02
:107DC0002A95E2F78093EA001092EA008091EB0096
:107DD00088608093EB001092E9008091E800877F33
:107DE00051C0882309F06DC01091C7011F770FB7EC
:107DF000F8948091E800877F8093E8009CDD809173
:107E0000E80080FFFCCF8091E3008078812B809395
:107E1000E30080688093E300112311F482E001C045
:107E200083E08EBB0FBF4DC08058823008F049C040
:107E30008091C7019091C8016091C901AE014F5F67
:107E40005F4F38DDBC01009709F43BC08091E8002A
:107E5000877F8093E80089819A8192DE8091E80093
:107E60008B778093E8002DC0803859F58091E80029
:107E7000877F8093E8008091C3018093F100809117
:107E8000E8008E778093E80056DD1BC08823C9F494
:107E90009091C7019230A8F48091E800877F809389
:107EA000E8009093C30147DD8091C301882331F43A
:107EB0008091E30087FD02C081E001C084E08EBBB9
:107EC00052DC8091E80083FF0AC08091EB00806261
:107ED0008093EB008091E800877F8093E8000F900B
:107EE0000F90CF91DF911F910F91089508951F93E7
:107EF0008EB3882361F01091E9001092E90080911F
:107F0000E80083FF01C0E4DE17701093E9001F91C1
:107F10000895F999FECF92BD81BDF89A992780B551
:107F20000895262FF999FECF1FBA92BD81BD20BDBD
:107F30000FB6F894FA9AF99A0FBE01960895F8943C
:027F4000FFCF71
:107F42004341544552494E41007700080000000069
:107F52000000080112011001020000084F1B0392E9
:107F620001000201000109023E0002010080320903
:107F72000400000102020100052400100104240291
:107F8200040524060001070582030800FF09040115
:107F920000020A0000000705040210000107058321
:107FA20002100001040309041E03500072006F0056
:107FB20020004D006900630072006F002000330052
:107FC2002E003300560000002A03530070006100A7
:107FD20072006B00460075006E00200045006C00C8
:107FE20065006300740072006F006E006900630038
:047FF2007300000018
:040000030000700089
:00000001FF
